{
  "_format": "hh-sol-artifact-1",
  "contractName": "CrystalFrogs",
  "sourceName": "contracts/CrystalFrogs.sol",
  "abi": [
    {
      "inputs": [
        {
          "internalType": "string",
          "name": "uri",
          "type": "string"
        },
        {
          "internalType": "bytes32",
          "name": "merkleroot",
          "type": "bytes32"
        },
        {
          "internalType": "address",
          "name": "_proxyRegistryAddress",
          "type": "address"
        }
      ],
      "stateMutability": "nonpayable",
      "type": "constructor"
    },
    {
      "anonymous": false,
      "inputs": [
        {
          "indexed": true,
          "internalType": "address",
          "name": "owner",
          "type": "address"
        },
        {
          "indexed": true,
          "internalType": "address",
          "name": "approved",
          "type": "address"
        },
        {
          "indexed": true,
          "internalType": "uint256",
          "name": "tokenId",
          "type": "uint256"
        }
      ],
      "name": "Approval",
      "type": "event"
    },
    {
      "anonymous": false,
      "inputs": [
        {
          "indexed": true,
          "internalType": "address",
          "name": "owner",
          "type": "address"
        },
        {
          "indexed": true,
          "internalType": "address",
          "name": "operator",
          "type": "address"
        },
        {
          "indexed": false,
          "internalType": "bool",
          "name": "approved",
          "type": "bool"
        }
      ],
      "name": "ApprovalForAll",
      "type": "event"
    },
    {
      "anonymous": false,
      "inputs": [
        {
          "indexed": true,
          "internalType": "contract IERC20",
          "name": "token",
          "type": "address"
        },
        {
          "indexed": false,
          "internalType": "address",
          "name": "to",
          "type": "address"
        },
        {
          "indexed": false,
          "internalType": "uint256",
          "name": "amount",
          "type": "uint256"
        }
      ],
      "name": "ERC20PaymentReleased",
      "type": "event"
    },
    {
      "anonymous": false,
      "inputs": [
        {
          "indexed": true,
          "internalType": "address",
          "name": "previousOwner",
          "type": "address"
        },
        {
          "indexed": true,
          "internalType": "address",
          "name": "newOwner",
          "type": "address"
        }
      ],
      "name": "OwnershipTransferred",
      "type": "event"
    },
    {
      "anonymous": false,
      "inputs": [
        {
          "indexed": false,
          "internalType": "address",
          "name": "account",
          "type": "address"
        },
        {
          "indexed": false,
          "internalType": "uint256",
          "name": "shares",
          "type": "uint256"
        }
      ],
      "name": "PayeeAdded",
      "type": "event"
    },
    {
      "anonymous": false,
      "inputs": [
        {
          "indexed": false,
          "internalType": "address",
          "name": "from",
          "type": "address"
        },
        {
          "indexed": false,
          "internalType": "uint256",
          "name": "amount",
          "type": "uint256"
        }
      ],
      "name": "PaymentReceived",
      "type": "event"
    },
    {
      "anonymous": false,
      "inputs": [
        {
          "indexed": false,
          "internalType": "address",
          "name": "to",
          "type": "address"
        },
        {
          "indexed": false,
          "internalType": "uint256",
          "name": "amount",
          "type": "uint256"
        }
      ],
      "name": "PaymentReleased",
      "type": "event"
    },
    {
      "anonymous": false,
      "inputs": [
        {
          "indexed": true,
          "internalType": "address",
          "name": "from",
          "type": "address"
        },
        {
          "indexed": true,
          "internalType": "address",
          "name": "to",
          "type": "address"
        },
        {
          "indexed": true,
          "internalType": "uint256",
          "name": "tokenId",
          "type": "uint256"
        }
      ],
      "name": "Transfer",
      "type": "event"
    },
    {
      "inputs": [
        {
          "internalType": "address",
          "name": "",
          "type": "address"
        }
      ],
      "name": "_presaleClaimed",
      "outputs": [
        {
          "internalType": "uint256",
          "name": "",
          "type": "uint256"
        }
      ],
      "stateMutability": "view",
      "type": "function"
    },
    {
      "inputs": [
        {
          "internalType": "address",
          "name": "to",
          "type": "address"
        },
        {
          "internalType": "uint256",
          "name": "tokenId",
          "type": "uint256"
        }
      ],
      "name": "approve",
      "outputs": [],
      "stateMutability": "nonpayable",
      "type": "function"
    },
    {
      "inputs": [
        {
          "internalType": "address",
          "name": "owner",
          "type": "address"
        }
      ],
      "name": "balanceOf",
      "outputs": [
        {
          "internalType": "uint256",
          "name": "",
          "type": "uint256"
        }
      ],
      "stateMutability": "view",
      "type": "function"
    },
    {
      "inputs": [],
      "name": "baseExtension",
      "outputs": [
        {
          "internalType": "string",
          "name": "",
          "type": "string"
        }
      ],
      "stateMutability": "view",
      "type": "function"
    },
    {
      "inputs": [],
      "name": "baseURI",
      "outputs": [
        {
          "internalType": "string",
          "name": "",
          "type": "string"
        }
      ],
      "stateMutability": "view",
      "type": "function"
    },
    {
      "inputs": [
        {
          "internalType": "uint256",
          "name": "tokenId",
          "type": "uint256"
        }
      ],
      "name": "getApproved",
      "outputs": [
        {
          "internalType": "address",
          "name": "",
          "type": "address"
        }
      ],
      "stateMutability": "view",
      "type": "function"
    },
    {
      "inputs": [
        {
          "internalType": "address",
          "name": "owner",
          "type": "address"
        },
        {
          "internalType": "address",
          "name": "operator",
          "type": "address"
        }
      ],
      "name": "isApprovedForAll",
      "outputs": [
        {
          "internalType": "bool",
          "name": "",
          "type": "bool"
        }
      ],
      "stateMutability": "view",
      "type": "function"
    },
    {
      "inputs": [],
      "name": "maxSupply",
      "outputs": [
        {
          "internalType": "uint256",
          "name": "",
          "type": "uint256"
        }
      ],
      "stateMutability": "view",
      "type": "function"
    },
    {
      "inputs": [],
      "name": "name",
      "outputs": [
        {
          "internalType": "string",
          "name": "",
          "type": "string"
        }
      ],
      "stateMutability": "view",
      "type": "function"
    },
    {
      "inputs": [],
      "name": "notRevealedUri",
      "outputs": [
        {
          "internalType": "string",
          "name": "",
          "type": "string"
        }
      ],
      "stateMutability": "view",
      "type": "function"
    },
    {
      "inputs": [],
      "name": "owner",
      "outputs": [
        {
          "internalType": "address",
          "name": "",
          "type": "address"
        }
      ],
      "stateMutability": "view",
      "type": "function"
    },
    {
      "inputs": [
        {
          "internalType": "uint256",
          "name": "tokenId",
          "type": "uint256"
        }
      ],
      "name": "ownerOf",
      "outputs": [
        {
          "internalType": "address",
          "name": "",
          "type": "address"
        }
      ],
      "stateMutability": "view",
      "type": "function"
    },
    {
      "inputs": [],
      "name": "paused",
      "outputs": [
        {
          "internalType": "bool",
          "name": "",
          "type": "bool"
        }
      ],
      "stateMutability": "view",
      "type": "function"
    },
    {
      "inputs": [
        {
          "internalType": "uint256",
          "name": "index",
          "type": "uint256"
        }
      ],
      "name": "payee",
      "outputs": [
        {
          "internalType": "address",
          "name": "",
          "type": "address"
        }
      ],
      "stateMutability": "view",
      "type": "function"
    },
    {
      "inputs": [
        {
          "internalType": "address",
          "name": "account",
          "type": "address"
        },
        {
          "internalType": "uint256",
          "name": "_amount",
          "type": "uint256"
        },
        {
          "internalType": "bytes32[]",
          "name": "_proof",
          "type": "bytes32[]"
        }
      ],
      "name": "preSaleMint",
      "outputs": [],
      "stateMutability": "payable",
      "type": "function"
    },
    {
      "inputs": [],
      "name": "presaleM",
      "outputs": [
        {
          "internalType": "bool",
          "name": "",
          "type": "bool"
        }
      ],
      "stateMutability": "view",
      "type": "function"
    },
    {
      "inputs": [],
      "name": "publicM",
      "outputs": [
        {
          "internalType": "bool",
          "name": "",
          "type": "bool"
        }
      ],
      "stateMutability": "view",
      "type": "function"
    },
    {
      "inputs": [
        {
          "internalType": "uint256",
          "name": "_amount",
          "type": "uint256"
        }
      ],
      "name": "publicSaleMint",
      "outputs": [],
      "stateMutability": "payable",
      "type": "function"
    },
    {
      "inputs": [
        {
          "internalType": "address payable",
          "name": "account",
          "type": "address"
        }
      ],
      "name": "release",
      "outputs": [],
      "stateMutability": "nonpayable",
      "type": "function"
    },
    {
      "inputs": [
        {
          "internalType": "contract IERC20",
          "name": "token",
          "type": "address"
        },
        {
          "internalType": "address",
          "name": "account",
          "type": "address"
        }
      ],
      "name": "release",
      "outputs": [],
      "stateMutability": "nonpayable",
      "type": "function"
    },
    {
      "inputs": [
        {
          "internalType": "contract IERC20",
          "name": "token",
          "type": "address"
        },
        {
          "internalType": "address",
          "name": "account",
          "type": "address"
        }
      ],
      "name": "released",
      "outputs": [
        {
          "internalType": "uint256",
          "name": "",
          "type": "uint256"
        }
      ],
      "stateMutability": "view",
      "type": "function"
    },
    {
      "inputs": [
        {
          "internalType": "address",
          "name": "account",
          "type": "address"
        }
      ],
      "name": "released",
      "outputs": [
        {
          "internalType": "uint256",
          "name": "",
          "type": "uint256"
        }
      ],
      "stateMutability": "view",
      "type": "function"
    },
    {
      "inputs": [],
      "name": "renounceOwnership",
      "outputs": [],
      "stateMutability": "nonpayable",
      "type": "function"
    },
    {
      "inputs": [],
      "name": "reveal",
      "outputs": [],
      "stateMutability": "nonpayable",
      "type": "function"
    },
    {
      "inputs": [],
      "name": "revealed",
      "outputs": [
        {
          "internalType": "bool",
          "name": "",
          "type": "bool"
        }
      ],
      "stateMutability": "view",
      "type": "function"
    },
    {
      "inputs": [],
      "name": "root",
      "outputs": [
        {
          "internalType": "bytes32",
          "name": "",
          "type": "bytes32"
        }
      ],
      "stateMutability": "view",
      "type": "function"
    },
    {
      "inputs": [
        {
          "internalType": "address",
          "name": "from",
          "type": "address"
        },
        {
          "internalType": "address",
          "name": "to",
          "type": "address"
        },
        {
          "internalType": "uint256",
          "name": "tokenId",
          "type": "uint256"
        }
      ],
      "name": "safeTransferFrom",
      "outputs": [],
      "stateMutability": "nonpayable",
      "type": "function"
    },
    {
      "inputs": [
        {
          "internalType": "address",
          "name": "from",
          "type": "address"
        },
        {
          "internalType": "address",
          "name": "to",
          "type": "address"
        },
        {
          "internalType": "uint256",
          "name": "tokenId",
          "type": "uint256"
        },
        {
          "internalType": "bytes",
          "name": "_data",
          "type": "bytes"
        }
      ],
      "name": "safeTransferFrom",
      "outputs": [],
      "stateMutability": "nonpayable",
      "type": "function"
    },
    {
      "inputs": [
        {
          "internalType": "address",
          "name": "operator",
          "type": "address"
        },
        {
          "internalType": "bool",
          "name": "approved",
          "type": "bool"
        }
      ],
      "name": "setApprovalForAll",
      "outputs": [],
      "stateMutability": "nonpayable",
      "type": "function"
    },
    {
      "inputs": [
        {
          "internalType": "string",
          "name": "_newBaseExtension",
          "type": "string"
        }
      ],
      "name": "setBaseExtension",
      "outputs": [],
      "stateMutability": "nonpayable",
      "type": "function"
    },
    {
      "inputs": [
        {
          "internalType": "string",
          "name": "_tokenBaseURI",
          "type": "string"
        }
      ],
      "name": "setBaseURI",
      "outputs": [],
      "stateMutability": "nonpayable",
      "type": "function"
    },
    {
      "inputs": [
        {
          "internalType": "bytes32",
          "name": "merkleroot",
          "type": "bytes32"
        }
      ],
      "name": "setMerkleRoot",
      "outputs": [],
      "stateMutability": "nonpayable",
      "type": "function"
    },
    {
      "inputs": [
        {
          "internalType": "string",
          "name": "_notRevealedURI",
          "type": "string"
        }
      ],
      "name": "setNotRevealedURI",
      "outputs": [],
      "stateMutability": "nonpayable",
      "type": "function"
    },
    {
      "inputs": [
        {
          "internalType": "address",
          "name": "account",
          "type": "address"
        }
      ],
      "name": "shares",
      "outputs": [
        {
          "internalType": "uint256",
          "name": "",
          "type": "uint256"
        }
      ],
      "stateMutability": "view",
      "type": "function"
    },
    {
      "inputs": [
        {
          "internalType": "bytes4",
          "name": "interfaceId",
          "type": "bytes4"
        }
      ],
      "name": "supportsInterface",
      "outputs": [
        {
          "internalType": "bool",
          "name": "",
          "type": "bool"
        }
      ],
      "stateMutability": "view",
      "type": "function"
    },
    {
      "inputs": [],
      "name": "symbol",
      "outputs": [
        {
          "internalType": "string",
          "name": "",
          "type": "string"
        }
      ],
      "stateMutability": "view",
      "type": "function"
    },
    {
      "inputs": [],
      "name": "togglePause",
      "outputs": [],
      "stateMutability": "nonpayable",
      "type": "function"
    },
    {
      "inputs": [],
      "name": "togglePresale",
      "outputs": [],
      "stateMutability": "nonpayable",
      "type": "function"
    },
    {
      "inputs": [],
      "name": "togglePublicSale",
      "outputs": [],
      "stateMutability": "nonpayable",
      "type": "function"
    },
    {
      "inputs": [
        {
          "internalType": "uint256",
          "name": "tokenId",
          "type": "uint256"
        }
      ],
      "name": "tokenURI",
      "outputs": [
        {
          "internalType": "string",
          "name": "",
          "type": "string"
        }
      ],
      "stateMutability": "view",
      "type": "function"
    },
    {
      "inputs": [
        {
          "internalType": "contract IERC20",
          "name": "token",
          "type": "address"
        }
      ],
      "name": "totalReleased",
      "outputs": [
        {
          "internalType": "uint256",
          "name": "",
          "type": "uint256"
        }
      ],
      "stateMutability": "view",
      "type": "function"
    },
    {
      "inputs": [],
      "name": "totalReleased",
      "outputs": [
        {
          "internalType": "uint256",
          "name": "",
          "type": "uint256"
        }
      ],
      "stateMutability": "view",
      "type": "function"
    },
    {
      "inputs": [],
      "name": "totalShares",
      "outputs": [
        {
          "internalType": "uint256",
          "name": "",
          "type": "uint256"
        }
      ],
      "stateMutability": "view",
      "type": "function"
    },
    {
      "inputs": [],
      "name": "totalSupply",
      "outputs": [
        {
          "internalType": "uint256",
          "name": "",
          "type": "uint256"
        }
      ],
      "stateMutability": "view",
      "type": "function"
    },
    {
      "inputs": [
        {
          "internalType": "address",
          "name": "from",
          "type": "address"
        },
        {
          "internalType": "address",
          "name": "to",
          "type": "address"
        },
        {
          "internalType": "uint256",
          "name": "tokenId",
          "type": "uint256"
        }
      ],
      "name": "transferFrom",
      "outputs": [],
      "stateMutability": "nonpayable",
      "type": "function"
    },
    {
      "inputs": [
        {
          "internalType": "address",
          "name": "newOwner",
          "type": "address"
        }
      ],
      "name": "transferOwnership",
      "outputs": [],
      "stateMutability": "nonpayable",
      "type": "function"
    },
    {
      "stateMutability": "payable",
      "type": "receive"
    }
  ],
  "bytecode": "0x611388601155610100604052604160808181529062003a5660a0398051620000309160139160209091019062000666565b5060408051808201909152600580825264173539b7b760d91b60209092019182526200005f9160149162000666565b506015805463ffffffff191660019081179091556003601655666a94d74f4300006018556000601955604080516020810190915260648152620000a691601b9190620006f5565b5060408051602081019091527378555568a00445cc6eaaf8597a01af7e2bc626a88152620000d990601c90600162000738565b50348015620000e757600080fd5b5060405162003a9738038062003a978339810160408190526200010a91620007da565b601c8054806020026020016040519081016040528092919081815260200182805480156200016257602002820191906000526020600020905b81546001600160a01b0316815260019091019060200180831162000143575b5050505050601b805480602002602001604051908101604052809291908181526020018280548015620001b557602002820191906000526020600020905b815481526020019060010190808311620001a0575b5050604080518082018252600c81526b4372797374616c46726f677360a01b60208083019182528351808501909452600584526446524f475360d81b9084015281519195509193506200020d92506000919062000666565b5080516200022390600190602084019062000666565b505050620002406200023a620003ad60201b60201c565b620003b1565b60016007558051825114620002b75760405162461bcd60e51b815260206004820152603260248201527f5061796d656e7453706c69747465723a2070617965657320616e6420736861726044820152710cae640d8cadccee8d040dad2e6dac2e8c6d60731b60648201526084015b60405180910390fd5b60008251116200030a5760405162461bcd60e51b815260206004820152601a60248201527f5061796d656e7453706c69747465723a206e6f207061796565730000000000006044820152606401620002ae565b60005b8251811015620003765762000361838281518110620003305762000330620008d5565b60200260200101518383815181106200034d576200034d620008d5565b60200260200101516200040360201b60201c565b806200036d8162000901565b9150506200030d565b505050600f829055601080546001600160a01b0319166001600160a01b038316179055620003a483620005f1565b50505062000977565b3390565b600680546001600160a01b038381166001600160a01b0319831681179093556040519116919082907f8be0079c531659141344cd1fd0a4f28419497f9722a3daafe3b4186f6b6457e090600090a35050565b6001600160a01b038216620004705760405162461bcd60e51b815260206004820152602c60248201527f5061796d656e7453706c69747465723a206163636f756e74206973207468652060448201526b7a65726f206164647265737360a01b6064820152608401620002ae565b60008111620004c25760405162461bcd60e51b815260206004820152601d60248201527f5061796d656e7453706c69747465723a207368617265732061726520300000006044820152606401620002ae565b6001600160a01b0382166000908152600a6020526040902054156200053e5760405162461bcd60e51b815260206004820152602b60248201527f5061796d656e7453706c69747465723a206163636f756e7420616c726561647960448201526a206861732073686172657360a81b6064820152608401620002ae565b600c8054600181019091557fdf6966c971051c3d54ec59162606531493a51404a002842f56009d7e5cf4a8c70180546001600160a01b0319166001600160a01b0384169081179091556000908152600a60205260409020819055600854620005a89082906200091f565b600855604080516001600160a01b0384168152602081018390527f40c340f65e17194d14ddddb073d3c9f888e3cb52b5aae0c6c7706b4fbc905fac910160405180910390a15050565b6006546001600160a01b031633146200064d5760405162461bcd60e51b815260206004820181905260248201527f4f776e61626c653a2063616c6c6572206973206e6f7420746865206f776e65726044820152606401620002ae565b80516200066290601290602084019062000666565b5050565b82805462000674906200093a565b90600052602060002090601f016020900481019282620006985760008555620006e3565b82601f10620006b357805160ff1916838001178555620006e3565b82800160010185558215620006e3579182015b82811115620006e3578251825591602001919060010190620006c6565b50620006f192915062000790565b5090565b828054828255906000526020600020908101928215620006e3579160200282015b82811115620006e3578251829060ff1690559160200191906001019062000716565b828054828255906000526020600020908101928215620006e3579160200282015b82811115620006e357825182546001600160a01b0319166001600160a01b0390911617825560209092019160019091019062000759565b5b80821115620006f1576000815560010162000791565b634e487b7160e01b600052604160045260246000fd5b80516001600160a01b0381168114620007d557600080fd5b919050565b600080600060608486031215620007f057600080fd5b83516001600160401b03808211156200080857600080fd5b818601915086601f8301126200081d57600080fd5b815181811115620008325762000832620007a7565b604051601f8201601f19908116603f011681019083821181831017156200085d576200085d620007a7565b816040528281526020935089848487010111156200087a57600080fd5b600091505b828210156200089e57848201840151818301850152908301906200087f565b82821115620008b05760008484830101525b8097505050508086015193505050620008cc60408501620007bd565b90509250925092565b634e487b7160e01b600052603260045260246000fd5b634e487b7160e01b600052601160045260246000fd5b6000600019821415620009185762000918620008eb565b5060010190565b60008219821115620009355762000935620008eb565b500190565b600181811c908216806200094f57607f821691505b602082108114156200097157634e487b7160e01b600052602260045260246000fd5b50919050565b6130cf80620009876000396000f3fe6080604052600436106102815760003560e01c80638cc4de191161014f578063c87b56dd116100c1578063e222c7f91161007a578063e222c7f9146107e9578063e33b7de3146107fe578063e985e9c514610813578063ebf0c71714610833578063f2c4ce1e14610849578063f2fde38b1461086957600080fd5b8063c87b56dd14610714578063ce7c2ac214610734578063d5abeb011461076a578063d79779b214610780578063da3ef23f146107b6578063e1bff462146107d657600080fd5b8063a45063c011610113578063a45063c014610681578063a475b5dd146106a2578063b3ab66b0146106b7578063b88d4fde146106ca578063c4ae3168146106ea578063c6682862146106ff57600080fd5b80638cc4de19146105cb5780638da5cb5b146105f857806395d89b41146106165780639852595c1461062b578063a22cb4651461066157600080fd5b8063406072a9116101f35780636352211e116101ac5780636352211e146105215780636c0360eb1461054157806370a0823114610556578063715018a6146105765780637cb647591461058b5780638b83209b146105ab57600080fd5b8063406072a91461044257806342842e0e1461048857806348b75044146104a857806351830227146104c857806355f804b3146104e75780635c975abb1461050757600080fd5b80631798d58b116102455780631798d58b1461039557806318160ddd146103b557806319165587146103d857806323b872dd146103f857806334393743146104185780633a98ef391461042d57600080fd5b806301ffc9a7146102cf57806306fdde0314610304578063081812fc14610326578063081c8c441461035e578063095ea7b31461037357600080fd5b366102ca577f6ef95f06320e7a25a04a175ca677b7052bdd97131872c2192525a629f51be77033604080516001600160a01b0390921682523460208301520160405180910390a1005b600080fd5b3480156102db57600080fd5b506102ef6102ea366004612842565b610889565b60405190151581526020015b60405180910390f35b34801561031057600080fd5b506103196108db565b6040516102fb91906128b7565b34801561033257600080fd5b506103466103413660046128ca565b61096d565b6040516001600160a01b0390911681526020016102fb565b34801561036a57600080fd5b50610319610a07565b34801561037f57600080fd5b5061039361038e3660046128f8565b610a95565b005b3480156103a157600080fd5b506015546102ef9062010000900460ff1681565b3480156103c157600080fd5b506103ca610bab565b6040519081526020016102fb565b3480156103e457600080fd5b506103936103f3366004612924565b610bbb565b34801561040457600080fd5b50610393610413366004612941565b610ce9565b34801561042457600080fd5b50610393610d1a565b34801561043957600080fd5b506008546103ca565b34801561044e57600080fd5b506103ca61045d366004612982565b6001600160a01b039182166000908152600e6020908152604080832093909416825291909152205490565b34801561049457600080fd5b506103936104a3366004612941565b610d63565b3480156104b457600080fd5b506103936104c3366004612982565b610d7e565b3480156104d457600080fd5b506015546102ef90610100900460ff1681565b3480156104f357600080fd5b50610393610502366004612a47565b610f66565b34801561051357600080fd5b506015546102ef9060ff1681565b34801561052d57600080fd5b5061034661053c3660046128ca565b610fa7565b34801561054d57600080fd5b5061031961101e565b34801561056257600080fd5b506103ca610571366004612924565b61102b565b34801561058257600080fd5b506103936110b2565b34801561059757600080fd5b506103936105a63660046128ca565b6110e8565b3480156105b757600080fd5b506103466105c63660046128ca565b611117565b3480156105d757600080fd5b506103ca6105e6366004612924565b60176020526000908152604090205481565b34801561060457600080fd5b506006546001600160a01b0316610346565b34801561062257600080fd5b50610319611147565b34801561063757600080fd5b506103ca610646366004612924565b6001600160a01b03166000908152600b602052604090205490565b34801561066d57600080fd5b5061039361067c366004612a9e565b611156565b34801561068d57600080fd5b506015546102ef906301000000900460ff1681565b3480156106ae57600080fd5b50610393611161565b6103936106c53660046128ca565b61119c565b3480156106d657600080fd5b506103936106e5366004612acc565b61137c565b3480156106f657600080fd5b506103936113b4565b34801561070b57600080fd5b506103196113f2565b34801561072057600080fd5b5061031961072f3660046128ca565b6113ff565b34801561074057600080fd5b506103ca61074f366004612924565b6001600160a01b03166000908152600a602052604090205490565b34801561077657600080fd5b506103ca60115481565b34801561078c57600080fd5b506103ca61079b366004612924565b6001600160a01b03166000908152600d602052604090205490565b3480156107c257600080fd5b506103936107d1366004612a47565b61157e565b6103936107e4366004612b4c565b6115bb565b3480156107f557600080fd5b506103936118c7565b34801561080a57600080fd5b506009546103ca565b34801561081f57600080fd5b506102ef61082e366004612982565b611912565b34801561083f57600080fd5b506103ca600f5481565b34801561085557600080fd5b50610393610864366004612a47565b6119e2565b34801561087557600080fd5b50610393610884366004612924565b611a1f565b60006001600160e01b031982166380ac58cd60e01b14806108ba57506001600160e01b03198216635b5e139f60e01b145b806108d557506301ffc9a760e01b6001600160e01b03198316145b92915050565b6060600080546108ea90612bd8565b80601f016020809104026020016040519081016040528092919081815260200182805461091690612bd8565b80156109635780601f1061093857610100808354040283529160200191610963565b820191906000526020600020905b81548152906001019060200180831161094657829003601f168201915b5050505050905090565b6000818152600260205260408120546001600160a01b03166109eb5760405162461bcd60e51b815260206004820152602c60248201527f4552433732313a20617070726f76656420717565727920666f72206e6f6e657860448201526b34b9ba32b73a103a37b5b2b760a11b60648201526084015b60405180910390fd5b506000908152600460205260409020546001600160a01b031690565b60138054610a1490612bd8565b80601f0160208091040260200160405190810160405280929190818152602001828054610a4090612bd8565b8015610a8d5780601f10610a6257610100808354040283529160200191610a8d565b820191906000526020600020905b815481529060010190602001808311610a7057829003601f168201915b505050505081565b6000610aa082610fa7565b9050806001600160a01b0316836001600160a01b03161415610b0e5760405162461bcd60e51b815260206004820152602160248201527f4552433732313a20617070726f76616c20746f2063757272656e74206f776e656044820152603960f91b60648201526084016109e2565b336001600160a01b0382161480610b2a5750610b2a8133611912565b610b9c5760405162461bcd60e51b815260206004820152603860248201527f4552433732313a20617070726f76652063616c6c6572206973206e6f74206f7760448201527f6e6572206e6f7220617070726f76656420666f7220616c6c000000000000000060648201526084016109e2565b610ba68383611aba565b505050565b6000610bb6601a5490565b905090565b6001600160a01b0381166000908152600a6020526040902054610bf05760405162461bcd60e51b81526004016109e290612c13565b6000610bfb60095490565b610c059047612c6f565b90506000610c328383610c2d866001600160a01b03166000908152600b602052604090205490565b611b28565b905080610c515760405162461bcd60e51b81526004016109e290612c87565b6001600160a01b0383166000908152600b602052604081208054839290610c79908490612c6f565b925050819055508060096000828254610c929190612c6f565b90915550610ca290508382611b66565b604080516001600160a01b0385168152602081018390527fdf20fd1e76bc69d672e4814fafb2c449bba3a5369d8359adf9e05e6fde87b056910160405180910390a1505050565b610cf33382611c7f565b610d0f5760405162461bcd60e51b81526004016109e290612cd2565b610ba6838383611d4e565b6006546001600160a01b03163314610d445760405162461bcd60e51b81526004016109e290612d23565b6015805462ff0000198116620100009182900460ff1615909102179055565b610ba68383836040518060200160405280600081525061137c565b6001600160a01b0381166000908152600a6020526040902054610db35760405162461bcd60e51b81526004016109e290612c13565b6001600160a01b0382166000908152600d60205260408120546040516370a0823160e01b81523060048201526001600160a01b038516906370a082319060240160206040518083038186803b158015610e0b57600080fd5b505afa158015610e1f573d6000803e3d6000fd5b505050506040513d601f19601f82011682018060405250810190610e439190612d58565b610e4d9190612c6f565b90506000610e868383610c2d87876001600160a01b039182166000908152600e6020908152604080832093909416825291909152205490565b905080610ea55760405162461bcd60e51b81526004016109e290612c87565b6001600160a01b038085166000908152600e6020908152604080832093871683529290529081208054839290610edc908490612c6f565b90915550506001600160a01b0384166000908152600d602052604081208054839290610f09908490612c6f565b90915550610f1a9050848483611eea565b604080516001600160a01b038581168252602082018490528616917f3be5b7a71e84ed12875d241991c70855ac5817d847039e17a9d895c1ceb0f18a910160405180910390a250505050565b6006546001600160a01b03163314610f905760405162461bcd60e51b81526004016109e290612d23565b8051610fa3906012906020840190612793565b5050565b6000818152600260205260408120546001600160a01b0316806108d55760405162461bcd60e51b815260206004820152602960248201527f4552433732313a206f776e657220717565727920666f72206e6f6e657869737460448201526832b73a103a37b5b2b760b91b60648201526084016109e2565b60128054610a1490612bd8565b60006001600160a01b0382166110965760405162461bcd60e51b815260206004820152602a60248201527f4552433732313a2062616c616e636520717565727920666f7220746865207a65604482015269726f206164647265737360b01b60648201526084016109e2565b506001600160a01b031660009081526003602052604090205490565b6006546001600160a01b031633146110dc5760405162461bcd60e51b81526004016109e290612d23565b6110e66000611f3c565b565b6006546001600160a01b031633146111125760405162461bcd60e51b81526004016109e290612d23565b600f55565b6000600c828154811061112c5761112c612d71565b6000918252602090912001546001600160a01b031692915050565b6060600180546108ea90612bd8565b610fa3338383611f8e565b6006546001600160a01b0316331461118b5760405162461bcd60e51b81526004016109e290612d23565b6015805461ff001916610100179055565b3332146111bb5760405162461bcd60e51b81526004016109e290612d87565b6015546301000000900460ff166112145760405162461bcd60e51b815260206004820181905260248201527f4372797374616c46726f67733a205075626c6963204d696e74206973204f464660448201526064016109e2565b60155460ff16156112675760405162461bcd60e51b815260206004820181905260248201527f4372797374616c46726f67733a20436f6e74726163742069732070617573656460448201526064016109e2565b600081116112b75760405162461bcd60e51b815260206004820152601960248201527f4372797374616c46726f67733a207a65726f20616d6f756e740000000000000060448201526064016109e2565b60006112c2601a5490565b6011549091506112d28383612c6f565b111561132a5760405162461bcd60e51b815260206004820152602160248201527f4372797374616c46726f67733a204d617820737570706c7920657863656564656044820152601960fa1b60648201526084016109e2565b34826018546113399190612db3565b11156113575760405162461bcd60e51b81526004016109e290612dd2565b60005b82811015610ba65761136a61205d565b8061137481612e16565b91505061135a565b6113863383611c7f565b6113a25760405162461bcd60e51b81526004016109e290612cd2565b6113ae848484846120e2565b50505050565b6006546001600160a01b031633146113de5760405162461bcd60e51b81526004016109e290612d23565b6015805460ff19811660ff90911615179055565b60148054610a1490612bd8565b6000818152600260205260409020546060906001600160a01b031661147e5760405162461bcd60e51b815260206004820152602f60248201527f4552433732314d657461646174613a2055524920717565727920666f72206e6f60448201526e3732bc34b9ba32b73a103a37b5b2b760891b60648201526084016109e2565b601554610100900460ff1661151f576013805461149a90612bd8565b80601f01602080910402602001604051908101604052809291908181526020018280546114c690612bd8565b80156115135780601f106114e857610100808354040283529160200191611513565b820191906000526020600020905b8154815290600101906020018083116114f657829003601f168201915b50505050509050919050565b6000611529612115565b905060008151116115495760405180602001604052806000815250611577565b8061155384612124565b601460405160200161156793929190612e31565b6040516020818303038152906040525b9392505050565b6006546001600160a01b031633146115a85760405162461bcd60e51b81526004016109e290612d23565b8051610fa3906014906020840190612793565b818161163282828080602002602001604051908101604052809392919081815260200183836020028082843760009201919091525050600f546040516bffffffffffffffffffffffff193360601b166020820152909250603401905060405160208183030381529060405280519060200120612222565b15156001146116535760405162461bcd60e51b81526004016109e290612d87565b3332146116725760405162461bcd60e51b81526004016109e290612d87565b336001600160a01b038716146116ca5760405162461bcd60e51b815260206004820152601960248201527f4372797374616c46726f67733a204e6f7420616c6c6f7765640000000000000060448201526064016109e2565b60155462010000900460ff166117225760405162461bcd60e51b815260206004820152601c60248201527f4372797374616c46726f67733a20574c204d696e74206973204f46460000000060448201526064016109e2565b60155460ff16156117755760405162461bcd60e51b815260206004820181905260248201527f4372797374616c46726f67733a20436f6e74726163742069732070617573656460448201526064016109e2565b6016548511156117975760405162461bcd60e51b81526004016109e290612ef5565b601654336000908152601760205260409020546117b5908790612c6f565b11156117d35760405162461bcd60e51b81526004016109e290612ef5565b60006117de601a5490565b6011549091506117ee8783612c6f565b11156118465760405162461bcd60e51b815260206004820152602160248201527f4372797374616c46726f67733a206d617820737570706c7920657863656564656044820152601960fa1b60648201526084016109e2565b34866019546118559190612db3565b11156118735760405162461bcd60e51b81526004016109e290612dd2565b3360009081526017602052604081208054889290611892908490612c6f565b90915550600090505b868110156118bd576118ab61205d565b806118b581612e16565b91505061189b565b5050505050505050565b6006546001600160a01b031633146118f15760405162461bcd60e51b81526004016109e290612d23565b6015805463ff00000019811663010000009182900460ff1615909102179055565b60105460405163c455279160e01b81526001600160a01b03848116600483015260009281169190841690829063c45527919060240160206040518083038186803b15801561195f57600080fd5b505afa158015611973573d6000803e3d6000fd5b505050506040513d601f19601f820116820180604052508101906119979190612f42565b6001600160a01b031614156119b05760019150506108d5565b6001600160a01b0380851660009081526005602090815260408083209387168352929052205460ff165b949350505050565b6006546001600160a01b03163314611a0c5760405162461bcd60e51b81526004016109e290612d23565b8051610fa3906013906020840190612793565b6006546001600160a01b03163314611a495760405162461bcd60e51b81526004016109e290612d23565b6001600160a01b038116611aae5760405162461bcd60e51b815260206004820152602660248201527f4f776e61626c653a206e6577206f776e657220697320746865207a65726f206160448201526564647265737360d01b60648201526084016109e2565b611ab781611f3c565b50565b600081815260046020526040902080546001600160a01b0319166001600160a01b0384169081179091558190611aef82610fa7565b6001600160a01b03167f8c5be1e5ebec7d5bd14f71427d1e84f3dd0314c0f7b2291e5b200ac8c7c3b92560405160405180910390a45050565b6008546001600160a01b0384166000908152600a602052604081205490918391611b529086612db3565b611b5c9190612f75565b6119da9190612f89565b80471015611bb65760405162461bcd60e51b815260206004820152601d60248201527f416464726573733a20696e73756666696369656e742062616c616e636500000060448201526064016109e2565b6000826001600160a01b03168260405160006040518083038185875af1925050503d8060008114611c03576040519150601f19603f3d011682016040523d82523d6000602084013e611c08565b606091505b5050905080610ba65760405162461bcd60e51b815260206004820152603a60248201527f416464726573733a20756e61626c6520746f2073656e642076616c75652c207260448201527f6563697069656e74206d6179206861766520726576657274656400000000000060648201526084016109e2565b6000818152600260205260408120546001600160a01b0316611cf85760405162461bcd60e51b815260206004820152602c60248201527f4552433732313a206f70657261746f7220717565727920666f72206e6f6e657860448201526b34b9ba32b73a103a37b5b2b760a11b60648201526084016109e2565b6000611d0383610fa7565b9050806001600160a01b0316846001600160a01b03161480611d3e5750836001600160a01b0316611d338461096d565b6001600160a01b0316145b806119da57506119da8185611912565b826001600160a01b0316611d6182610fa7565b6001600160a01b031614611dc55760405162461bcd60e51b815260206004820152602560248201527f4552433732313a207472616e736665722066726f6d20696e636f72726563742060448201526437bbb732b960d91b60648201526084016109e2565b6001600160a01b038216611e275760405162461bcd60e51b8152602060048201526024808201527f4552433732313a207472616e7366657220746f20746865207a65726f206164646044820152637265737360e01b60648201526084016109e2565b611e32600082611aba565b6001600160a01b0383166000908152600360205260408120805460019290611e5b908490612f89565b90915550506001600160a01b0382166000908152600360205260408120805460019290611e89908490612c6f565b909155505060008181526002602052604080822080546001600160a01b0319166001600160a01b0386811691821790925591518493918716917fddf252ad1be2c89b69c2b068fc378daa952ba7f163c4a11628f55a4df523b3ef91a4505050565b604080516001600160a01b038416602482015260448082018490528251808303909101815260649091019091526020810180516001600160e01b031663a9059cbb60e01b179052610ba6908490612238565b600680546001600160a01b038381166001600160a01b0319831681179093556040519116919082907f8be0079c531659141344cd1fd0a4f28419497f9722a3daafe3b4186f6b6457e090600090a35050565b816001600160a01b0316836001600160a01b03161415611ff05760405162461bcd60e51b815260206004820152601960248201527f4552433732313a20617070726f766520746f2063616c6c65720000000000000060448201526064016109e2565b6001600160a01b03838116600081815260056020908152604080832094871680845294825291829020805460ff191686151590811790915591519182527f17307eab39ab6107e8899845ad3d59bd9653f200f220920489ca2b5937696c31910160405180910390a3505050565b600260075414156120b05760405162461bcd60e51b815260206004820152601f60248201527f5265656e7472616e637947756172643a207265656e7472616e742063616c6c0060448201526064016109e2565b60026007556120c3601a80546001019055565b60006120ce601a5490565b90506120da338261230a565b506001600755565b6120ed848484611d4e565b6120f984848484612324565b6113ae5760405162461bcd60e51b81526004016109e290612fa0565b6060601280546108ea90612bd8565b6060816121485750506040805180820190915260018152600360fc1b602082015290565b8160005b8115612172578061215c81612e16565b915061216b9050600a83612f75565b915061214c565b60008167ffffffffffffffff81111561218d5761218d6129bb565b6040519080825280601f01601f1916602001820160405280156121b7576020820181803683370190505b5090505b84156119da576121cc600183612f89565b91506121d9600a86612ff2565b6121e4906030612c6f565b60f81b8183815181106121f9576121f9612d71565b60200101906001600160f81b031916908160001a90535061221b600a86612f75565b94506121bb565b60008261222f8584612431565b14949350505050565b600061228d826040518060400160405280602081526020017f5361666545524332303a206c6f772d6c6576656c2063616c6c206661696c6564815250856001600160a01b03166124a59092919063ffffffff16565b805190915015610ba657808060200190518101906122ab9190613006565b610ba65760405162461bcd60e51b815260206004820152602a60248201527f5361666545524332303a204552433230206f7065726174696f6e20646964206e6044820152691bdd081cdd58d8d9595960b21b60648201526084016109e2565b610fa38282604051806020016040528060008152506124b4565b60006001600160a01b0384163b1561242657604051630a85bd0160e11b81526001600160a01b0385169063150b7a0290612368903390899088908890600401613023565b602060405180830381600087803b15801561238257600080fd5b505af19250505080156123b2575060408051601f3d908101601f191682019092526123af91810190613060565b60015b61240c573d8080156123e0576040519150601f19603f3d011682016040523d82523d6000602084013e6123e5565b606091505b5080516124045760405162461bcd60e51b81526004016109e290612fa0565b805181602001fd5b6001600160e01b031916630a85bd0160e11b1490506119da565b506001949350505050565b600081815b845181101561249d57600085828151811061245357612453612d71565b60200260200101519050808311612479576000838152602082905260409020925061248a565b600081815260208490526040902092505b508061249581612e16565b915050612436565b509392505050565b60606119da84846000856124e7565b6124be8383612618565b6124cb6000848484612324565b610ba65760405162461bcd60e51b81526004016109e290612fa0565b6060824710156125485760405162461bcd60e51b815260206004820152602660248201527f416464726573733a20696e73756666696369656e742062616c616e636520666f6044820152651c8818d85b1b60d21b60648201526084016109e2565b6001600160a01b0385163b61259f5760405162461bcd60e51b815260206004820152601d60248201527f416464726573733a2063616c6c20746f206e6f6e2d636f6e747261637400000060448201526064016109e2565b600080866001600160a01b031685876040516125bb919061307d565b60006040518083038185875af1925050503d80600081146125f8576040519150601f19603f3d011682016040523d82523d6000602084013e6125fd565b606091505b509150915061260d82828661275a565b979650505050505050565b6001600160a01b03821661266e5760405162461bcd60e51b815260206004820181905260248201527f4552433732313a206d696e7420746f20746865207a65726f206164647265737360448201526064016109e2565b6000818152600260205260409020546001600160a01b0316156126d35760405162461bcd60e51b815260206004820152601c60248201527f4552433732313a20746f6b656e20616c7265616479206d696e7465640000000060448201526064016109e2565b6001600160a01b03821660009081526003602052604081208054600192906126fc908490612c6f565b909155505060008181526002602052604080822080546001600160a01b0319166001600160a01b03861690811790915590518392907fddf252ad1be2c89b69c2b068fc378daa952ba7f163c4a11628f55a4df523b3ef908290a45050565b60608315612769575081611577565b8251156127795782518084602001fd5b8160405162461bcd60e51b81526004016109e291906128b7565b82805461279f90612bd8565b90600052602060002090601f0160209004810192826127c15760008555612807565b82601f106127da57805160ff1916838001178555612807565b82800160010185558215612807579182015b828111156128075782518255916020019190600101906127ec565b50612813929150612817565b5090565b5b808211156128135760008155600101612818565b6001600160e01b031981168114611ab757600080fd5b60006020828403121561285457600080fd5b81356115778161282c565b60005b8381101561287a578181015183820152602001612862565b838111156113ae5750506000910152565b600081518084526128a381602086016020860161285f565b601f01601f19169290920160200192915050565b602081526000611577602083018461288b565b6000602082840312156128dc57600080fd5b5035919050565b6001600160a01b0381168114611ab757600080fd5b6000806040838503121561290b57600080fd5b8235612916816128e3565b946020939093013593505050565b60006020828403121561293657600080fd5b8135611577816128e3565b60008060006060848603121561295657600080fd5b8335612961816128e3565b92506020840135612971816128e3565b929592945050506040919091013590565b6000806040838503121561299557600080fd5b82356129a0816128e3565b915060208301356129b0816128e3565b809150509250929050565b634e487b7160e01b600052604160045260246000fd5b600067ffffffffffffffff808411156129ec576129ec6129bb565b604051601f8501601f19908116603f01168101908282118183101715612a1457612a146129bb565b81604052809350858152868686011115612a2d57600080fd5b858560208301376000602087830101525050509392505050565b600060208284031215612a5957600080fd5b813567ffffffffffffffff811115612a7057600080fd5b8201601f81018413612a8157600080fd5b6119da848235602084016129d1565b8015158114611ab757600080fd5b60008060408385031215612ab157600080fd5b8235612abc816128e3565b915060208301356129b081612a90565b60008060008060808587031215612ae257600080fd5b8435612aed816128e3565b93506020850135612afd816128e3565b925060408501359150606085013567ffffffffffffffff811115612b2057600080fd5b8501601f81018713612b3157600080fd5b612b40878235602084016129d1565b91505092959194509250565b60008060008060608587031215612b6257600080fd5b8435612b6d816128e3565b935060208501359250604085013567ffffffffffffffff80821115612b9157600080fd5b818701915087601f830112612ba557600080fd5b813581811115612bb457600080fd5b8860208260051b8501011115612bc957600080fd5b95989497505060200194505050565b600181811c90821680612bec57607f821691505b60208210811415612c0d57634e487b7160e01b600052602260045260246000fd5b50919050565b60208082526026908201527f5061796d656e7453706c69747465723a206163636f756e7420686173206e6f2060408201526573686172657360d01b606082015260800190565b634e487b7160e01b600052601160045260246000fd5b60008219821115612c8257612c82612c59565b500190565b6020808252602b908201527f5061796d656e7453706c69747465723a206163636f756e74206973206e6f742060408201526a191d59481c185e5b595b9d60aa1b606082015260800190565b60208082526031908201527f4552433732313a207472616e736665722063616c6c6572206973206e6f74206f6040820152701ddb995c881b9bdc88185c1c1c9bdd9959607a1b606082015260800190565b6020808252818101527f4f776e61626c653a2063616c6c6572206973206e6f7420746865206f776e6572604082015260600190565b600060208284031215612d6a57600080fd5b5051919050565b634e487b7160e01b600052603260045260246000fd5b6020808252601290820152712737ba1030b63637bbb2b21037b934b3b4b760711b604082015260600190565b6000816000190483118215151615612dcd57612dcd612c59565b500290565b60208082526024908201527f4372797374616c46726f67733a204e6f7420656e6f75676820657468657273206040820152631cd95b9d60e21b606082015260800190565b6000600019821415612e2a57612e2a612c59565b5060010190565b600084516020612e448285838a0161285f565b855191840191612e578184848a0161285f565b8554920191600090600181811c9080831680612e7457607f831692505b858310811415612e9257634e487b7160e01b85526022600452602485fd5b808015612ea65760018114612eb757612ee4565b60ff19851688528388019550612ee4565b60008b81526020902060005b85811015612edc5781548a820152908401908801612ec3565b505083880195505b50939b9a5050505050505050505050565b6020808252602d908201527f4372797374616c46726f67733a20596f752063616e206e6f74206d696e74207360408201526c6f206d75636820746f6b656e7360981b606082015260800190565b600060208284031215612f5457600080fd5b8151611577816128e3565b634e487b7160e01b600052601260045260246000fd5b600082612f8457612f84612f5f565b500490565b600082821015612f9b57612f9b612c59565b500390565b60208082526032908201527f4552433732313a207472616e7366657220746f206e6f6e20455243373231526560408201527131b2b4bb32b91034b6b83632b6b2b73a32b960711b606082015260800190565b60008261300157613001612f5f565b500690565b60006020828403121561301857600080fd5b815161157781612a90565b6001600160a01b03858116825284166020820152604081018390526080606082018190526000906130569083018461288b565b9695505050505050565b60006020828403121561307257600080fd5b81516115778161282c565b6000825161308f81846020870161285f565b919091019291505056fea264697066735822122094e3e359f8869d6c0a4787573a7d6365b18c626e0815e0c422ec3e8a1cb79db164736f6c63430008090033697066733a2f2f516d62746831446478656a4d357177434c7272376d50586d575056347164457a504355326642336b536d7563636e2f68696464656e2e6a736f6e",
  "linkReferences": {},
  "deployedLinkReferences": {}
}