{
  "_format": "hh-sol-artifact-1",
  "contractName": "CrystalFrogs",
  "sourceName": "contracts/CrystalFrogs.sol",
  "abi": [
    {
      "inputs": [
        {
          "internalType": "string",
          "name": "uri",
          "type": "string"
        },
        {
          "internalType": "bytes32",
          "name": "merkleroot",
          "type": "bytes32"
        },
        {
          "internalType": "bytes32",
          "name": "freeMerkleRoot",
          "type": "bytes32"
        },
        {
          "internalType": "address",
          "name": "_proxyRegistryAddress",
          "type": "address"
        }
      ],
      "stateMutability": "nonpayable",
      "type": "constructor"
    },
    {
      "anonymous": false,
      "inputs": [
        {
          "indexed": true,
          "internalType": "address",
          "name": "owner",
          "type": "address"
        },
        {
          "indexed": true,
          "internalType": "address",
          "name": "approved",
          "type": "address"
        },
        {
          "indexed": true,
          "internalType": "uint256",
          "name": "tokenId",
          "type": "uint256"
        }
      ],
      "name": "Approval",
      "type": "event"
    },
    {
      "anonymous": false,
      "inputs": [
        {
          "indexed": true,
          "internalType": "address",
          "name": "owner",
          "type": "address"
        },
        {
          "indexed": true,
          "internalType": "address",
          "name": "operator",
          "type": "address"
        },
        {
          "indexed": false,
          "internalType": "bool",
          "name": "approved",
          "type": "bool"
        }
      ],
      "name": "ApprovalForAll",
      "type": "event"
    },
    {
      "anonymous": false,
      "inputs": [
        {
          "indexed": true,
          "internalType": "contract IERC20",
          "name": "token",
          "type": "address"
        },
        {
          "indexed": false,
          "internalType": "address",
          "name": "to",
          "type": "address"
        },
        {
          "indexed": false,
          "internalType": "uint256",
          "name": "amount",
          "type": "uint256"
        }
      ],
      "name": "ERC20PaymentReleased",
      "type": "event"
    },
    {
      "anonymous": false,
      "inputs": [
        {
          "indexed": true,
          "internalType": "address",
          "name": "previousOwner",
          "type": "address"
        },
        {
          "indexed": true,
          "internalType": "address",
          "name": "newOwner",
          "type": "address"
        }
      ],
      "name": "OwnershipTransferred",
      "type": "event"
    },
    {
      "anonymous": false,
      "inputs": [
        {
          "indexed": false,
          "internalType": "address",
          "name": "account",
          "type": "address"
        },
        {
          "indexed": false,
          "internalType": "uint256",
          "name": "shares",
          "type": "uint256"
        }
      ],
      "name": "PayeeAdded",
      "type": "event"
    },
    {
      "anonymous": false,
      "inputs": [
        {
          "indexed": false,
          "internalType": "address",
          "name": "from",
          "type": "address"
        },
        {
          "indexed": false,
          "internalType": "uint256",
          "name": "amount",
          "type": "uint256"
        }
      ],
      "name": "PaymentReceived",
      "type": "event"
    },
    {
      "anonymous": false,
      "inputs": [
        {
          "indexed": false,
          "internalType": "address",
          "name": "to",
          "type": "address"
        },
        {
          "indexed": false,
          "internalType": "uint256",
          "name": "amount",
          "type": "uint256"
        }
      ],
      "name": "PaymentReleased",
      "type": "event"
    },
    {
      "anonymous": false,
      "inputs": [
        {
          "indexed": true,
          "internalType": "address",
          "name": "from",
          "type": "address"
        },
        {
          "indexed": true,
          "internalType": "address",
          "name": "to",
          "type": "address"
        },
        {
          "indexed": true,
          "internalType": "uint256",
          "name": "tokenId",
          "type": "uint256"
        }
      ],
      "name": "Transfer",
      "type": "event"
    },
    {
      "inputs": [
        {
          "internalType": "address",
          "name": "",
          "type": "address"
        }
      ],
      "name": "_freeClaimed",
      "outputs": [
        {
          "internalType": "uint256",
          "name": "",
          "type": "uint256"
        }
      ],
      "stateMutability": "view",
      "type": "function"
    },
    {
      "inputs": [
        {
          "internalType": "address",
          "name": "",
          "type": "address"
        }
      ],
      "name": "_presaleClaimed",
      "outputs": [
        {
          "internalType": "uint256",
          "name": "",
          "type": "uint256"
        }
      ],
      "stateMutability": "view",
      "type": "function"
    },
    {
      "inputs": [
        {
          "internalType": "address",
          "name": "to",
          "type": "address"
        },
        {
          "internalType": "uint256",
          "name": "tokenId",
          "type": "uint256"
        }
      ],
      "name": "approve",
      "outputs": [],
      "stateMutability": "nonpayable",
      "type": "function"
    },
    {
      "inputs": [
        {
          "internalType": "address",
          "name": "owner",
          "type": "address"
        }
      ],
      "name": "balanceOf",
      "outputs": [
        {
          "internalType": "uint256",
          "name": "",
          "type": "uint256"
        }
      ],
      "stateMutability": "view",
      "type": "function"
    },
    {
      "inputs": [],
      "name": "baseExtension",
      "outputs": [
        {
          "internalType": "string",
          "name": "",
          "type": "string"
        }
      ],
      "stateMutability": "view",
      "type": "function"
    },
    {
      "inputs": [],
      "name": "baseURI",
      "outputs": [
        {
          "internalType": "string",
          "name": "",
          "type": "string"
        }
      ],
      "stateMutability": "view",
      "type": "function"
    },
    {
      "inputs": [],
      "name": "freeRoot",
      "outputs": [
        {
          "internalType": "bytes32",
          "name": "",
          "type": "bytes32"
        }
      ],
      "stateMutability": "view",
      "type": "function"
    },
    {
      "inputs": [
        {
          "internalType": "address",
          "name": "account",
          "type": "address"
        },
        {
          "internalType": "uint256",
          "name": "_amount",
          "type": "uint256"
        },
        {
          "internalType": "bytes32[]",
          "name": "_proof",
          "type": "bytes32[]"
        }
      ],
      "name": "freeSaleMint",
      "outputs": [],
      "stateMutability": "payable",
      "type": "function"
    },
    {
      "inputs": [],
      "name": "freesaleM",
      "outputs": [
        {
          "internalType": "bool",
          "name": "",
          "type": "bool"
        }
      ],
      "stateMutability": "view",
      "type": "function"
    },
    {
      "inputs": [
        {
          "internalType": "uint256",
          "name": "tokenId",
          "type": "uint256"
        }
      ],
      "name": "getApproved",
      "outputs": [
        {
          "internalType": "address",
          "name": "",
          "type": "address"
        }
      ],
      "stateMutability": "view",
      "type": "function"
    },
    {
      "inputs": [
        {
          "internalType": "address",
          "name": "owner",
          "type": "address"
        },
        {
          "internalType": "address",
          "name": "operator",
          "type": "address"
        }
      ],
      "name": "isApprovedForAll",
      "outputs": [
        {
          "internalType": "bool",
          "name": "",
          "type": "bool"
        }
      ],
      "stateMutability": "view",
      "type": "function"
    },
    {
      "inputs": [],
      "name": "maxSupply",
      "outputs": [
        {
          "internalType": "uint256",
          "name": "",
          "type": "uint256"
        }
      ],
      "stateMutability": "view",
      "type": "function"
    },
    {
      "inputs": [],
      "name": "name",
      "outputs": [
        {
          "internalType": "string",
          "name": "",
          "type": "string"
        }
      ],
      "stateMutability": "view",
      "type": "function"
    },
    {
      "inputs": [],
      "name": "notRevealedUri",
      "outputs": [
        {
          "internalType": "string",
          "name": "",
          "type": "string"
        }
      ],
      "stateMutability": "view",
      "type": "function"
    },
    {
      "inputs": [],
      "name": "owner",
      "outputs": [
        {
          "internalType": "address",
          "name": "",
          "type": "address"
        }
      ],
      "stateMutability": "view",
      "type": "function"
    },
    {
      "inputs": [
        {
          "internalType": "uint256",
          "name": "tokenId",
          "type": "uint256"
        }
      ],
      "name": "ownerOf",
      "outputs": [
        {
          "internalType": "address",
          "name": "",
          "type": "address"
        }
      ],
      "stateMutability": "view",
      "type": "function"
    },
    {
      "inputs": [],
      "name": "paused",
      "outputs": [
        {
          "internalType": "bool",
          "name": "",
          "type": "bool"
        }
      ],
      "stateMutability": "view",
      "type": "function"
    },
    {
      "inputs": [
        {
          "internalType": "uint256",
          "name": "index",
          "type": "uint256"
        }
      ],
      "name": "payee",
      "outputs": [
        {
          "internalType": "address",
          "name": "",
          "type": "address"
        }
      ],
      "stateMutability": "view",
      "type": "function"
    },
    {
      "inputs": [
        {
          "internalType": "address",
          "name": "account",
          "type": "address"
        },
        {
          "internalType": "uint256",
          "name": "_amount",
          "type": "uint256"
        },
        {
          "internalType": "bytes32[]",
          "name": "_proof",
          "type": "bytes32[]"
        }
      ],
      "name": "preSaleMint",
      "outputs": [],
      "stateMutability": "payable",
      "type": "function"
    },
    {
      "inputs": [],
      "name": "presaleM",
      "outputs": [
        {
          "internalType": "bool",
          "name": "",
          "type": "bool"
        }
      ],
      "stateMutability": "view",
      "type": "function"
    },
    {
      "inputs": [],
      "name": "publicM",
      "outputs": [
        {
          "internalType": "bool",
          "name": "",
          "type": "bool"
        }
      ],
      "stateMutability": "view",
      "type": "function"
    },
    {
      "inputs": [
        {
          "internalType": "uint256",
          "name": "_amount",
          "type": "uint256"
        }
      ],
      "name": "publicSaleMint",
      "outputs": [],
      "stateMutability": "payable",
      "type": "function"
    },
    {
      "inputs": [
        {
          "internalType": "address",
          "name": "account",
          "type": "address"
        }
      ],
      "name": "releasable",
      "outputs": [
        {
          "internalType": "uint256",
          "name": "",
          "type": "uint256"
        }
      ],
      "stateMutability": "view",
      "type": "function"
    },
    {
      "inputs": [
        {
          "internalType": "contract IERC20",
          "name": "token",
          "type": "address"
        },
        {
          "internalType": "address",
          "name": "account",
          "type": "address"
        }
      ],
      "name": "releasable",
      "outputs": [
        {
          "internalType": "uint256",
          "name": "",
          "type": "uint256"
        }
      ],
      "stateMutability": "view",
      "type": "function"
    },
    {
      "inputs": [
        {
          "internalType": "address payable",
          "name": "account",
          "type": "address"
        }
      ],
      "name": "release",
      "outputs": [],
      "stateMutability": "nonpayable",
      "type": "function"
    },
    {
      "inputs": [
        {
          "internalType": "contract IERC20",
          "name": "token",
          "type": "address"
        },
        {
          "internalType": "address",
          "name": "account",
          "type": "address"
        }
      ],
      "name": "release",
      "outputs": [],
      "stateMutability": "nonpayable",
      "type": "function"
    },
    {
      "inputs": [
        {
          "internalType": "contract IERC20",
          "name": "token",
          "type": "address"
        },
        {
          "internalType": "address",
          "name": "account",
          "type": "address"
        }
      ],
      "name": "released",
      "outputs": [
        {
          "internalType": "uint256",
          "name": "",
          "type": "uint256"
        }
      ],
      "stateMutability": "view",
      "type": "function"
    },
    {
      "inputs": [
        {
          "internalType": "address",
          "name": "account",
          "type": "address"
        }
      ],
      "name": "released",
      "outputs": [
        {
          "internalType": "uint256",
          "name": "",
          "type": "uint256"
        }
      ],
      "stateMutability": "view",
      "type": "function"
    },
    {
      "inputs": [],
      "name": "renounceOwnership",
      "outputs": [],
      "stateMutability": "nonpayable",
      "type": "function"
    },
    {
      "inputs": [],
      "name": "reveal",
      "outputs": [],
      "stateMutability": "nonpayable",
      "type": "function"
    },
    {
      "inputs": [],
      "name": "revealed",
      "outputs": [
        {
          "internalType": "bool",
          "name": "",
          "type": "bool"
        }
      ],
      "stateMutability": "view",
      "type": "function"
    },
    {
      "inputs": [],
      "name": "root",
      "outputs": [
        {
          "internalType": "bytes32",
          "name": "",
          "type": "bytes32"
        }
      ],
      "stateMutability": "view",
      "type": "function"
    },
    {
      "inputs": [
        {
          "internalType": "address",
          "name": "from",
          "type": "address"
        },
        {
          "internalType": "address",
          "name": "to",
          "type": "address"
        },
        {
          "internalType": "uint256",
          "name": "tokenId",
          "type": "uint256"
        }
      ],
      "name": "safeTransferFrom",
      "outputs": [],
      "stateMutability": "nonpayable",
      "type": "function"
    },
    {
      "inputs": [
        {
          "internalType": "address",
          "name": "from",
          "type": "address"
        },
        {
          "internalType": "address",
          "name": "to",
          "type": "address"
        },
        {
          "internalType": "uint256",
          "name": "tokenId",
          "type": "uint256"
        },
        {
          "internalType": "bytes",
          "name": "data",
          "type": "bytes"
        }
      ],
      "name": "safeTransferFrom",
      "outputs": [],
      "stateMutability": "nonpayable",
      "type": "function"
    },
    {
      "inputs": [
        {
          "internalType": "address",
          "name": "operator",
          "type": "address"
        },
        {
          "internalType": "bool",
          "name": "approved",
          "type": "bool"
        }
      ],
      "name": "setApprovalForAll",
      "outputs": [],
      "stateMutability": "nonpayable",
      "type": "function"
    },
    {
      "inputs": [
        {
          "internalType": "string",
          "name": "_newBaseExtension",
          "type": "string"
        }
      ],
      "name": "setBaseExtension",
      "outputs": [],
      "stateMutability": "nonpayable",
      "type": "function"
    },
    {
      "inputs": [
        {
          "internalType": "string",
          "name": "_tokenBaseURI",
          "type": "string"
        }
      ],
      "name": "setBaseURI",
      "outputs": [],
      "stateMutability": "nonpayable",
      "type": "function"
    },
    {
      "inputs": [
        {
          "internalType": "bytes32",
          "name": "freeMerkleRoot",
          "type": "bytes32"
        }
      ],
      "name": "setFreeMerkleRoot",
      "outputs": [],
      "stateMutability": "nonpayable",
      "type": "function"
    },
    {
      "inputs": [
        {
          "internalType": "bytes32",
          "name": "merkleroot",
          "type": "bytes32"
        }
      ],
      "name": "setMerkleRoot",
      "outputs": [],
      "stateMutability": "nonpayable",
      "type": "function"
    },
    {
      "inputs": [
        {
          "internalType": "string",
          "name": "_notRevealedURI",
          "type": "string"
        }
      ],
      "name": "setNotRevealedURI",
      "outputs": [],
      "stateMutability": "nonpayable",
      "type": "function"
    },
    {
      "inputs": [
        {
          "internalType": "address",
          "name": "account",
          "type": "address"
        }
      ],
      "name": "shares",
      "outputs": [
        {
          "internalType": "uint256",
          "name": "",
          "type": "uint256"
        }
      ],
      "stateMutability": "view",
      "type": "function"
    },
    {
      "inputs": [
        {
          "internalType": "bytes4",
          "name": "interfaceId",
          "type": "bytes4"
        }
      ],
      "name": "supportsInterface",
      "outputs": [
        {
          "internalType": "bool",
          "name": "",
          "type": "bool"
        }
      ],
      "stateMutability": "view",
      "type": "function"
    },
    {
      "inputs": [],
      "name": "symbol",
      "outputs": [
        {
          "internalType": "string",
          "name": "",
          "type": "string"
        }
      ],
      "stateMutability": "view",
      "type": "function"
    },
    {
      "inputs": [],
      "name": "toggleFreeSale",
      "outputs": [],
      "stateMutability": "nonpayable",
      "type": "function"
    },
    {
      "inputs": [],
      "name": "togglePause",
      "outputs": [],
      "stateMutability": "nonpayable",
      "type": "function"
    },
    {
      "inputs": [],
      "name": "togglePresale",
      "outputs": [],
      "stateMutability": "nonpayable",
      "type": "function"
    },
    {
      "inputs": [],
      "name": "togglePublicSale",
      "outputs": [],
      "stateMutability": "nonpayable",
      "type": "function"
    },
    {
      "inputs": [
        {
          "internalType": "uint256",
          "name": "tokenId",
          "type": "uint256"
        }
      ],
      "name": "tokenURI",
      "outputs": [
        {
          "internalType": "string",
          "name": "",
          "type": "string"
        }
      ],
      "stateMutability": "view",
      "type": "function"
    },
    {
      "inputs": [
        {
          "internalType": "contract IERC20",
          "name": "token",
          "type": "address"
        }
      ],
      "name": "totalReleased",
      "outputs": [
        {
          "internalType": "uint256",
          "name": "",
          "type": "uint256"
        }
      ],
      "stateMutability": "view",
      "type": "function"
    },
    {
      "inputs": [],
      "name": "totalReleased",
      "outputs": [
        {
          "internalType": "uint256",
          "name": "",
          "type": "uint256"
        }
      ],
      "stateMutability": "view",
      "type": "function"
    },
    {
      "inputs": [],
      "name": "totalShares",
      "outputs": [
        {
          "internalType": "uint256",
          "name": "",
          "type": "uint256"
        }
      ],
      "stateMutability": "view",
      "type": "function"
    },
    {
      "inputs": [],
      "name": "totalSupply",
      "outputs": [
        {
          "internalType": "uint256",
          "name": "",
          "type": "uint256"
        }
      ],
      "stateMutability": "view",
      "type": "function"
    },
    {
      "inputs": [
        {
          "internalType": "address",
          "name": "from",
          "type": "address"
        },
        {
          "internalType": "address",
          "name": "to",
          "type": "address"
        },
        {
          "internalType": "uint256",
          "name": "tokenId",
          "type": "uint256"
        }
      ],
      "name": "transferFrom",
      "outputs": [],
      "stateMutability": "nonpayable",
      "type": "function"
    },
    {
      "inputs": [
        {
          "internalType": "address",
          "name": "newOwner",
          "type": "address"
        }
      ],
      "name": "transferOwnership",
      "outputs": [],
      "stateMutability": "nonpayable",
      "type": "function"
    },
    {
      "stateMutability": "payable",
      "type": "receive"
    }
  ],
  "bytecode": "0x611388601255610100604052604160808181529062003ed760a039805162000030916014916020909101906200072e565b5060408051808201909152600580825264173539b7b760d91b60209092019182526200005f916015916200072e565b506016805464ffffffffff191662010000178155600560178190556003601855666a94d74f430000601b556000601c556658d15e17628000601d556040805160c08101825260148152601560208201819052918101919091526060810192909252600b608083015260a0820152620000dc90601f906006620007bd565b506040805160c08101825273e98bdb5f4b3a3845b47965b288546b8ac6e3ec4c81527399649cd8aceffd624dae2660559dd70bdf5ca8a160208083019190915273c1eb5acd614312bac05dc8595c18fed3ba043f249282019290925273f0318a36043a19d2a3690e88094c27a206fdf830606082015273b041070b850cfcf17f1cac0bd23aceb616bd6b38608082015273af29ab7418516cc3f22e609dc783d75864ab545a60a0820152620001949190600662000800565b50348015620001a257600080fd5b5060405162003f1838038062003f18833981016040819052620001c591620008a2565b6020805460408051828402810184019091528181529190828201828280156200021857602002820191906000526020600020905b81546001600160a01b03168152600190910190602001808311620001f9575b5050505050601f8054806020026020016040519081016040528092919081815260200182805480156200026b57602002820191906000526020600020905b81548152602001906001019080831162000256575b5050604080518082018252600c81526b4372797374616c46726f677360a01b60208083019182528351808501909452600584526446524f475360d81b908401528151919550919350620002c39250600091906200072e565b508051620002d99060019060208401906200072e565b505050620002f6620002f06200046960201b60201c565b6200046d565b600160075580518251146200036d5760405162461bcd60e51b815260206004820152603260248201527f5061796d656e7453706c69747465723a2070617965657320616e6420736861726044820152710cae640d8cadccee8d040dad2e6dac2e8c6d60731b60648201526084015b60405180910390fd5b6000825111620003c05760405162461bcd60e51b815260206004820152601a60248201527f5061796d656e7453706c69747465723a206e6f20706179656573000000000000604482015260640162000364565b60005b82518110156200042c5762000417838281518110620003e657620003e6620009a7565b6020026020010151838381518110620004035762000403620009a7565b6020026020010151620004bf60201b60201c565b806200042381620009d3565b915050620003c3565b505050600f8390556010829055601180546001600160a01b0319166001600160a01b0383161790556200045f84620006ad565b5050505062000a49565b3390565b600680546001600160a01b038381166001600160a01b0319831681179093556040519116919082907f8be0079c531659141344cd1fd0a4f28419497f9722a3daafe3b4186f6b6457e090600090a35050565b6001600160a01b0382166200052c5760405162461bcd60e51b815260206004820152602c60248201527f5061796d656e7453706c69747465723a206163636f756e74206973207468652060448201526b7a65726f206164647265737360a01b606482015260840162000364565b600081116200057e5760405162461bcd60e51b815260206004820152601d60248201527f5061796d656e7453706c69747465723a20736861726573206172652030000000604482015260640162000364565b6001600160a01b0382166000908152600a602052604090205415620005fa5760405162461bcd60e51b815260206004820152602b60248201527f5061796d656e7453706c69747465723a206163636f756e7420616c726561647960448201526a206861732073686172657360a81b606482015260840162000364565b600c8054600181019091557fdf6966c971051c3d54ec59162606531493a51404a002842f56009d7e5cf4a8c70180546001600160a01b0319166001600160a01b0384169081179091556000908152600a6020526040902081905560085462000664908290620009f1565b600855604080516001600160a01b0384168152602081018390527f40c340f65e17194d14ddddb073d3c9f888e3cb52b5aae0c6c7706b4fbc905fac910160405180910390a15050565b620006b7620006d0565b8051620006cc9060139060208401906200072e565b5050565b6006546001600160a01b031633146200072c5760405162461bcd60e51b815260206004820181905260248201527f4f776e61626c653a2063616c6c6572206973206e6f7420746865206f776e6572604482015260640162000364565b565b8280546200073c9062000a0c565b90600052602060002090601f016020900481019282620007605760008555620007ab565b82601f106200077b57805160ff1916838001178555620007ab565b82800160010185558215620007ab579182015b82811115620007ab5782518255916020019190600101906200078e565b50620007b992915062000858565b5090565b828054828255906000526020600020908101928215620007ab579160200282015b82811115620007ab578251829060ff16905591602001919060010190620007de565b828054828255906000526020600020908101928215620007ab579160200282015b82811115620007ab57825182546001600160a01b0319166001600160a01b0390911617825560209092019160019091019062000821565b5b80821115620007b9576000815560010162000859565b634e487b7160e01b600052604160045260246000fd5b80516001600160a01b03811681146200089d57600080fd5b919050565b60008060008060808587031215620008b957600080fd5b84516001600160401b0380821115620008d157600080fd5b818701915087601f830112620008e657600080fd5b815181811115620008fb57620008fb6200086f565b604051601f8201601f19908116603f011681019083821181831017156200092657620009266200086f565b81604052828152602093508a848487010111156200094357600080fd5b600091505b8282101562000967578482018401518183018501529083019062000948565b82821115620009795760008484830101525b8098505050508087015194505050604085015191506200099c6060860162000885565b905092959194509250565b634e487b7160e01b600052603260045260246000fd5b634e487b7160e01b600052601160045260246000fd5b6000600019821415620009ea57620009ea620009bd565b5060010190565b6000821982111562000a075762000a07620009bd565b500190565b600181811c9082168062000a2157607f821691505b6020821081141562000a4357634e487b7160e01b600052602260045260246000fd5b50919050565b61347e8062000a596000396000f3fe6080604052600436106103395760003560e01c80638b83209b116101ab578063c4ae3168116100f7578063e1bff46211610095578063e985e9c51161006f578063e985e9c5146109b8578063ebf0c717146109d8578063f2c4ce1e146109ee578063f2fde38b14610a0e57600080fd5b8063e1bff4621461097b578063e222c7f91461098e578063e33b7de3146109a357600080fd5b8063ce7c2ac2116100d1578063ce7c2ac2146108d9578063d5abeb011461090f578063d79779b214610925578063da3ef23f1461095b57600080fd5b8063c4ae31681461088f578063c6682862146108a4578063c87b56dd146108b957600080fd5b8063a3f8eace11610164578063b3ab66b01161013e578063b3ab66b014610829578063b88d4fde1461083c578063c4088d681461085c578063c45ac0501461086f57600080fd5b8063a3f8eace146107d2578063a45063c0146107f2578063a475b5dd1461081457600080fd5b80638b83209b146106fc5780638cc4de191461071c5780638da5cb5b1461074957806395d89b41146107675780639852595c1461077c578063a22cb465146107b257600080fd5b806342842e0e11610285578063638df30b11610223578063715018a6116101fd578063715018a61461068557806377a38c1a1461069a5780637857ee42146106af5780637cb64759146106dc57600080fd5b8063638df30b146106305780636c0360eb1461065057806370a082311461066557600080fd5b8063518302271161025f57806351830227146105b757806355f804b3146105d65780635c975abb146105f65780636352211e1461061057600080fd5b806342842e0e1461056157806348b75044146105815780634df34e78146105a157600080fd5b806318160ddd116102f257806334393743116102cc57806334393743146104d157806334d53b15146104e65780633a98ef3914610506578063406072a91461051b57600080fd5b806318160ddd1461046e578063191655871461049157806323b872dd146104b157600080fd5b806301ffc9a71461038757806306fdde03146103bc578063081812fc146103de578063081c8c4414610416578063095ea7b31461042b5780631798d58b1461044d57600080fd5b36610382577f6ef95f06320e7a25a04a175ca677b7052bdd97131872c2192525a629f51be77033604080516001600160a01b0390921682523460208301520160405180910390a1005b600080fd5b34801561039357600080fd5b506103a76103a2366004612b8b565b610a2e565b60405190151581526020015b60405180910390f35b3480156103c857600080fd5b506103d1610a80565b6040516103b39190612c00565b3480156103ea57600080fd5b506103fe6103f9366004612c13565b610b12565b6040516001600160a01b0390911681526020016103b3565b34801561042257600080fd5b506103d1610b39565b34801561043757600080fd5b5061044b610446366004612c41565b610bc7565b005b34801561045957600080fd5b506016546103a7906301000000900460ff1681565b34801561047a57600080fd5b50610483610ce2565b6040519081526020016103b3565b34801561049d57600080fd5b5061044b6104ac366004612c6d565b610cf2565b3480156104bd57600080fd5b5061044b6104cc366004612c8a565b610dd6565b3480156104dd57600080fd5b5061044b610e07565b3480156104f257600080fd5b506016546103a79062010000900460ff1681565b34801561051257600080fd5b50600854610483565b34801561052757600080fd5b50610483610536366004612ccb565b6001600160a01b039182166000908152600e6020908152604080832093909416825291909152205490565b34801561056d57600080fd5b5061044b61057c366004612c8a565b610e30565b34801561058d57600080fd5b5061044b61059c366004612ccb565b610e4b565b3480156105ad57600080fd5b5061048360105481565b3480156105c357600080fd5b506016546103a790610100900460ff1681565b3480156105e257600080fd5b5061044b6105f1366004612d90565b610f59565b34801561060257600080fd5b506016546103a79060ff1681565b34801561061c57600080fd5b506103fe61062b366004612c13565b610f78565b34801561063c57600080fd5b5061044b61064b366004612c13565b610fd8565b34801561065c57600080fd5b506103d1610fe5565b34801561067157600080fd5b50610483610680366004612c6d565b610ff2565b34801561069157600080fd5b5061044b611078565b3480156106a657600080fd5b5061044b61108c565b3480156106bb57600080fd5b506104836106ca366004612c6d565b60196020526000908152604090205481565b3480156106e857600080fd5b5061044b6106f7366004612c13565b6110b3565b34801561070857600080fd5b506103fe610717366004612c13565b6110c0565b34801561072857600080fd5b50610483610737366004612c6d565b601a6020526000908152604090205481565b34801561075557600080fd5b506006546001600160a01b03166103fe565b34801561077357600080fd5b506103d16110f0565b34801561078857600080fd5b50610483610797366004612c6d565b6001600160a01b03166000908152600b602052604090205490565b3480156107be57600080fd5b5061044b6107cd366004612de7565b6110ff565b3480156107de57600080fd5b506104836107ed366004612c6d565b61110a565b3480156107fe57600080fd5b506016546103a790640100000000900460ff1681565b34801561082057600080fd5b5061044b611152565b61044b610837366004612c13565b61116b565b34801561084857600080fd5b5061044b610857366004612e15565b61131c565b61044b61086a366004612e95565b611354565b34801561087b57600080fd5b5061048361088a366004612ccb565b611636565b34801561089b57600080fd5b5061044b611710565b3480156108b057600080fd5b506103d161172c565b3480156108c557600080fd5b506103d16108d4366004612c13565b611739565b3480156108e557600080fd5b506104836108f4366004612c6d565b6001600160a01b03166000908152600a602052604090205490565b34801561091b57600080fd5b5061048360125481565b34801561093157600080fd5b50610483610940366004612c6d565b6001600160a01b03166000908152600d602052604090205490565b34801561096757600080fd5b5061044b610976366004612d90565b6118b7565b61044b610989366004612e95565b6118d2565b34801561099a57600080fd5b5061044b611b92565b3480156109af57600080fd5b50600954610483565b3480156109c457600080fd5b506103a76109d3366004612ccb565b611bbd565b3480156109e457600080fd5b50610483600f5481565b3480156109fa57600080fd5b5061044b610a09366004612d90565b611c89565b348015610a1a57600080fd5b5061044b610a29366004612c6d565b611ca4565b60006001600160e01b031982166380ac58cd60e01b1480610a5f57506001600160e01b03198216635b5e139f60e01b145b80610a7a57506301ffc9a760e01b6001600160e01b03198316145b92915050565b606060008054610a8f90612f21565b80601f0160208091040260200160405190810160405280929190818152602001828054610abb90612f21565b8015610b085780601f10610add57610100808354040283529160200191610b08565b820191906000526020600020905b815481529060010190602001808311610aeb57829003601f168201915b5050505050905090565b6000610b1d82611d1d565b506000908152600460205260409020546001600160a01b031690565b60148054610b4690612f21565b80601f0160208091040260200160405190810160405280929190818152602001828054610b7290612f21565b8015610bbf5780601f10610b9457610100808354040283529160200191610bbf565b820191906000526020600020905b815481529060010190602001808311610ba257829003601f168201915b505050505081565b6000610bd282610f78565b9050806001600160a01b0316836001600160a01b03161415610c455760405162461bcd60e51b815260206004820152602160248201527f4552433732313a20617070726f76616c20746f2063757272656e74206f776e656044820152603960f91b60648201526084015b60405180910390fd5b336001600160a01b0382161480610c615750610c618133611bbd565b610cd35760405162461bcd60e51b815260206004820152603d60248201527f4552433732313a20617070726f76652063616c6c6572206973206e6f7420746f60448201527f6b656e206f776e6572206f7220617070726f76656420666f7220616c6c0000006064820152608401610c3c565b610cdd8383611d7c565b505050565b6000610ced601e5490565b905090565b6001600160a01b0381166000908152600a6020526040902054610d275760405162461bcd60e51b8152600401610c3c90612f5c565b6000610d328261110a565b905080610d515760405162461bcd60e51b8152600401610c3c90612fa2565b8060096000828254610d639190613003565b90915550506001600160a01b0382166000908152600b60205260409020805482019055610d908282611dea565b604080516001600160a01b0384168152602081018390527fdf20fd1e76bc69d672e4814fafb2c449bba3a5369d8359adf9e05e6fde87b056910160405180910390a15050565b610de03382611f03565b610dfc5760405162461bcd60e51b8152600401610c3c9061301b565b610cdd838383611f61565b610e0f6120c5565b6016805463ff00000019811663010000009182900460ff1615909102179055565b610cdd8383836040518060200160405280600081525061131c565b6001600160a01b0381166000908152600a6020526040902054610e805760405162461bcd60e51b8152600401610c3c90612f5c565b6000610e8c8383611636565b905080610eab5760405162461bcd60e51b8152600401610c3c90612fa2565b6001600160a01b0383166000908152600d602052604081208054839290610ed3908490613003565b90915550506001600160a01b038084166000908152600e60209081526040808320938616835292905220805482019055610f0e83838361211f565b604080516001600160a01b038481168252602082018490528516917f3be5b7a71e84ed12875d241991c70855ac5817d847039e17a9d895c1ceb0f18a910160405180910390a2505050565b610f616120c5565b8051610f74906013906020840190612adc565b5050565b6000818152600260205260408120546001600160a01b031680610a7a5760405162461bcd60e51b8152602060048201526018602482015277115490cdcc8c4e881a5b9d985b1a59081d1bdad95b88125160421b6044820152606401610c3c565b610fe06120c5565b601055565b60138054610b4690612f21565b60006001600160a01b03821661105c5760405162461bcd60e51b815260206004820152602960248201527f4552433732313a2061646472657373207a65726f206973206e6f7420612076616044820152683634b21037bbb732b960b91b6064820152608401610c3c565b506001600160a01b031660009081526003602052604090205490565b6110806120c5565b61108a6000612171565b565b6110946120c5565b6016805462ff0000198116620100009182900460ff1615909102179055565b6110bb6120c5565b600f55565b6000600c82815481106110d5576110d5613068565b6000918252602090912001546001600160a01b031692915050565b606060018054610a8f90612f21565b610f743383836121c3565b60008061111660095490565b6111209047613003565b905061114b8382611146866001600160a01b03166000908152600b602052604090205490565b612292565b9392505050565b61115a6120c5565b6016805461ff001916610100179055565b33321461118a5760405162461bcd60e51b8152600401610c3c9061307e565b601654640100000000900460ff166111e45760405162461bcd60e51b815260206004820181905260248201527f4372797374616c46726f67733a205075626c6963204d696e74206973204f46466044820152606401610c3c565b60165460ff16156112075760405162461bcd60e51b8152600401610c3c906130aa565b600081116112575760405162461bcd60e51b815260206004820152601960248201527f4372797374616c46726f67733a207a65726f20616d6f756e74000000000000006044820152606401610c3c565b6000611262601e5490565b6012549091506112728383613003565b11156112ca5760405162461bcd60e51b815260206004820152602160248201527f4372797374616c46726f67733a204d617820737570706c7920657863656564656044820152601960fa1b6064820152608401610c3c565b3482601b546112d991906130df565b11156112f75760405162461bcd60e51b8152600401610c3c906130fe565b60005b82811015610cdd5761130a6122d0565b8061131481613142565b9150506112fa565b6113263383611f03565b6113425760405162461bcd60e51b8152600401610c3c9061301b565b61134e84848484612308565b50505050565b81816113cc828280806020026020016040519081016040528093929190818152602001838360200280828437600092019190915250506010546040516bffffffffffffffffffffffff193360601b16602082015290925060340190505b6040516020818303038152906040528051906020012061233b565b15156001146113ed5760405162461bcd60e51b8152600401610c3c9061307e565b33321461140c5760405162461bcd60e51b8152600401610c3c9061307e565b336001600160a01b038716146114605760405162461bcd60e51b815260206004820152601960248201527810dc9e5cdd185b119c9bd9dcce88139bdd08185b1b1bddd959603a1b6044820152606401610c3c565b60165462010000900460ff166114b85760405162461bcd60e51b815260206004820152601e60248201527f4372797374616c46726f67733a2046726565204d696e74206973204f464600006044820152606401610c3c565b60165460ff16156114db5760405162461bcd60e51b8152600401610c3c906130aa565b6017548511156114fd5760405162461bcd60e51b8152600401610c3c9061315d565b6017543360009081526019602052604090205461151b908790613003565b111561157c5760405162461bcd60e51b815260206004820152602a60248201527f4372797374616c46726f67733a204f6e6c7920352046726565204d696e7473206044820152691c195c881dd85b1b195d60b21b6064820152608401610c3c565b6000611587601e5490565b6012549091506115978783613003565b11156115b55760405162461bcd60e51b8152600401610c3c906131aa565b3486601c546115c491906130df565b11156115e25760405162461bcd60e51b8152600401610c3c906130fe565b3360009081526019602052604081208054889290611601908490613003565b90915550600090505b8681101561162c5761161a6122d0565b8061162481613142565b91505061160a565b5050505050505050565b6001600160a01b0382166000908152600d602052604081205481906040516370a0823160e01b81523060048201526001600160a01b038616906370a082319060240160206040518083038186803b15801561169057600080fd5b505afa1580156116a4573d6000803e3d6000fd5b505050506040513d601f19601f820116820180604052508101906116c891906131eb565b6116d29190613003565b6001600160a01b038086166000908152600e60209081526040808320938816835292905220549091506117089084908390612292565b949350505050565b6117186120c5565b6016805460ff19811660ff90911615179055565b60158054610b4690612f21565b6000818152600260205260409020546060906001600160a01b03166117b85760405162461bcd60e51b815260206004820152602f60248201527f4552433732314d657461646174613a2055524920717565727920666f72206e6f60448201526e3732bc34b9ba32b73a103a37b5b2b760891b6064820152608401610c3c565b601654610100900460ff1661185957601480546117d490612f21565b80601f016020809104026020016040519081016040528092919081815260200182805461180090612f21565b801561184d5780601f106118225761010080835404028352916020019161184d565b820191906000526020600020905b81548152906001019060200180831161183057829003601f168201915b50505050509050919050565b6000611863612351565b90506000815111611883576040518060200160405280600081525061114b565b8061188d84612360565b60156040516020016118a193929190613204565b6040516020818303038152906040529392505050565b6118bf6120c5565b8051610f74906015906020840190612adc565b818161193382828080602002602001604051908101604052809392919081815260200183836020028082843760009201919091525050600f546040516bffffffffffffffffffffffff193360601b16602082015290925060340190506113b1565b15156001146119545760405162461bcd60e51b8152600401610c3c9061307e565b3332146119735760405162461bcd60e51b8152600401610c3c9061307e565b336001600160a01b038716146119c75760405162461bcd60e51b815260206004820152601960248201527810dc9e5cdd185b119c9bd9dcce88139bdd08185b1b1bddd959603a1b6044820152606401610c3c565b6016546301000000900460ff16611a205760405162461bcd60e51b815260206004820152601c60248201527f4372797374616c46726f67733a20574c204d696e74206973204f4646000000006044820152606401610c3c565b60165460ff1615611a435760405162461bcd60e51b8152600401610c3c906130aa565b601854851115611a655760405162461bcd60e51b8152600401610c3c9061315d565b601854336000908152601a6020526040902054611a83908790613003565b1115611ae25760405162461bcd60e51b815260206004820152602860248201527f4372797374616c46726f67733a204f6e6c79203320574c204d696e74732070656044820152671c881dd85b1b195d60c21b6064820152608401610c3c565b6000611aed601e5490565b601254909150611afd8783613003565b1115611b1b5760405162461bcd60e51b8152600401610c3c906131aa565b3486601d54611b2a91906130df565b1115611b485760405162461bcd60e51b8152600401610c3c906130fe565b336000908152601a602052604081208054889290611b67908490613003565b90915550600090505b8681101561162c57611b806122d0565b80611b8a81613142565b915050611b70565b611b9a6120c5565b6016805464ff000000001981166401000000009182900460ff1615909102179055565b60115460405163c455279160e01b81526001600160a01b03848116600483015260009281169190841690829063c45527919060240160206040518083038186803b158015611c0a57600080fd5b505afa158015611c1e573d6000803e3d6000fd5b505050506040513d601f19601f82011682018060405250810190611c4291906132c8565b6001600160a01b03161415611c5b576001915050610a7a565b6001600160a01b0380851660009081526005602090815260408083209387168352929052205460ff16611708565b611c916120c5565b8051610f74906014906020840190612adc565b611cac6120c5565b6001600160a01b038116611d115760405162461bcd60e51b815260206004820152602660248201527f4f776e61626c653a206e6577206f776e657220697320746865207a65726f206160448201526564647265737360d01b6064820152608401610c3c565b611d1a81612171565b50565b6000818152600260205260409020546001600160a01b0316611d1a5760405162461bcd60e51b8152602060048201526018602482015277115490cdcc8c4e881a5b9d985b1a59081d1bdad95b88125160421b6044820152606401610c3c565b600081815260046020526040902080546001600160a01b0319166001600160a01b0384169081179091558190611db182610f78565b6001600160a01b03167f8c5be1e5ebec7d5bd14f71427d1e84f3dd0314c0f7b2291e5b200ac8c7c3b92560405160405180910390a45050565b80471015611e3a5760405162461bcd60e51b815260206004820152601d60248201527f416464726573733a20696e73756666696369656e742062616c616e63650000006044820152606401610c3c565b6000826001600160a01b03168260405160006040518083038185875af1925050503d8060008114611e87576040519150601f19603f3d011682016040523d82523d6000602084013e611e8c565b606091505b5050905080610cdd5760405162461bcd60e51b815260206004820152603a60248201527f416464726573733a20756e61626c6520746f2073656e642076616c75652c207260448201527f6563697069656e74206d617920686176652072657665727465640000000000006064820152608401610c3c565b600080611f0f83610f78565b9050806001600160a01b0316846001600160a01b03161480611f365750611f368185611bbd565b806117085750836001600160a01b0316611f4f84610b12565b6001600160a01b031614949350505050565b826001600160a01b0316611f7482610f78565b6001600160a01b031614611f9a5760405162461bcd60e51b8152600401610c3c906132e5565b6001600160a01b038216611ffc5760405162461bcd60e51b8152602060048201526024808201527f4552433732313a207472616e7366657220746f20746865207a65726f206164646044820152637265737360e01b6064820152608401610c3c565b826001600160a01b031661200f82610f78565b6001600160a01b0316146120355760405162461bcd60e51b8152600401610c3c906132e5565b600081815260046020908152604080832080546001600160a01b03199081169091556001600160a01b0387811680865260038552838620805460001901905590871680865283862080546001019055868652600290945282852080549092168417909155905184937fddf252ad1be2c89b69c2b068fc378daa952ba7f163c4a11628f55a4df523b3ef91a4505050565b6006546001600160a01b0316331461108a5760405162461bcd60e51b815260206004820181905260248201527f4f776e61626c653a2063616c6c6572206973206e6f7420746865206f776e65726044820152606401610c3c565b604080516001600160a01b038416602482015260448082018490528251808303909101815260649091019091526020810180516001600160e01b031663a9059cbb60e01b179052610cdd9084906123fd565b600680546001600160a01b038381166001600160a01b0319831681179093556040519116919082907f8be0079c531659141344cd1fd0a4f28419497f9722a3daafe3b4186f6b6457e090600090a35050565b816001600160a01b0316836001600160a01b031614156122255760405162461bcd60e51b815260206004820152601960248201527f4552433732313a20617070726f766520746f2063616c6c6572000000000000006044820152606401610c3c565b6001600160a01b03838116600081815260056020908152604080832094871680845294825291829020805460ff191686151590811790915591519182527f17307eab39ab6107e8899845ad3d59bd9653f200f220920489ca2b5937696c31910160405180910390a3505050565b6008546001600160a01b0384166000908152600a6020526040812054909183916122bc90866130df565b6122c6919061332a565b611708919061334c565b6122d86124cf565b6122e6601e80546001019055565b60006122f1601e5490565b90506122fd3382612529565b5061108a6001600755565b612313848484611f61565b61231f84848484612543565b61134e5760405162461bcd60e51b8152600401610c3c90613363565b6000826123488584612650565b14949350505050565b606060138054610a8f90612f21565b6060600061236d83612695565b600101905060008167ffffffffffffffff81111561238d5761238d612d04565b6040519080825280601f01601f1916602001820160405280156123b7576020820181803683370190505b5090508181016020015b600019016f181899199a1a9b1b9c1cb0b131b232b360811b600a86061a8153600a85049450846123f0576123f5565b6123c1565b509392505050565b6000612452826040518060400160405280602081526020017f5361666545524332303a206c6f772d6c6576656c2063616c6c206661696c6564815250856001600160a01b031661276d9092919063ffffffff16565b805190915015610cdd578080602001905181019061247091906133b5565b610cdd5760405162461bcd60e51b815260206004820152602a60248201527f5361666545524332303a204552433230206f7065726174696f6e20646964206e6044820152691bdd081cdd58d8d9595960b21b6064820152608401610c3c565b600260075414156125225760405162461bcd60e51b815260206004820152601f60248201527f5265656e7472616e637947756172643a207265656e7472616e742063616c6c006044820152606401610c3c565b6002600755565b610f7482826040518060200160405280600081525061277c565b60006001600160a01b0384163b1561264557604051630a85bd0160e11b81526001600160a01b0385169063150b7a02906125879033908990889088906004016133d2565b602060405180830381600087803b1580156125a157600080fd5b505af19250505080156125d1575060408051601f3d908101601f191682019092526125ce9181019061340f565b60015b61262b573d8080156125ff576040519150601f19603f3d011682016040523d82523d6000602084013e612604565b606091505b5080516126235760405162461bcd60e51b8152600401610c3c90613363565b805181602001fd5b6001600160e01b031916630a85bd0160e11b149050611708565b506001949350505050565b600081815b84518110156123f5576126818286838151811061267457612674613068565b60200260200101516127af565b91508061268d81613142565b915050612655565b60008072184f03e93ff9f4daa797ed6e38ed64bf6a1f0160401b83106126d45772184f03e93ff9f4daa797ed6e38ed64bf6a1f0160401b830492506040015b6d04ee2d6d415b85acef81000000008310612700576d04ee2d6d415b85acef8100000000830492506020015b662386f26fc10000831061271e57662386f26fc10000830492506010015b6305f5e1008310612736576305f5e100830492506008015b612710831061274a57612710830492506004015b6064831061275c576064830492506002015b600a8310610a7a5760010192915050565b606061170884846000856127db565b61278683836128b6565b6127936000848484612543565b610cdd5760405162461bcd60e51b8152600401610c3c90613363565b60008183106127cb57600082815260208490526040902061114b565b5060009182526020526040902090565b60608247101561283c5760405162461bcd60e51b815260206004820152602660248201527f416464726573733a20696e73756666696369656e742062616c616e636520666f6044820152651c8818d85b1b60d21b6064820152608401610c3c565b600080866001600160a01b03168587604051612858919061342c565b60006040518083038185875af1925050503d8060008114612895576040519150601f19603f3d011682016040523d82523d6000602084013e61289a565b606091505b50915091506128ab87838387612a41565b979650505050505050565b6001600160a01b03821661290c5760405162461bcd60e51b815260206004820181905260248201527f4552433732313a206d696e7420746f20746865207a65726f20616464726573736044820152606401610c3c565b6000818152600260205260409020546001600160a01b0316156129715760405162461bcd60e51b815260206004820152601c60248201527f4552433732313a20746f6b656e20616c7265616479206d696e746564000000006044820152606401610c3c565b6000818152600260205260409020546001600160a01b0316156129d65760405162461bcd60e51b815260206004820152601c60248201527f4552433732313a20746f6b656e20616c7265616479206d696e746564000000006044820152606401610c3c565b6001600160a01b038216600081815260036020908152604080832080546001019055848352600290915280822080546001600160a01b0319168417905551839291907fddf252ad1be2c89b69c2b068fc378daa952ba7f163c4a11628f55a4df523b3ef908290a45050565b60608315612aad578251612aa6576001600160a01b0385163b612aa65760405162461bcd60e51b815260206004820152601d60248201527f416464726573733a2063616c6c20746f206e6f6e2d636f6e74726163740000006044820152606401610c3c565b5081611708565b6117088383815115612ac25781518083602001fd5b8060405162461bcd60e51b8152600401610c3c9190612c00565b828054612ae890612f21565b90600052602060002090601f016020900481019282612b0a5760008555612b50565b82601f10612b2357805160ff1916838001178555612b50565b82800160010185558215612b50579182015b82811115612b50578251825591602001919060010190612b35565b50612b5c929150612b60565b5090565b5b80821115612b5c5760008155600101612b61565b6001600160e01b031981168114611d1a57600080fd5b600060208284031215612b9d57600080fd5b813561114b81612b75565b60005b83811015612bc3578181015183820152602001612bab565b8381111561134e5750506000910152565b60008151808452612bec816020860160208601612ba8565b601f01601f19169290920160200192915050565b60208152600061114b6020830184612bd4565b600060208284031215612c2557600080fd5b5035919050565b6001600160a01b0381168114611d1a57600080fd5b60008060408385031215612c5457600080fd5b8235612c5f81612c2c565b946020939093013593505050565b600060208284031215612c7f57600080fd5b813561114b81612c2c565b600080600060608486031215612c9f57600080fd5b8335612caa81612c2c565b92506020840135612cba81612c2c565b929592945050506040919091013590565b60008060408385031215612cde57600080fd5b8235612ce981612c2c565b91506020830135612cf981612c2c565b809150509250929050565b634e487b7160e01b600052604160045260246000fd5b600067ffffffffffffffff80841115612d3557612d35612d04565b604051601f8501601f19908116603f01168101908282118183101715612d5d57612d5d612d04565b81604052809350858152868686011115612d7657600080fd5b858560208301376000602087830101525050509392505050565b600060208284031215612da257600080fd5b813567ffffffffffffffff811115612db957600080fd5b8201601f81018413612dca57600080fd5b61170884823560208401612d1a565b8015158114611d1a57600080fd5b60008060408385031215612dfa57600080fd5b8235612e0581612c2c565b91506020830135612cf981612dd9565b60008060008060808587031215612e2b57600080fd5b8435612e3681612c2c565b93506020850135612e4681612c2c565b925060408501359150606085013567ffffffffffffffff811115612e6957600080fd5b8501601f81018713612e7a57600080fd5b612e8987823560208401612d1a565b91505092959194509250565b60008060008060608587031215612eab57600080fd5b8435612eb681612c2c565b935060208501359250604085013567ffffffffffffffff80821115612eda57600080fd5b818701915087601f830112612eee57600080fd5b813581811115612efd57600080fd5b8860208260051b8501011115612f1257600080fd5b95989497505060200194505050565b600181811c90821680612f3557607f821691505b60208210811415612f5657634e487b7160e01b600052602260045260246000fd5b50919050565b60208082526026908201527f5061796d656e7453706c69747465723a206163636f756e7420686173206e6f2060408201526573686172657360d01b606082015260800190565b6020808252602b908201527f5061796d656e7453706c69747465723a206163636f756e74206973206e6f742060408201526a191d59481c185e5b595b9d60aa1b606082015260800190565b634e487b7160e01b600052601160045260246000fd5b6000821982111561301657613016612fed565b500190565b6020808252602d908201527f4552433732313a2063616c6c6572206973206e6f7420746f6b656e206f776e6560408201526c1c881bdc88185c1c1c9bdd9959609a1b606082015260800190565b634e487b7160e01b600052603260045260246000fd5b6020808252601290820152712737ba1030b63637bbb2b21037b934b3b4b760711b604082015260600190565b6020808252818101527f4372797374616c46726f67733a20436f6e747261637420697320706175736564604082015260600190565b60008160001904831182151516156130f9576130f9612fed565b500290565b60208082526024908201527f4372797374616c46726f67733a204e6f7420656e6f75676820657468657273206040820152631cd95b9d60e21b606082015260800190565b600060001982141561315657613156612fed565b5060010190565b6020808252602d908201527f4372797374616c46726f67733a20596f752063616e206e6f74206d696e74207360408201526c6f206d75636820746f6b656e7360981b606082015260800190565b60208082526021908201527f4372797374616c46726f67733a206d617820737570706c7920657863656564656040820152601960fa1b606082015260800190565b6000602082840312156131fd57600080fd5b5051919050565b6000845160206132178285838a01612ba8565b85519184019161322a8184848a01612ba8565b8554920191600090600181811c908083168061324757607f831692505b85831081141561326557634e487b7160e01b85526022600452602485fd5b808015613279576001811461328a576132b7565b60ff198516885283880195506132b7565b60008b81526020902060005b858110156132af5781548a820152908401908801613296565b505083880195505b50939b9a5050505050505050505050565b6000602082840312156132da57600080fd5b815161114b81612c2c565b60208082526025908201527f4552433732313a207472616e736665722066726f6d20696e636f72726563742060408201526437bbb732b960d91b606082015260800190565b60008261334757634e487b7160e01b600052601260045260246000fd5b500490565b60008282101561335e5761335e612fed565b500390565b60208082526032908201527f4552433732313a207472616e7366657220746f206e6f6e20455243373231526560408201527131b2b4bb32b91034b6b83632b6b2b73a32b960711b606082015260800190565b6000602082840312156133c757600080fd5b815161114b81612dd9565b6001600160a01b038581168252841660208201526040810183905260806060820181905260009061340590830184612bd4565b9695505050505050565b60006020828403121561342157600080fd5b815161114b81612b75565b6000825161343e818460208701612ba8565b919091019291505056fea2646970667358221220165ad87ca3efaa11b87fc36f646e954c1f42aee9bbf2572d98803162f4cf9aca64736f6c63430008090033697066733a2f2f516d533342544d79567342554252546557354e74334a514e414431687447517373316a68376131446b6f554c774e2f68696464656e2e6a736f6e",
  "linkReferences": {},
  "deployedLinkReferences": {}
}