{
  "_format": "hh-sol-artifact-1",
  "contractName": "BlockchainHomies",
  "sourceName": "contracts/BlockchainHomies.sol",
  "abi": [
    {
      "inputs": [
        {
          "internalType": "string",
          "name": "uri",
          "type": "string"
        },
        {
          "internalType": "address",
          "name": "_proxyRegistryAddress",
          "type": "address"
        }
      ],
      "stateMutability": "nonpayable",
      "type": "constructor"
    },
    {
      "anonymous": false,
      "inputs": [
        {
          "indexed": true,
          "internalType": "address",
          "name": "owner",
          "type": "address"
        },
        {
          "indexed": true,
          "internalType": "address",
          "name": "approved",
          "type": "address"
        },
        {
          "indexed": true,
          "internalType": "uint256",
          "name": "tokenId",
          "type": "uint256"
        }
      ],
      "name": "Approval",
      "type": "event"
    },
    {
      "anonymous": false,
      "inputs": [
        {
          "indexed": true,
          "internalType": "address",
          "name": "owner",
          "type": "address"
        },
        {
          "indexed": true,
          "internalType": "address",
          "name": "operator",
          "type": "address"
        },
        {
          "indexed": false,
          "internalType": "bool",
          "name": "approved",
          "type": "bool"
        }
      ],
      "name": "ApprovalForAll",
      "type": "event"
    },
    {
      "anonymous": false,
      "inputs": [
        {
          "indexed": true,
          "internalType": "contract IERC20",
          "name": "token",
          "type": "address"
        },
        {
          "indexed": false,
          "internalType": "address",
          "name": "to",
          "type": "address"
        },
        {
          "indexed": false,
          "internalType": "uint256",
          "name": "amount",
          "type": "uint256"
        }
      ],
      "name": "ERC20PaymentReleased",
      "type": "event"
    },
    {
      "anonymous": false,
      "inputs": [
        {
          "indexed": true,
          "internalType": "address",
          "name": "previousOwner",
          "type": "address"
        },
        {
          "indexed": true,
          "internalType": "address",
          "name": "newOwner",
          "type": "address"
        }
      ],
      "name": "OwnershipTransferred",
      "type": "event"
    },
    {
      "anonymous": false,
      "inputs": [
        {
          "indexed": false,
          "internalType": "address",
          "name": "account",
          "type": "address"
        },
        {
          "indexed": false,
          "internalType": "uint256",
          "name": "shares",
          "type": "uint256"
        }
      ],
      "name": "PayeeAdded",
      "type": "event"
    },
    {
      "anonymous": false,
      "inputs": [
        {
          "indexed": false,
          "internalType": "address",
          "name": "from",
          "type": "address"
        },
        {
          "indexed": false,
          "internalType": "uint256",
          "name": "amount",
          "type": "uint256"
        }
      ],
      "name": "PaymentReceived",
      "type": "event"
    },
    {
      "anonymous": false,
      "inputs": [
        {
          "indexed": false,
          "internalType": "address",
          "name": "to",
          "type": "address"
        },
        {
          "indexed": false,
          "internalType": "uint256",
          "name": "amount",
          "type": "uint256"
        }
      ],
      "name": "PaymentReleased",
      "type": "event"
    },
    {
      "anonymous": false,
      "inputs": [
        {
          "indexed": true,
          "internalType": "address",
          "name": "from",
          "type": "address"
        },
        {
          "indexed": true,
          "internalType": "address",
          "name": "to",
          "type": "address"
        },
        {
          "indexed": true,
          "internalType": "uint256",
          "name": "tokenId",
          "type": "uint256"
        }
      ],
      "name": "Transfer",
      "type": "event"
    },
    {
      "inputs": [
        {
          "internalType": "address",
          "name": "to",
          "type": "address"
        },
        {
          "internalType": "uint256",
          "name": "tokenId",
          "type": "uint256"
        }
      ],
      "name": "approve",
      "outputs": [],
      "stateMutability": "nonpayable",
      "type": "function"
    },
    {
      "inputs": [
        {
          "internalType": "address",
          "name": "owner",
          "type": "address"
        }
      ],
      "name": "balanceOf",
      "outputs": [
        {
          "internalType": "uint256",
          "name": "",
          "type": "uint256"
        }
      ],
      "stateMutability": "view",
      "type": "function"
    },
    {
      "inputs": [],
      "name": "baseURI",
      "outputs": [
        {
          "internalType": "string",
          "name": "",
          "type": "string"
        }
      ],
      "stateMutability": "view",
      "type": "function"
    },
    {
      "inputs": [
        {
          "internalType": "uint256",
          "name": "_amount",
          "type": "uint256"
        }
      ],
      "name": "freeSaleMint",
      "outputs": [],
      "stateMutability": "payable",
      "type": "function"
    },
    {
      "inputs": [],
      "name": "freesaleM",
      "outputs": [
        {
          "internalType": "bool",
          "name": "",
          "type": "bool"
        }
      ],
      "stateMutability": "view",
      "type": "function"
    },
    {
      "inputs": [
        {
          "internalType": "uint256",
          "name": "tokenId",
          "type": "uint256"
        }
      ],
      "name": "getApproved",
      "outputs": [
        {
          "internalType": "address",
          "name": "",
          "type": "address"
        }
      ],
      "stateMutability": "view",
      "type": "function"
    },
    {
      "inputs": [
        {
          "internalType": "address",
          "name": "owner",
          "type": "address"
        },
        {
          "internalType": "address",
          "name": "operator",
          "type": "address"
        }
      ],
      "name": "isApprovedForAll",
      "outputs": [
        {
          "internalType": "bool",
          "name": "",
          "type": "bool"
        }
      ],
      "stateMutability": "view",
      "type": "function"
    },
    {
      "inputs": [],
      "name": "maxSupply",
      "outputs": [
        {
          "internalType": "uint256",
          "name": "",
          "type": "uint256"
        }
      ],
      "stateMutability": "view",
      "type": "function"
    },
    {
      "inputs": [],
      "name": "name",
      "outputs": [
        {
          "internalType": "string",
          "name": "",
          "type": "string"
        }
      ],
      "stateMutability": "view",
      "type": "function"
    },
    {
      "inputs": [],
      "name": "owner",
      "outputs": [
        {
          "internalType": "address",
          "name": "",
          "type": "address"
        }
      ],
      "stateMutability": "view",
      "type": "function"
    },
    {
      "inputs": [
        {
          "internalType": "uint256",
          "name": "tokenId",
          "type": "uint256"
        }
      ],
      "name": "ownerOf",
      "outputs": [
        {
          "internalType": "address",
          "name": "",
          "type": "address"
        }
      ],
      "stateMutability": "view",
      "type": "function"
    },
    {
      "inputs": [],
      "name": "paused",
      "outputs": [
        {
          "internalType": "bool",
          "name": "",
          "type": "bool"
        }
      ],
      "stateMutability": "view",
      "type": "function"
    },
    {
      "inputs": [
        {
          "internalType": "uint256",
          "name": "index",
          "type": "uint256"
        }
      ],
      "name": "payee",
      "outputs": [
        {
          "internalType": "address",
          "name": "",
          "type": "address"
        }
      ],
      "stateMutability": "view",
      "type": "function"
    },
    {
      "inputs": [],
      "name": "publicM",
      "outputs": [
        {
          "internalType": "bool",
          "name": "",
          "type": "bool"
        }
      ],
      "stateMutability": "view",
      "type": "function"
    },
    {
      "inputs": [
        {
          "internalType": "uint256",
          "name": "_amount",
          "type": "uint256"
        }
      ],
      "name": "publicSaleMint",
      "outputs": [],
      "stateMutability": "payable",
      "type": "function"
    },
    {
      "inputs": [
        {
          "internalType": "address payable",
          "name": "account",
          "type": "address"
        }
      ],
      "name": "release",
      "outputs": [],
      "stateMutability": "nonpayable",
      "type": "function"
    },
    {
      "inputs": [
        {
          "internalType": "contract IERC20",
          "name": "token",
          "type": "address"
        },
        {
          "internalType": "address",
          "name": "account",
          "type": "address"
        }
      ],
      "name": "release",
      "outputs": [],
      "stateMutability": "nonpayable",
      "type": "function"
    },
    {
      "inputs": [
        {
          "internalType": "contract IERC20",
          "name": "token",
          "type": "address"
        },
        {
          "internalType": "address",
          "name": "account",
          "type": "address"
        }
      ],
      "name": "released",
      "outputs": [
        {
          "internalType": "uint256",
          "name": "",
          "type": "uint256"
        }
      ],
      "stateMutability": "view",
      "type": "function"
    },
    {
      "inputs": [
        {
          "internalType": "address",
          "name": "account",
          "type": "address"
        }
      ],
      "name": "released",
      "outputs": [
        {
          "internalType": "uint256",
          "name": "",
          "type": "uint256"
        }
      ],
      "stateMutability": "view",
      "type": "function"
    },
    {
      "inputs": [],
      "name": "renounceOwnership",
      "outputs": [],
      "stateMutability": "nonpayable",
      "type": "function"
    },
    {
      "inputs": [],
      "name": "revealed",
      "outputs": [
        {
          "internalType": "bool",
          "name": "",
          "type": "bool"
        }
      ],
      "stateMutability": "view",
      "type": "function"
    },
    {
      "inputs": [
        {
          "internalType": "address",
          "name": "from",
          "type": "address"
        },
        {
          "internalType": "address",
          "name": "to",
          "type": "address"
        },
        {
          "internalType": "uint256",
          "name": "tokenId",
          "type": "uint256"
        }
      ],
      "name": "safeTransferFrom",
      "outputs": [],
      "stateMutability": "nonpayable",
      "type": "function"
    },
    {
      "inputs": [
        {
          "internalType": "address",
          "name": "from",
          "type": "address"
        },
        {
          "internalType": "address",
          "name": "to",
          "type": "address"
        },
        {
          "internalType": "uint256",
          "name": "tokenId",
          "type": "uint256"
        },
        {
          "internalType": "bytes",
          "name": "_data",
          "type": "bytes"
        }
      ],
      "name": "safeTransferFrom",
      "outputs": [],
      "stateMutability": "nonpayable",
      "type": "function"
    },
    {
      "inputs": [
        {
          "internalType": "address",
          "name": "operator",
          "type": "address"
        },
        {
          "internalType": "bool",
          "name": "approved",
          "type": "bool"
        }
      ],
      "name": "setApprovalForAll",
      "outputs": [],
      "stateMutability": "nonpayable",
      "type": "function"
    },
    {
      "inputs": [
        {
          "internalType": "string",
          "name": "_tokenBaseURI",
          "type": "string"
        }
      ],
      "name": "setBaseURI",
      "outputs": [],
      "stateMutability": "nonpayable",
      "type": "function"
    },
    {
      "inputs": [
        {
          "internalType": "address",
          "name": "account",
          "type": "address"
        }
      ],
      "name": "shares",
      "outputs": [
        {
          "internalType": "uint256",
          "name": "",
          "type": "uint256"
        }
      ],
      "stateMutability": "view",
      "type": "function"
    },
    {
      "inputs": [
        {
          "internalType": "bytes4",
          "name": "interfaceId",
          "type": "bytes4"
        }
      ],
      "name": "supportsInterface",
      "outputs": [
        {
          "internalType": "bool",
          "name": "",
          "type": "bool"
        }
      ],
      "stateMutability": "view",
      "type": "function"
    },
    {
      "inputs": [],
      "name": "symbol",
      "outputs": [
        {
          "internalType": "string",
          "name": "",
          "type": "string"
        }
      ],
      "stateMutability": "view",
      "type": "function"
    },
    {
      "inputs": [],
      "name": "toggleFreeSale",
      "outputs": [],
      "stateMutability": "nonpayable",
      "type": "function"
    },
    {
      "inputs": [],
      "name": "togglePause",
      "outputs": [],
      "stateMutability": "nonpayable",
      "type": "function"
    },
    {
      "inputs": [],
      "name": "togglePublicSale",
      "outputs": [],
      "stateMutability": "nonpayable",
      "type": "function"
    },
    {
      "inputs": [
        {
          "internalType": "uint256",
          "name": "tokenId",
          "type": "uint256"
        }
      ],
      "name": "tokenURI",
      "outputs": [
        {
          "internalType": "string",
          "name": "",
          "type": "string"
        }
      ],
      "stateMutability": "view",
      "type": "function"
    },
    {
      "inputs": [
        {
          "internalType": "contract IERC20",
          "name": "token",
          "type": "address"
        }
      ],
      "name": "totalReleased",
      "outputs": [
        {
          "internalType": "uint256",
          "name": "",
          "type": "uint256"
        }
      ],
      "stateMutability": "view",
      "type": "function"
    },
    {
      "inputs": [],
      "name": "totalReleased",
      "outputs": [
        {
          "internalType": "uint256",
          "name": "",
          "type": "uint256"
        }
      ],
      "stateMutability": "view",
      "type": "function"
    },
    {
      "inputs": [],
      "name": "totalShares",
      "outputs": [
        {
          "internalType": "uint256",
          "name": "",
          "type": "uint256"
        }
      ],
      "stateMutability": "view",
      "type": "function"
    },
    {
      "inputs": [],
      "name": "totalSupply",
      "outputs": [
        {
          "internalType": "uint256",
          "name": "",
          "type": "uint256"
        }
      ],
      "stateMutability": "view",
      "type": "function"
    },
    {
      "inputs": [
        {
          "internalType": "address",
          "name": "from",
          "type": "address"
        },
        {
          "internalType": "address",
          "name": "to",
          "type": "address"
        },
        {
          "internalType": "uint256",
          "name": "tokenId",
          "type": "uint256"
        }
      ],
      "name": "transferFrom",
      "outputs": [],
      "stateMutability": "nonpayable",
      "type": "function"
    },
    {
      "inputs": [
        {
          "internalType": "address",
          "name": "newOwner",
          "type": "address"
        }
      ],
      "name": "transferOwnership",
      "outputs": [],
      "stateMutability": "nonpayable",
      "type": "function"
    },
    {
      "stateMutability": "payable",
      "type": "receive"
    }
  ],
  "bytecode": "0x6108ae6010556012805463ffffffff19166301000100179055600360135566470de4df820000601455600060155560c06040526032608081815260a0919091526200004f90601790600262000627565b50604080518082019091527332536039434ed2a3db192acb7706578c497a29b5815273795f8fcf04726557f126799545fc4b0d1c49b05860208201526200009b9060189060026200067c565b50348015620000a957600080fd5b50604051620033f9380380620033f9833981016040819052620000cc916200079b565b60188054806020026020016040519081016040528092919081815260200182805480156200012457602002820191906000526020600020905b81546001600160a01b0316815260019091019060200180831162000105575b505050505060178054806020026020016040519081016040528092919081815260200182805480156200017757602002820191906000526020600020905b81548152602001906001019080831162000162575b5050604080518082018252601081526f426c6f636b636861696e486f6d69657360801b602080830191825283518085019094526006845265484f4d49455360d01b908401528151919550919350620001d4925060009190620006d4565b508051620001ea906001906020840190620006d4565b50505062000207620002016200036e60201b60201c565b62000372565b600160075580518251146200027e5760405162461bcd60e51b815260206004820152603260248201527f5061796d656e7453706c69747465723a2070617965657320616e6420736861726044820152710cae640d8cadccee8d040dad2e6dac2e8c6d60731b60648201526084015b60405180910390fd5b6000825111620002d15760405162461bcd60e51b815260206004820152601a60248201527f5061796d656e7453706c69747465723a206e6f20706179656573000000000000604482015260640162000275565b60005b82518110156200033d5762000328838281518110620002f757620002f76200088c565b60200260200101518383815181106200031457620003146200088c565b6020026020010151620003c460201b60201c565b806200033481620008b8565b915050620002d4565b5050600f80546001600160a01b0319166001600160a01b038416179055506200036682620005b2565b50506200092e565b3390565b600680546001600160a01b038381166001600160a01b0319831681179093556040519116919082907f8be0079c531659141344cd1fd0a4f28419497f9722a3daafe3b4186f6b6457e090600090a35050565b6001600160a01b038216620004315760405162461bcd60e51b815260206004820152602c60248201527f5061796d656e7453706c69747465723a206163636f756e74206973207468652060448201526b7a65726f206164647265737360a01b606482015260840162000275565b60008111620004835760405162461bcd60e51b815260206004820152601d60248201527f5061796d656e7453706c69747465723a20736861726573206172652030000000604482015260640162000275565b6001600160a01b0382166000908152600a602052604090205415620004ff5760405162461bcd60e51b815260206004820152602b60248201527f5061796d656e7453706c69747465723a206163636f756e7420616c726561647960448201526a206861732073686172657360a81b606482015260840162000275565b600c8054600181019091557fdf6966c971051c3d54ec59162606531493a51404a002842f56009d7e5cf4a8c70180546001600160a01b0319166001600160a01b0384169081179091556000908152600a6020526040902081905560085462000569908290620008d6565b600855604080516001600160a01b0384168152602081018390527f40c340f65e17194d14ddddb073d3c9f888e3cb52b5aae0c6c7706b4fbc905fac910160405180910390a15050565b6006546001600160a01b031633146200060e5760405162461bcd60e51b815260206004820181905260248201527f4f776e61626c653a2063616c6c6572206973206e6f7420746865206f776e6572604482015260640162000275565b805162000623906011906020840190620006d4565b5050565b8280548282559060005260206000209081019282156200066a579160200282015b828111156200066a578251829060ff1690559160200191906001019062000648565b506200067892915062000751565b5090565b8280548282559060005260206000209081019282156200066a579160200282015b828111156200066a57825182546001600160a01b0319166001600160a01b039091161782556020909201916001909101906200069d565b828054620006e290620008f1565b90600052602060002090601f0160209004810192826200070657600085556200066a565b82601f106200072157805160ff19168380011785556200066a565b828001600101855582156200066a579182015b828111156200066a57825182559160200191906001019062000734565b5b8082111562000678576000815560010162000752565b634e487b7160e01b600052604160045260246000fd5b80516001600160a01b03811681146200079657600080fd5b919050565b60008060408385031215620007af57600080fd5b82516001600160401b0380821115620007c757600080fd5b818501915085601f830112620007dc57600080fd5b815181811115620007f157620007f162000768565b604051601f8201601f19908116603f011681019083821181831017156200081c576200081c62000768565b816040528281526020935088848487010111156200083957600080fd5b600091505b828210156200085d57848201840151818301850152908301906200083e565b828211156200086f5760008484830101525b9550620008819150508582016200077e565b925050509250929050565b634e487b7160e01b600052603260045260246000fd5b634e487b7160e01b600052601160045260246000fd5b6000600019821415620008cf57620008cf620008a2565b5060010190565b60008219821115620008ec57620008ec620008a2565b500190565b600181811c908216806200090657607f821691505b602082108114156200092857634e487b7160e01b600052602260045260246000fd5b50919050565b612abb806200093e6000396000f3fe6080604052600436106102295760003560e01c8063715018a611610123578063b88d4fde116100ab578063d79779b21161006f578063d79779b2146106af578063e222c7f9146106e5578063e33b7de3146106fa578063e985e9c51461070f578063f2fde38b1461072f57600080fd5b8063b88d4fde1461060e578063c4ae31681461062e578063c87b56dd14610643578063ce7c2ac214610663578063d5abeb011461069957600080fd5b806395d89b41116100f257806395d89b411461056f5780639852595c14610584578063a22cb465146105ba578063a45063c0146105da578063b3ab66b0146105fb57600080fd5b8063715018a61461050757806377a38c1a1461051c5780638b83209b146105315780638da5cb5b1461055157600080fd5b80633a98ef39116101b157806355f804b31161017557806355f804b3146104785780635c975abb146104985780636352211e146104b25780636c0360eb146104d257806370a08231146104e757600080fd5b80633a98ef39146103be578063406072a9146103d357806342842e0e1461041957806348b7504414610439578063518302271461045957600080fd5b806318160ddd116101f857806318160ddd14610328578063191655871461034b57806323b872dd1461036b578063257ea0691461038b57806334d53b151461039e57600080fd5b806301ffc9a71461027757806306fdde03146102ac578063081812fc146102ce578063095ea7b31461030657600080fd5b36610272577f6ef95f06320e7a25a04a175ca677b7052bdd97131872c2192525a629f51be77033604080516001600160a01b0390921682523460208301520160405180910390a1005b600080fd5b34801561028357600080fd5b5061029761029236600461233b565b61074f565b60405190151581526020015b60405180910390f35b3480156102b857600080fd5b506102c16107a1565b6040516102a391906123b0565b3480156102da57600080fd5b506102ee6102e93660046123c3565b610833565b6040516001600160a01b0390911681526020016102a3565b34801561031257600080fd5b506103266103213660046123f1565b6108cd565b005b34801561033457600080fd5b5061033d6109e3565b6040519081526020016102a3565b34801561035757600080fd5b5061032661036636600461241d565b6109f3565b34801561037757600080fd5b5061032661038636600461243a565b610b21565b6103266103993660046123c3565b610b52565b3480156103aa57600080fd5b506012546102979062010000900460ff1681565b3480156103ca57600080fd5b5060085461033d565b3480156103df57600080fd5b5061033d6103ee36600461247b565b6001600160a01b039182166000908152600e6020908152604080832093909416825291909152205490565b34801561042557600080fd5b5061032661043436600461243a565b610cf6565b34801561044557600080fd5b5061032661045436600461247b565b610d11565b34801561046557600080fd5b5060125461029790610100900460ff1681565b34801561048457600080fd5b50610326610493366004612540565b610ef9565b3480156104a457600080fd5b506012546102979060ff1681565b3480156104be57600080fd5b506102ee6104cd3660046123c3565b610f3a565b3480156104de57600080fd5b506102c1610fb1565b3480156104f357600080fd5b5061033d61050236600461241d565b61103f565b34801561051357600080fd5b506103266110c6565b34801561052857600080fd5b506103266110fc565b34801561053d57600080fd5b506102ee61054c3660046123c3565b611145565b34801561055d57600080fd5b506006546001600160a01b03166102ee565b34801561057b57600080fd5b506102c1611175565b34801561059057600080fd5b5061033d61059f36600461241d565b6001600160a01b03166000908152600b602052604090205490565b3480156105c657600080fd5b506103266105d5366004612597565b611184565b3480156105e657600080fd5b50601254610297906301000000900460ff1681565b6103266106093660046123c3565b61118f565b34801561061a57600080fd5b506103266106293660046125c5565b611336565b34801561063a57600080fd5b5061032661136e565b34801561064f57600080fd5b506102c161065e3660046123c3565b6113ac565b34801561066f57600080fd5b5061033d61067e36600461241d565b6001600160a01b03166000908152600a602052604090205490565b3480156106a557600080fd5b5061033d60105481565b3480156106bb57600080fd5b5061033d6106ca36600461241d565b6001600160a01b03166000908152600d602052604090205490565b3480156106f157600080fd5b50610326611487565b34801561070657600080fd5b5060095461033d565b34801561071b57600080fd5b5061029761072a36600461247b565b6114d2565b34801561073b57600080fd5b5061032661074a36600461241d565b6115a2565b60006001600160e01b031982166380ac58cd60e01b148061078057506001600160e01b03198216635b5e139f60e01b145b8061079b57506301ffc9a760e01b6001600160e01b03198316145b92915050565b6060600080546107b090612645565b80601f01602080910402602001604051908101604052809291908181526020018280546107dc90612645565b80156108295780601f106107fe57610100808354040283529160200191610829565b820191906000526020600020905b81548152906001019060200180831161080c57829003601f168201915b5050505050905090565b6000818152600260205260408120546001600160a01b03166108b15760405162461bcd60e51b815260206004820152602c60248201527f4552433732313a20617070726f76656420717565727920666f72206e6f6e657860448201526b34b9ba32b73a103a37b5b2b760a11b60648201526084015b60405180910390fd5b506000908152600460205260409020546001600160a01b031690565b60006108d882610f3a565b9050806001600160a01b0316836001600160a01b031614156109465760405162461bcd60e51b815260206004820152602160248201527f4552433732313a20617070726f76616c20746f2063757272656e74206f776e656044820152603960f91b60648201526084016108a8565b336001600160a01b0382161480610962575061096281336114d2565b6109d45760405162461bcd60e51b815260206004820152603860248201527f4552433732313a20617070726f76652063616c6c6572206973206e6f74206f7760448201527f6e6572206e6f7220617070726f76656420666f7220616c6c000000000000000060648201526084016108a8565b6109de838361163d565b505050565b60006109ee60165490565b905090565b6001600160a01b0381166000908152600a6020526040902054610a285760405162461bcd60e51b81526004016108a890612680565b6000610a3360095490565b610a3d90476126dc565b90506000610a6a8383610a65866001600160a01b03166000908152600b602052604090205490565b6116ab565b905080610a895760405162461bcd60e51b81526004016108a8906126f4565b6001600160a01b0383166000908152600b602052604081208054839290610ab19084906126dc565b925050819055508060096000828254610aca91906126dc565b90915550610ada905083826116e9565b604080516001600160a01b0385168152602081018390527fdf20fd1e76bc69d672e4814fafb2c449bba3a5369d8359adf9e05e6fde87b056910160405180910390a1505050565b610b2b3382611802565b610b475760405162461bcd60e51b81526004016108a89061273f565b6109de8383836118d1565b333214610b965760405162461bcd60e51b81526020600482015260126024820152712737ba1030b63637bbb2b21037b934b3b4b760711b60448201526064016108a8565b60125462010000900460ff16610bf85760405162461bcd60e51b815260206004820152602160248201527f426c6f636b636861696e486f6d6965733a204672656553616c65206973204f466044820152602360f91b60648201526084016108a8565b60125460ff1615610c1b5760405162461bcd60e51b81526004016108a890612790565b60008111610c6b5760405162461bcd60e51b815260206004820152601d60248201527f426c6f636b636861696e486f6d6965733a207a65726f20616d6f756e7400000060448201526064016108a8565b6000610c7660165490565b601054909150610c8683836126dc565b1115610ca45760405162461bcd60e51b81526004016108a8906127d4565b3482601554610cb39190612819565b1115610cd15760405162461bcd60e51b81526004016108a890612838565b60005b828110156109de57610ce4611a6d565b80610cee81612880565b915050610cd4565b6109de83838360405180602001604052806000815250611336565b6001600160a01b0381166000908152600a6020526040902054610d465760405162461bcd60e51b81526004016108a890612680565b6001600160a01b0382166000908152600d60205260408120546040516370a0823160e01b81523060048201526001600160a01b038516906370a082319060240160206040518083038186803b158015610d9e57600080fd5b505afa158015610db2573d6000803e3d6000fd5b505050506040513d601f19601f82011682018060405250810190610dd6919061289b565b610de091906126dc565b90506000610e198383610a6587876001600160a01b039182166000908152600e6020908152604080832093909416825291909152205490565b905080610e385760405162461bcd60e51b81526004016108a8906126f4565b6001600160a01b038085166000908152600e6020908152604080832093871683529290529081208054839290610e6f9084906126dc565b90915550506001600160a01b0384166000908152600d602052604081208054839290610e9c9084906126dc565b90915550610ead9050848483611af2565b604080516001600160a01b038581168252602082018490528616917f3be5b7a71e84ed12875d241991c70855ac5817d847039e17a9d895c1ceb0f18a910160405180910390a250505050565b6006546001600160a01b03163314610f235760405162461bcd60e51b81526004016108a8906128b4565b8051610f3690601190602084019061228c565b5050565b6000818152600260205260408120546001600160a01b03168061079b5760405162461bcd60e51b815260206004820152602960248201527f4552433732313a206f776e657220717565727920666f72206e6f6e657869737460448201526832b73a103a37b5b2b760b91b60648201526084016108a8565b60118054610fbe90612645565b80601f0160208091040260200160405190810160405280929190818152602001828054610fea90612645565b80156110375780601f1061100c57610100808354040283529160200191611037565b820191906000526020600020905b81548152906001019060200180831161101a57829003601f168201915b505050505081565b60006001600160a01b0382166110aa5760405162461bcd60e51b815260206004820152602a60248201527f4552433732313a2062616c616e636520717565727920666f7220746865207a65604482015269726f206164647265737360b01b60648201526084016108a8565b506001600160a01b031660009081526003602052604090205490565b6006546001600160a01b031633146110f05760405162461bcd60e51b81526004016108a8906128b4565b6110fa6000611b44565b565b6006546001600160a01b031633146111265760405162461bcd60e51b81526004016108a8906128b4565b6012805462ff0000198116620100009182900460ff1615909102179055565b6000600c828154811061115a5761115a6128e9565b6000918252602090912001546001600160a01b031692915050565b6060600180546107b090612645565b610f36338383611b96565b3332146111d35760405162461bcd60e51b81526020600482015260126024820152712737ba1030b63637bbb2b21037b934b3b4b760711b60448201526064016108a8565b6012546301000000900460ff166112385760405162461bcd60e51b815260206004820152602360248201527f426c6f636b636861696e486f6d6965733a205075626c696353616c652069732060448201526227a32360e91b60648201526084016108a8565b60125460ff161561125b5760405162461bcd60e51b81526004016108a890612790565b600081116112ab5760405162461bcd60e51b815260206004820152601d60248201527f426c6f636b636861696e486f6d6965733a207a65726f20616d6f756e7400000060448201526064016108a8565b60006112b660165490565b6010549091506112c683836126dc565b11156112e45760405162461bcd60e51b81526004016108a8906127d4565b34826014546112f39190612819565b11156113115760405162461bcd60e51b81526004016108a890612838565b60005b828110156109de57611324611a6d565b8061132e81612880565b915050611314565b6113403383611802565b61135c5760405162461bcd60e51b81526004016108a89061273f565b61136884848484611c65565b50505050565b6006546001600160a01b031633146113985760405162461bcd60e51b81526004016108a8906128b4565b6012805460ff19811660ff90911615179055565b6000818152600260205260409020546060906001600160a01b031661142b5760405162461bcd60e51b815260206004820152602f60248201527f4552433732314d657461646174613a2055524920717565727920666f72206e6f60448201526e3732bc34b9ba32b73a103a37b5b2b760891b60648201526084016108a8565b6000611435611c98565b905060008151116114555760405180602001604052806000815250611480565b8061145f84611ca7565b6040516020016114709291906128ff565b6040516020818303038152906040525b9392505050565b6006546001600160a01b031633146114b15760405162461bcd60e51b81526004016108a8906128b4565b6012805463ff00000019811663010000009182900460ff1615909102179055565b600f5460405163c455279160e01b81526001600160a01b03848116600483015260009281169190841690829063c45527919060240160206040518083038186803b15801561151f57600080fd5b505afa158015611533573d6000803e3d6000fd5b505050506040513d601f19601f82011682018060405250810190611557919061292e565b6001600160a01b0316141561157057600191505061079b565b6001600160a01b0380851660009081526005602090815260408083209387168352929052205460ff165b949350505050565b6006546001600160a01b031633146115cc5760405162461bcd60e51b81526004016108a8906128b4565b6001600160a01b0381166116315760405162461bcd60e51b815260206004820152602660248201527f4f776e61626c653a206e6577206f776e657220697320746865207a65726f206160448201526564647265737360d01b60648201526084016108a8565b61163a81611b44565b50565b600081815260046020526040902080546001600160a01b0319166001600160a01b038416908117909155819061167282610f3a565b6001600160a01b03167f8c5be1e5ebec7d5bd14f71427d1e84f3dd0314c0f7b2291e5b200ac8c7c3b92560405160405180910390a45050565b6008546001600160a01b0384166000908152600a6020526040812054909183916116d59086612819565b6116df9190612961565b61159a9190612975565b804710156117395760405162461bcd60e51b815260206004820152601d60248201527f416464726573733a20696e73756666696369656e742062616c616e636500000060448201526064016108a8565b6000826001600160a01b03168260405160006040518083038185875af1925050503d8060008114611786576040519150601f19603f3d011682016040523d82523d6000602084013e61178b565b606091505b50509050806109de5760405162461bcd60e51b815260206004820152603a60248201527f416464726573733a20756e61626c6520746f2073656e642076616c75652c207260448201527f6563697069656e74206d6179206861766520726576657274656400000000000060648201526084016108a8565b6000818152600260205260408120546001600160a01b031661187b5760405162461bcd60e51b815260206004820152602c60248201527f4552433732313a206f70657261746f7220717565727920666f72206e6f6e657860448201526b34b9ba32b73a103a37b5b2b760a11b60648201526084016108a8565b600061188683610f3a565b9050806001600160a01b0316846001600160a01b031614806118c15750836001600160a01b03166118b684610833565b6001600160a01b0316145b8061159a575061159a81856114d2565b826001600160a01b03166118e482610f3a565b6001600160a01b0316146119485760405162461bcd60e51b815260206004820152602560248201527f4552433732313a207472616e736665722066726f6d20696e636f72726563742060448201526437bbb732b960d91b60648201526084016108a8565b6001600160a01b0382166119aa5760405162461bcd60e51b8152602060048201526024808201527f4552433732313a207472616e7366657220746f20746865207a65726f206164646044820152637265737360e01b60648201526084016108a8565b6119b560008261163d565b6001600160a01b03831660009081526003602052604081208054600192906119de908490612975565b90915550506001600160a01b0382166000908152600360205260408120805460019290611a0c9084906126dc565b909155505060008181526002602052604080822080546001600160a01b0319166001600160a01b0386811691821790925591518493918716917fddf252ad1be2c89b69c2b068fc378daa952ba7f163c4a11628f55a4df523b3ef91a4505050565b60026007541415611ac05760405162461bcd60e51b815260206004820152601f60248201527f5265656e7472616e637947756172643a207265656e7472616e742063616c6c0060448201526064016108a8565b6002600755611ad3601680546001019055565b6000611ade60165490565b9050611aea3382611da5565b506001600755565b604080516001600160a01b038416602482015260448082018490528251808303909101815260649091019091526020810180516001600160e01b031663a9059cbb60e01b1790526109de908490611dbf565b600680546001600160a01b038381166001600160a01b0319831681179093556040519116919082907f8be0079c531659141344cd1fd0a4f28419497f9722a3daafe3b4186f6b6457e090600090a35050565b816001600160a01b0316836001600160a01b03161415611bf85760405162461bcd60e51b815260206004820152601960248201527f4552433732313a20617070726f766520746f2063616c6c65720000000000000060448201526064016108a8565b6001600160a01b03838116600081815260056020908152604080832094871680845294825291829020805460ff191686151590811790915591519182527f17307eab39ab6107e8899845ad3d59bd9653f200f220920489ca2b5937696c31910160405180910390a3505050565b611c708484846118d1565b611c7c84848484611e91565b6113685760405162461bcd60e51b81526004016108a89061298c565b6060601180546107b090612645565b606081611ccb5750506040805180820190915260018152600360fc1b602082015290565b8160005b8115611cf55780611cdf81612880565b9150611cee9050600a83612961565b9150611ccf565b60008167ffffffffffffffff811115611d1057611d106124b4565b6040519080825280601f01601f191660200182016040528015611d3a576020820181803683370190505b5090505b841561159a57611d4f600183612975565b9150611d5c600a866129de565b611d679060306126dc565b60f81b818381518110611d7c57611d7c6128e9565b60200101906001600160f81b031916908160001a905350611d9e600a86612961565b9450611d3e565b610f36828260405180602001604052806000815250611f9e565b6000611e14826040518060400160405280602081526020017f5361666545524332303a206c6f772d6c6576656c2063616c6c206661696c6564815250856001600160a01b0316611fd19092919063ffffffff16565b8051909150156109de5780806020019051810190611e3291906129f2565b6109de5760405162461bcd60e51b815260206004820152602a60248201527f5361666545524332303a204552433230206f7065726174696f6e20646964206e6044820152691bdd081cdd58d8d9595960b21b60648201526084016108a8565b60006001600160a01b0384163b15611f9357604051630a85bd0160e11b81526001600160a01b0385169063150b7a0290611ed5903390899088908890600401612a0f565b602060405180830381600087803b158015611eef57600080fd5b505af1925050508015611f1f575060408051601f3d908101601f19168201909252611f1c91810190612a4c565b60015b611f79573d808015611f4d576040519150601f19603f3d011682016040523d82523d6000602084013e611f52565b606091505b508051611f715760405162461bcd60e51b81526004016108a89061298c565b805181602001fd5b6001600160e01b031916630a85bd0160e11b14905061159a565b506001949350505050565b611fa88383611fe0565b611fb56000848484611e91565b6109de5760405162461bcd60e51b81526004016108a89061298c565b606061159a8484600085612122565b6001600160a01b0382166120365760405162461bcd60e51b815260206004820181905260248201527f4552433732313a206d696e7420746f20746865207a65726f206164647265737360448201526064016108a8565b6000818152600260205260409020546001600160a01b03161561209b5760405162461bcd60e51b815260206004820152601c60248201527f4552433732313a20746f6b656e20616c7265616479206d696e7465640000000060448201526064016108a8565b6001600160a01b03821660009081526003602052604081208054600192906120c49084906126dc565b909155505060008181526002602052604080822080546001600160a01b0319166001600160a01b03861690811790915590518392907fddf252ad1be2c89b69c2b068fc378daa952ba7f163c4a11628f55a4df523b3ef908290a45050565b6060824710156121835760405162461bcd60e51b815260206004820152602660248201527f416464726573733a20696e73756666696369656e742062616c616e636520666f6044820152651c8818d85b1b60d21b60648201526084016108a8565b6001600160a01b0385163b6121da5760405162461bcd60e51b815260206004820152601d60248201527f416464726573733a2063616c6c20746f206e6f6e2d636f6e747261637400000060448201526064016108a8565b600080866001600160a01b031685876040516121f69190612a69565b60006040518083038185875af1925050503d8060008114612233576040519150601f19603f3d011682016040523d82523d6000602084013e612238565b606091505b5091509150612248828286612253565b979650505050505050565b60608315612262575081611480565b8251156122725782518084602001fd5b8160405162461bcd60e51b81526004016108a891906123b0565b82805461229890612645565b90600052602060002090601f0160209004810192826122ba5760008555612300565b82601f106122d357805160ff1916838001178555612300565b82800160010185558215612300579182015b828111156123005782518255916020019190600101906122e5565b5061230c929150612310565b5090565b5b8082111561230c5760008155600101612311565b6001600160e01b03198116811461163a57600080fd5b60006020828403121561234d57600080fd5b813561148081612325565b60005b8381101561237357818101518382015260200161235b565b838111156113685750506000910152565b6000815180845261239c816020860160208601612358565b601f01601f19169290920160200192915050565b6020815260006114806020830184612384565b6000602082840312156123d557600080fd5b5035919050565b6001600160a01b038116811461163a57600080fd5b6000806040838503121561240457600080fd5b823561240f816123dc565b946020939093013593505050565b60006020828403121561242f57600080fd5b8135611480816123dc565b60008060006060848603121561244f57600080fd5b833561245a816123dc565b9250602084013561246a816123dc565b929592945050506040919091013590565b6000806040838503121561248e57600080fd5b8235612499816123dc565b915060208301356124a9816123dc565b809150509250929050565b634e487b7160e01b600052604160045260246000fd5b600067ffffffffffffffff808411156124e5576124e56124b4565b604051601f8501601f19908116603f0116810190828211818310171561250d5761250d6124b4565b8160405280935085815286868601111561252657600080fd5b858560208301376000602087830101525050509392505050565b60006020828403121561255257600080fd5b813567ffffffffffffffff81111561256957600080fd5b8201601f8101841361257a57600080fd5b61159a848235602084016124ca565b801515811461163a57600080fd5b600080604083850312156125aa57600080fd5b82356125b5816123dc565b915060208301356124a981612589565b600080600080608085870312156125db57600080fd5b84356125e6816123dc565b935060208501356125f6816123dc565b925060408501359150606085013567ffffffffffffffff81111561261957600080fd5b8501601f8101871361262a57600080fd5b612639878235602084016124ca565b91505092959194509250565b600181811c9082168061265957607f821691505b6020821081141561267a57634e487b7160e01b600052602260045260246000fd5b50919050565b60208082526026908201527f5061796d656e7453706c69747465723a206163636f756e7420686173206e6f2060408201526573686172657360d01b606082015260800190565b634e487b7160e01b600052601160045260246000fd5b600082198211156126ef576126ef6126c6565b500190565b6020808252602b908201527f5061796d656e7453706c69747465723a206163636f756e74206973206e6f742060408201526a191d59481c185e5b595b9d60aa1b606082015260800190565b60208082526031908201527f4552433732313a207472616e736665722063616c6c6572206973206e6f74206f6040820152701ddb995c881b9bdc88185c1c1c9bdd9959607a1b606082015260800190565b60208082526024908201527f426c6f636b636861696e486f6d6965733a20436f6e74726163742069732070616040820152631d5cd95960e21b606082015260800190565b60208082526025908201527f426c6f636b636861696e486f6d6965733a204d617820737570706c7920657863604082015264195959195960da1b606082015260800190565b6000816000190483118215151615612833576128336126c6565b500290565b60208082526028908201527f426c6f636b636861696e486f6d6965733a204e6f7420656e6f75676820657468604082015267195c9cc81cd95b9d60c21b606082015260800190565b6000600019821415612894576128946126c6565b5060010190565b6000602082840312156128ad57600080fd5b5051919050565b6020808252818101527f4f776e61626c653a2063616c6c6572206973206e6f7420746865206f776e6572604082015260600190565b634e487b7160e01b600052603260045260246000fd5b60008351612911818460208801612358565b835190830190612925818360208801612358565b01949350505050565b60006020828403121561294057600080fd5b8151611480816123dc565b634e487b7160e01b600052601260045260246000fd5b6000826129705761297061294b565b500490565b600082821015612987576129876126c6565b500390565b60208082526032908201527f4552433732313a207472616e7366657220746f206e6f6e20455243373231526560408201527131b2b4bb32b91034b6b83632b6b2b73a32b960711b606082015260800190565b6000826129ed576129ed61294b565b500690565b600060208284031215612a0457600080fd5b815161148081612589565b6001600160a01b0385811682528416602082015260408101839052608060608201819052600090612a4290830184612384565b9695505050505050565b600060208284031215612a5e57600080fd5b815161148081612325565b60008251612a7b818460208701612358565b919091019291505056fea26469706673582212208d94fa10036583bc6d9758963e06aa26b1f284dd02ded32517de07aedefdd0fd64736f6c63430008090033",
  "linkReferences": {},
  "deployedLinkReferences": {}
}