{
  "_format": "hh-sol-artifact-1",
  "contractName": "AxialGenesis",
  "sourceName": "contracts/AxialGenesis.sol",
  "abi": [
    {
      "inputs": [
        {
          "internalType": "string",
          "name": "uri",
          "type": "string"
        },
        {
          "internalType": "bytes32",
          "name": "merkleroot",
          "type": "bytes32"
        },
        {
          "internalType": "bytes32",
          "name": "freeMerkleRoot",
          "type": "bytes32"
        },
        {
          "internalType": "address",
          "name": "_proxyRegistryAddress",
          "type": "address"
        }
      ],
      "stateMutability": "nonpayable",
      "type": "constructor"
    },
    {
      "anonymous": false,
      "inputs": [
        {
          "indexed": true,
          "internalType": "address",
          "name": "owner",
          "type": "address"
        },
        {
          "indexed": true,
          "internalType": "address",
          "name": "approved",
          "type": "address"
        },
        {
          "indexed": true,
          "internalType": "uint256",
          "name": "tokenId",
          "type": "uint256"
        }
      ],
      "name": "Approval",
      "type": "event"
    },
    {
      "anonymous": false,
      "inputs": [
        {
          "indexed": true,
          "internalType": "address",
          "name": "owner",
          "type": "address"
        },
        {
          "indexed": true,
          "internalType": "address",
          "name": "operator",
          "type": "address"
        },
        {
          "indexed": false,
          "internalType": "bool",
          "name": "approved",
          "type": "bool"
        }
      ],
      "name": "ApprovalForAll",
      "type": "event"
    },
    {
      "anonymous": false,
      "inputs": [
        {
          "indexed": true,
          "internalType": "contract IERC20",
          "name": "token",
          "type": "address"
        },
        {
          "indexed": false,
          "internalType": "address",
          "name": "to",
          "type": "address"
        },
        {
          "indexed": false,
          "internalType": "uint256",
          "name": "amount",
          "type": "uint256"
        }
      ],
      "name": "ERC20PaymentReleased",
      "type": "event"
    },
    {
      "anonymous": false,
      "inputs": [
        {
          "indexed": true,
          "internalType": "address",
          "name": "previousOwner",
          "type": "address"
        },
        {
          "indexed": true,
          "internalType": "address",
          "name": "newOwner",
          "type": "address"
        }
      ],
      "name": "OwnershipTransferred",
      "type": "event"
    },
    {
      "anonymous": false,
      "inputs": [
        {
          "indexed": false,
          "internalType": "address",
          "name": "account",
          "type": "address"
        },
        {
          "indexed": false,
          "internalType": "uint256",
          "name": "shares",
          "type": "uint256"
        }
      ],
      "name": "PayeeAdded",
      "type": "event"
    },
    {
      "anonymous": false,
      "inputs": [
        {
          "indexed": false,
          "internalType": "address",
          "name": "from",
          "type": "address"
        },
        {
          "indexed": false,
          "internalType": "uint256",
          "name": "amount",
          "type": "uint256"
        }
      ],
      "name": "PaymentReceived",
      "type": "event"
    },
    {
      "anonymous": false,
      "inputs": [
        {
          "indexed": false,
          "internalType": "address",
          "name": "to",
          "type": "address"
        },
        {
          "indexed": false,
          "internalType": "uint256",
          "name": "amount",
          "type": "uint256"
        }
      ],
      "name": "PaymentReleased",
      "type": "event"
    },
    {
      "anonymous": false,
      "inputs": [
        {
          "indexed": true,
          "internalType": "address",
          "name": "from",
          "type": "address"
        },
        {
          "indexed": true,
          "internalType": "address",
          "name": "to",
          "type": "address"
        },
        {
          "indexed": true,
          "internalType": "uint256",
          "name": "tokenId",
          "type": "uint256"
        }
      ],
      "name": "Transfer",
      "type": "event"
    },
    {
      "inputs": [
        {
          "internalType": "address",
          "name": "",
          "type": "address"
        }
      ],
      "name": "_freeClaimed",
      "outputs": [
        {
          "internalType": "uint256",
          "name": "",
          "type": "uint256"
        }
      ],
      "stateMutability": "view",
      "type": "function"
    },
    {
      "inputs": [
        {
          "internalType": "address",
          "name": "",
          "type": "address"
        }
      ],
      "name": "_presaleClaimed",
      "outputs": [
        {
          "internalType": "uint256",
          "name": "",
          "type": "uint256"
        }
      ],
      "stateMutability": "view",
      "type": "function"
    },
    {
      "inputs": [
        {
          "internalType": "address",
          "name": "to",
          "type": "address"
        },
        {
          "internalType": "uint256",
          "name": "tokenId",
          "type": "uint256"
        }
      ],
      "name": "approve",
      "outputs": [],
      "stateMutability": "nonpayable",
      "type": "function"
    },
    {
      "inputs": [
        {
          "internalType": "address",
          "name": "owner",
          "type": "address"
        }
      ],
      "name": "balanceOf",
      "outputs": [
        {
          "internalType": "uint256",
          "name": "",
          "type": "uint256"
        }
      ],
      "stateMutability": "view",
      "type": "function"
    },
    {
      "inputs": [],
      "name": "baseExtension",
      "outputs": [
        {
          "internalType": "string",
          "name": "",
          "type": "string"
        }
      ],
      "stateMutability": "view",
      "type": "function"
    },
    {
      "inputs": [],
      "name": "baseURI",
      "outputs": [
        {
          "internalType": "string",
          "name": "",
          "type": "string"
        }
      ],
      "stateMutability": "view",
      "type": "function"
    },
    {
      "inputs": [],
      "name": "freeRoot",
      "outputs": [
        {
          "internalType": "bytes32",
          "name": "",
          "type": "bytes32"
        }
      ],
      "stateMutability": "view",
      "type": "function"
    },
    {
      "inputs": [
        {
          "internalType": "address",
          "name": "account",
          "type": "address"
        },
        {
          "internalType": "uint256",
          "name": "_amount",
          "type": "uint256"
        },
        {
          "internalType": "bytes32[]",
          "name": "_proof",
          "type": "bytes32[]"
        }
      ],
      "name": "freeSaleMint",
      "outputs": [],
      "stateMutability": "payable",
      "type": "function"
    },
    {
      "inputs": [],
      "name": "freesaleM",
      "outputs": [
        {
          "internalType": "bool",
          "name": "",
          "type": "bool"
        }
      ],
      "stateMutability": "view",
      "type": "function"
    },
    {
      "inputs": [
        {
          "internalType": "uint256",
          "name": "tokenId",
          "type": "uint256"
        }
      ],
      "name": "getApproved",
      "outputs": [
        {
          "internalType": "address",
          "name": "",
          "type": "address"
        }
      ],
      "stateMutability": "view",
      "type": "function"
    },
    {
      "inputs": [
        {
          "internalType": "address",
          "name": "owner",
          "type": "address"
        },
        {
          "internalType": "address",
          "name": "operator",
          "type": "address"
        }
      ],
      "name": "isApprovedForAll",
      "outputs": [
        {
          "internalType": "bool",
          "name": "",
          "type": "bool"
        }
      ],
      "stateMutability": "view",
      "type": "function"
    },
    {
      "inputs": [],
      "name": "maxSupply",
      "outputs": [
        {
          "internalType": "uint256",
          "name": "",
          "type": "uint256"
        }
      ],
      "stateMutability": "view",
      "type": "function"
    },
    {
      "inputs": [],
      "name": "name",
      "outputs": [
        {
          "internalType": "string",
          "name": "",
          "type": "string"
        }
      ],
      "stateMutability": "view",
      "type": "function"
    },
    {
      "inputs": [],
      "name": "notRevealedUri",
      "outputs": [
        {
          "internalType": "string",
          "name": "",
          "type": "string"
        }
      ],
      "stateMutability": "view",
      "type": "function"
    },
    {
      "inputs": [],
      "name": "owner",
      "outputs": [
        {
          "internalType": "address",
          "name": "",
          "type": "address"
        }
      ],
      "stateMutability": "view",
      "type": "function"
    },
    {
      "inputs": [
        {
          "internalType": "uint256",
          "name": "tokenId",
          "type": "uint256"
        }
      ],
      "name": "ownerOf",
      "outputs": [
        {
          "internalType": "address",
          "name": "",
          "type": "address"
        }
      ],
      "stateMutability": "view",
      "type": "function"
    },
    {
      "inputs": [],
      "name": "paused",
      "outputs": [
        {
          "internalType": "bool",
          "name": "",
          "type": "bool"
        }
      ],
      "stateMutability": "view",
      "type": "function"
    },
    {
      "inputs": [
        {
          "internalType": "uint256",
          "name": "index",
          "type": "uint256"
        }
      ],
      "name": "payee",
      "outputs": [
        {
          "internalType": "address",
          "name": "",
          "type": "address"
        }
      ],
      "stateMutability": "view",
      "type": "function"
    },
    {
      "inputs": [
        {
          "internalType": "address",
          "name": "account",
          "type": "address"
        },
        {
          "internalType": "uint256",
          "name": "_amount",
          "type": "uint256"
        },
        {
          "internalType": "bytes32[]",
          "name": "_proof",
          "type": "bytes32[]"
        }
      ],
      "name": "preSaleMint",
      "outputs": [],
      "stateMutability": "payable",
      "type": "function"
    },
    {
      "inputs": [],
      "name": "presaleM",
      "outputs": [
        {
          "internalType": "bool",
          "name": "",
          "type": "bool"
        }
      ],
      "stateMutability": "view",
      "type": "function"
    },
    {
      "inputs": [],
      "name": "publicM",
      "outputs": [
        {
          "internalType": "bool",
          "name": "",
          "type": "bool"
        }
      ],
      "stateMutability": "view",
      "type": "function"
    },
    {
      "inputs": [
        {
          "internalType": "uint256",
          "name": "_amount",
          "type": "uint256"
        }
      ],
      "name": "publicSaleMint",
      "outputs": [],
      "stateMutability": "payable",
      "type": "function"
    },
    {
      "inputs": [
        {
          "internalType": "address payable",
          "name": "account",
          "type": "address"
        }
      ],
      "name": "release",
      "outputs": [],
      "stateMutability": "nonpayable",
      "type": "function"
    },
    {
      "inputs": [
        {
          "internalType": "contract IERC20",
          "name": "token",
          "type": "address"
        },
        {
          "internalType": "address",
          "name": "account",
          "type": "address"
        }
      ],
      "name": "release",
      "outputs": [],
      "stateMutability": "nonpayable",
      "type": "function"
    },
    {
      "inputs": [
        {
          "internalType": "contract IERC20",
          "name": "token",
          "type": "address"
        },
        {
          "internalType": "address",
          "name": "account",
          "type": "address"
        }
      ],
      "name": "released",
      "outputs": [
        {
          "internalType": "uint256",
          "name": "",
          "type": "uint256"
        }
      ],
      "stateMutability": "view",
      "type": "function"
    },
    {
      "inputs": [
        {
          "internalType": "address",
          "name": "account",
          "type": "address"
        }
      ],
      "name": "released",
      "outputs": [
        {
          "internalType": "uint256",
          "name": "",
          "type": "uint256"
        }
      ],
      "stateMutability": "view",
      "type": "function"
    },
    {
      "inputs": [],
      "name": "renounceOwnership",
      "outputs": [],
      "stateMutability": "nonpayable",
      "type": "function"
    },
    {
      "inputs": [],
      "name": "reveal",
      "outputs": [],
      "stateMutability": "nonpayable",
      "type": "function"
    },
    {
      "inputs": [],
      "name": "revealed",
      "outputs": [
        {
          "internalType": "bool",
          "name": "",
          "type": "bool"
        }
      ],
      "stateMutability": "view",
      "type": "function"
    },
    {
      "inputs": [],
      "name": "root",
      "outputs": [
        {
          "internalType": "bytes32",
          "name": "",
          "type": "bytes32"
        }
      ],
      "stateMutability": "view",
      "type": "function"
    },
    {
      "inputs": [
        {
          "internalType": "address",
          "name": "from",
          "type": "address"
        },
        {
          "internalType": "address",
          "name": "to",
          "type": "address"
        },
        {
          "internalType": "uint256",
          "name": "tokenId",
          "type": "uint256"
        }
      ],
      "name": "safeTransferFrom",
      "outputs": [],
      "stateMutability": "nonpayable",
      "type": "function"
    },
    {
      "inputs": [
        {
          "internalType": "address",
          "name": "from",
          "type": "address"
        },
        {
          "internalType": "address",
          "name": "to",
          "type": "address"
        },
        {
          "internalType": "uint256",
          "name": "tokenId",
          "type": "uint256"
        },
        {
          "internalType": "bytes",
          "name": "_data",
          "type": "bytes"
        }
      ],
      "name": "safeTransferFrom",
      "outputs": [],
      "stateMutability": "nonpayable",
      "type": "function"
    },
    {
      "inputs": [
        {
          "internalType": "address",
          "name": "operator",
          "type": "address"
        },
        {
          "internalType": "bool",
          "name": "approved",
          "type": "bool"
        }
      ],
      "name": "setApprovalForAll",
      "outputs": [],
      "stateMutability": "nonpayable",
      "type": "function"
    },
    {
      "inputs": [
        {
          "internalType": "string",
          "name": "_newBaseExtension",
          "type": "string"
        }
      ],
      "name": "setBaseExtension",
      "outputs": [],
      "stateMutability": "nonpayable",
      "type": "function"
    },
    {
      "inputs": [
        {
          "internalType": "string",
          "name": "_tokenBaseURI",
          "type": "string"
        }
      ],
      "name": "setBaseURI",
      "outputs": [],
      "stateMutability": "nonpayable",
      "type": "function"
    },
    {
      "inputs": [
        {
          "internalType": "bytes32",
          "name": "freeMerkleRoot",
          "type": "bytes32"
        }
      ],
      "name": "setFreeMerkleRoot",
      "outputs": [],
      "stateMutability": "nonpayable",
      "type": "function"
    },
    {
      "inputs": [
        {
          "internalType": "bytes32",
          "name": "merkleroot",
          "type": "bytes32"
        }
      ],
      "name": "setMerkleRoot",
      "outputs": [],
      "stateMutability": "nonpayable",
      "type": "function"
    },
    {
      "inputs": [
        {
          "internalType": "string",
          "name": "_notRevealedURI",
          "type": "string"
        }
      ],
      "name": "setNotRevealedURI",
      "outputs": [],
      "stateMutability": "nonpayable",
      "type": "function"
    },
    {
      "inputs": [
        {
          "internalType": "address",
          "name": "account",
          "type": "address"
        }
      ],
      "name": "shares",
      "outputs": [
        {
          "internalType": "uint256",
          "name": "",
          "type": "uint256"
        }
      ],
      "stateMutability": "view",
      "type": "function"
    },
    {
      "inputs": [
        {
          "internalType": "bytes4",
          "name": "interfaceId",
          "type": "bytes4"
        }
      ],
      "name": "supportsInterface",
      "outputs": [
        {
          "internalType": "bool",
          "name": "",
          "type": "bool"
        }
      ],
      "stateMutability": "view",
      "type": "function"
    },
    {
      "inputs": [],
      "name": "symbol",
      "outputs": [
        {
          "internalType": "string",
          "name": "",
          "type": "string"
        }
      ],
      "stateMutability": "view",
      "type": "function"
    },
    {
      "inputs": [],
      "name": "toggleFreeSale",
      "outputs": [],
      "stateMutability": "nonpayable",
      "type": "function"
    },
    {
      "inputs": [],
      "name": "togglePause",
      "outputs": [],
      "stateMutability": "nonpayable",
      "type": "function"
    },
    {
      "inputs": [],
      "name": "togglePresale",
      "outputs": [],
      "stateMutability": "nonpayable",
      "type": "function"
    },
    {
      "inputs": [],
      "name": "togglePublicSale",
      "outputs": [],
      "stateMutability": "nonpayable",
      "type": "function"
    },
    {
      "inputs": [
        {
          "internalType": "uint256",
          "name": "tokenId",
          "type": "uint256"
        }
      ],
      "name": "tokenURI",
      "outputs": [
        {
          "internalType": "string",
          "name": "",
          "type": "string"
        }
      ],
      "stateMutability": "view",
      "type": "function"
    },
    {
      "inputs": [
        {
          "internalType": "contract IERC20",
          "name": "token",
          "type": "address"
        }
      ],
      "name": "totalReleased",
      "outputs": [
        {
          "internalType": "uint256",
          "name": "",
          "type": "uint256"
        }
      ],
      "stateMutability": "view",
      "type": "function"
    },
    {
      "inputs": [],
      "name": "totalReleased",
      "outputs": [
        {
          "internalType": "uint256",
          "name": "",
          "type": "uint256"
        }
      ],
      "stateMutability": "view",
      "type": "function"
    },
    {
      "inputs": [],
      "name": "totalShares",
      "outputs": [
        {
          "internalType": "uint256",
          "name": "",
          "type": "uint256"
        }
      ],
      "stateMutability": "view",
      "type": "function"
    },
    {
      "inputs": [],
      "name": "totalSupply",
      "outputs": [
        {
          "internalType": "uint256",
          "name": "",
          "type": "uint256"
        }
      ],
      "stateMutability": "view",
      "type": "function"
    },
    {
      "inputs": [
        {
          "internalType": "address",
          "name": "from",
          "type": "address"
        },
        {
          "internalType": "address",
          "name": "to",
          "type": "address"
        },
        {
          "internalType": "uint256",
          "name": "tokenId",
          "type": "uint256"
        }
      ],
      "name": "transferFrom",
      "outputs": [],
      "stateMutability": "nonpayable",
      "type": "function"
    },
    {
      "inputs": [
        {
          "internalType": "address",
          "name": "newOwner",
          "type": "address"
        }
      ],
      "name": "transferOwnership",
      "outputs": [],
      "stateMutability": "nonpayable",
      "type": "function"
    },
    {
      "stateMutability": "payable",
      "type": "receive"
    }
  ],
  "bytecode": "0x61022b601255610100604052604160808181529062003eae60a0398051620000309160149160209091019062000671565b5060408051808201909152600580825264173539b7b760d91b60209092019182526200005f9160159162000671565b506016805464ffffffffff1916600190811790915560026017556018819055662386f26fc10000601b556000601c819055601d55604080516020810190915260648152620000b191601f919062000700565b50604080516020808201909252739a32f450219133b5fab058b7722450b422b9d8378152620000e39190600162000743565b50348015620000f157600080fd5b5060405162003eef38038062003eef8339810160408190526200011491620007e5565b6020805460408051828402810184019091528181529190828201828280156200016757602002820191906000526020600020905b81546001600160a01b0316815260019091019060200180831162000148575b5050505050601f805480602002602001604051908101604052809291908181526020018280548015620001ba57602002820191906000526020600020905b815481526020019060010190808311620001a5575b5050604080518082018252600c81526b417869616c47656e6573697360a01b602080830191825283518085019094526005845264105612505360da1b9084015281519195509193506200021292506000919062000671565b5080516200022890600190602084019062000671565b505050620002456200023f620003b860201b60201c565b620003bc565b60016007558051825114620002bc5760405162461bcd60e51b815260206004820152603260248201527f5061796d656e7453706c69747465723a2070617965657320616e6420736861726044820152710cae640d8cadccee8d040dad2e6dac2e8c6d60731b60648201526084015b60405180910390fd5b60008251116200030f5760405162461bcd60e51b815260206004820152601a60248201527f5061796d656e7453706c69747465723a206e6f207061796565730000000000006044820152606401620002b3565b60005b82518110156200037b5762000366838281518110620003355762000335620008ea565b6020026020010151838381518110620003525762000352620008ea565b60200260200101516200040e60201b60201c565b80620003728162000916565b91505062000312565b505050600f8390556010829055601180546001600160a01b0319166001600160a01b038316179055620003ae84620005fc565b505050506200098c565b3390565b600680546001600160a01b038381166001600160a01b0319831681179093556040519116919082907f8be0079c531659141344cd1fd0a4f28419497f9722a3daafe3b4186f6b6457e090600090a35050565b6001600160a01b0382166200047b5760405162461bcd60e51b815260206004820152602c60248201527f5061796d656e7453706c69747465723a206163636f756e74206973207468652060448201526b7a65726f206164647265737360a01b6064820152608401620002b3565b60008111620004cd5760405162461bcd60e51b815260206004820152601d60248201527f5061796d656e7453706c69747465723a207368617265732061726520300000006044820152606401620002b3565b6001600160a01b0382166000908152600a602052604090205415620005495760405162461bcd60e51b815260206004820152602b60248201527f5061796d656e7453706c69747465723a206163636f756e7420616c726561647960448201526a206861732073686172657360a81b6064820152608401620002b3565b600c8054600181019091557fdf6966c971051c3d54ec59162606531493a51404a002842f56009d7e5cf4a8c70180546001600160a01b0319166001600160a01b0384169081179091556000908152600a60205260409020819055600854620005b390829062000934565b600855604080516001600160a01b0384168152602081018390527f40c340f65e17194d14ddddb073d3c9f888e3cb52b5aae0c6c7706b4fbc905fac910160405180910390a15050565b6006546001600160a01b03163314620006585760405162461bcd60e51b815260206004820181905260248201527f4f776e61626c653a2063616c6c6572206973206e6f7420746865206f776e65726044820152606401620002b3565b80516200066d90601390602084019062000671565b5050565b8280546200067f906200094f565b90600052602060002090601f016020900481019282620006a35760008555620006ee565b82601f10620006be57805160ff1916838001178555620006ee565b82800160010185558215620006ee579182015b82811115620006ee578251825591602001919060010190620006d1565b50620006fc9291506200079b565b5090565b828054828255906000526020600020908101928215620006ee579160200282015b82811115620006ee578251829060ff1690559160200191906001019062000721565b828054828255906000526020600020908101928215620006ee579160200282015b82811115620006ee57825182546001600160a01b0319166001600160a01b0390911617825560209092019160019091019062000764565b5b80821115620006fc57600081556001016200079c565b634e487b7160e01b600052604160045260246000fd5b80516001600160a01b0381168114620007e057600080fd5b919050565b60008060008060808587031215620007fc57600080fd5b84516001600160401b03808211156200081457600080fd5b818701915087601f8301126200082957600080fd5b8151818111156200083e576200083e620007b2565b604051601f8201601f19908116603f01168101908382118183101715620008695762000869620007b2565b81604052828152602093508a848487010111156200088657600080fd5b600091505b82821015620008aa57848201840151818301850152908301906200088b565b82821115620008bc5760008484830101525b809850505050808701519450505060408501519150620008df60608601620007c8565b905092959194509250565b634e487b7160e01b600052603260045260246000fd5b634e487b7160e01b600052601160045260246000fd5b60006000198214156200092d576200092d62000900565b5060010190565b600082198211156200094a576200094a62000900565b500190565b600181811c908216806200096457607f821691505b602082108114156200098657634e487b7160e01b600052602260045260246000fd5b50919050565b613512806200099c6000396000f3fe6080604052600436106103035760003560e01c80637cb6475911610190578063c6682862116100dc578063e1bff46211610095578063e985e9c51161006f578063e985e9c514610942578063ebf0c71714610962578063f2c4ce1e14610978578063f2fde38b1461099857600080fd5b8063e1bff46214610905578063e222c7f914610918578063e33b7de31461092d57600080fd5b8063c66828621461082e578063c87b56dd14610843578063ce7c2ac214610863578063d5abeb0114610899578063d79779b2146108af578063da3ef23f146108e557600080fd5b8063a22cb46511610149578063b3ab66b011610123578063b3ab66b0146107d3578063b88d4fde146107e6578063c4088d6814610806578063c4ae31681461081957600080fd5b8063a22cb4651461077c578063a45063c01461079c578063a475b5dd146107be57600080fd5b80637cb64759146106a65780638b83209b146106c65780638cc4de19146106e65780638da5cb5b1461071357806395d89b41146107315780639852595c1461074657600080fd5b806342842e0e1161024f5780636352211e1161020857806370a08231116101e257806370a082311461062f578063715018a61461064f57806377a38c1a146106645780637857ee421461067957600080fd5b80636352211e146105da578063638df30b146105fa5780636c0360eb1461061a57600080fd5b806342842e0e1461052b57806348b750441461054b5780634df34e781461056b578063518302271461058157806355f804b3146105a05780635c975abb146105c057600080fd5b806318160ddd116102bc5780633439374311610296578063343937431461049b57806334d53b15146104b05780633a98ef39146104d0578063406072a9146104e557600080fd5b806318160ddd14610438578063191655871461045b57806323b872dd1461047b57600080fd5b806301ffc9a71461035157806306fdde0314610386578063081812fc146103a8578063081c8c44146103e0578063095ea7b3146103f55780631798d58b1461041757600080fd5b3661034c577f6ef95f06320e7a25a04a175ca677b7052bdd97131872c2192525a629f51be77033604080516001600160a01b0390921682523460208301520160405180910390a1005b600080fd5b34801561035d57600080fd5b5061037161036c366004612c0f565b6109b8565b60405190151581526020015b60405180910390f35b34801561039257600080fd5b5061039b610a0a565b60405161037d9190612c84565b3480156103b457600080fd5b506103c86103c3366004612c97565b610a9c565b6040516001600160a01b03909116815260200161037d565b3480156103ec57600080fd5b5061039b610b36565b34801561040157600080fd5b50610415610410366004612cc5565b610bc4565b005b34801561042357600080fd5b50601654610371906301000000900460ff1681565b34801561044457600080fd5b5061044d610cda565b60405190815260200161037d565b34801561046757600080fd5b50610415610476366004612cf1565b610cea565b34801561048757600080fd5b50610415610496366004612d0e565b610e18565b3480156104a757600080fd5b50610415610e49565b3480156104bc57600080fd5b506016546103719062010000900460ff1681565b3480156104dc57600080fd5b5060085461044d565b3480156104f157600080fd5b5061044d610500366004612d4f565b6001600160a01b039182166000908152600e6020908152604080832093909416825291909152205490565b34801561053757600080fd5b50610415610546366004612d0e565b610e94565b34801561055757600080fd5b50610415610566366004612d4f565b610eaf565b34801561057757600080fd5b5061044d60105481565b34801561058d57600080fd5b5060165461037190610100900460ff1681565b3480156105ac57600080fd5b506104156105bb366004612e14565b611097565b3480156105cc57600080fd5b506016546103719060ff1681565b3480156105e657600080fd5b506103c86105f5366004612c97565b6110d8565b34801561060657600080fd5b50610415610615366004612c97565b61114f565b34801561062657600080fd5b5061039b61117e565b34801561063b57600080fd5b5061044d61064a366004612cf1565b61118b565b34801561065b57600080fd5b50610415611212565b34801561067057600080fd5b50610415611248565b34801561068557600080fd5b5061044d610694366004612cf1565b60196020526000908152604090205481565b3480156106b257600080fd5b506104156106c1366004612c97565b611291565b3480156106d257600080fd5b506103c86106e1366004612c97565b6112c0565b3480156106f257600080fd5b5061044d610701366004612cf1565b601a6020526000908152604090205481565b34801561071f57600080fd5b506006546001600160a01b03166103c8565b34801561073d57600080fd5b5061039b6112f0565b34801561075257600080fd5b5061044d610761366004612cf1565b6001600160a01b03166000908152600b602052604090205490565b34801561078857600080fd5b50610415610797366004612e6b565b6112ff565b3480156107a857600080fd5b5060165461037190640100000000900460ff1681565b3480156107ca57600080fd5b5061041561130a565b6104156107e1366004612c97565b611345565b3480156107f257600080fd5b50610415610801366004612e99565b6114f6565b610415610814366004612f19565b61152e565b34801561082557600080fd5b5061041561180c565b34801561083a57600080fd5b5061039b61184a565b34801561084f57600080fd5b5061039b61085e366004612c97565b611857565b34801561086f57600080fd5b5061044d61087e366004612cf1565b6001600160a01b03166000908152600a602052604090205490565b3480156108a557600080fd5b5061044d60125481565b3480156108bb57600080fd5b5061044d6108ca366004612cf1565b6001600160a01b03166000908152600d602052604090205490565b3480156108f157600080fd5b50610415610900366004612e14565b6119d6565b610415610913366004612f19565b611a13565b34801561092457600080fd5b50610415611c92565b34801561093957600080fd5b5060095461044d565b34801561094e57600080fd5b5061037161095d366004612d4f565b611cdf565b34801561096e57600080fd5b5061044d600f5481565b34801561098457600080fd5b50610415610993366004612e14565b611daf565b3480156109a457600080fd5b506104156109b3366004612cf1565b611dec565b60006001600160e01b031982166380ac58cd60e01b14806109e957506001600160e01b03198216635b5e139f60e01b145b80610a0457506301ffc9a760e01b6001600160e01b03198316145b92915050565b606060008054610a1990612fa5565b80601f0160208091040260200160405190810160405280929190818152602001828054610a4590612fa5565b8015610a925780601f10610a6757610100808354040283529160200191610a92565b820191906000526020600020905b815481529060010190602001808311610a7557829003601f168201915b5050505050905090565b6000818152600260205260408120546001600160a01b0316610b1a5760405162461bcd60e51b815260206004820152602c60248201527f4552433732313a20617070726f76656420717565727920666f72206e6f6e657860448201526b34b9ba32b73a103a37b5b2b760a11b60648201526084015b60405180910390fd5b506000908152600460205260409020546001600160a01b031690565b60148054610b4390612fa5565b80601f0160208091040260200160405190810160405280929190818152602001828054610b6f90612fa5565b8015610bbc5780601f10610b9157610100808354040283529160200191610bbc565b820191906000526020600020905b815481529060010190602001808311610b9f57829003601f168201915b505050505081565b6000610bcf826110d8565b9050806001600160a01b0316836001600160a01b03161415610c3d5760405162461bcd60e51b815260206004820152602160248201527f4552433732313a20617070726f76616c20746f2063757272656e74206f776e656044820152603960f91b6064820152608401610b11565b336001600160a01b0382161480610c595750610c598133611cdf565b610ccb5760405162461bcd60e51b815260206004820152603860248201527f4552433732313a20617070726f76652063616c6c6572206973206e6f74206f7760448201527f6e6572206e6f7220617070726f76656420666f7220616c6c00000000000000006064820152608401610b11565b610cd58383611e87565b505050565b6000610ce5601e5490565b905090565b6001600160a01b0381166000908152600a6020526040902054610d1f5760405162461bcd60e51b8152600401610b1190612fe0565b6000610d2a60095490565b610d34904761303c565b90506000610d618383610d5c866001600160a01b03166000908152600b602052604090205490565b611ef5565b905080610d805760405162461bcd60e51b8152600401610b1190613054565b6001600160a01b0383166000908152600b602052604081208054839290610da890849061303c565b925050819055508060096000828254610dc1919061303c565b90915550610dd190508382611f33565b604080516001600160a01b0385168152602081018390527fdf20fd1e76bc69d672e4814fafb2c449bba3a5369d8359adf9e05e6fde87b056910160405180910390a1505050565b610e22338261204c565b610e3e5760405162461bcd60e51b8152600401610b119061309f565b610cd583838361211b565b6006546001600160a01b03163314610e735760405162461bcd60e51b8152600401610b11906130f0565b6016805463ff00000019811663010000009182900460ff1615909102179055565b610cd5838383604051806020016040528060008152506114f6565b6001600160a01b0381166000908152600a6020526040902054610ee45760405162461bcd60e51b8152600401610b1190612fe0565b6001600160a01b0382166000908152600d60205260408120546040516370a0823160e01b81523060048201526001600160a01b038516906370a082319060240160206040518083038186803b158015610f3c57600080fd5b505afa158015610f50573d6000803e3d6000fd5b505050506040513d601f19601f82011682018060405250810190610f749190613125565b610f7e919061303c565b90506000610fb78383610d5c87876001600160a01b039182166000908152600e6020908152604080832093909416825291909152205490565b905080610fd65760405162461bcd60e51b8152600401610b1190613054565b6001600160a01b038085166000908152600e602090815260408083209387168352929052908120805483929061100d90849061303c565b90915550506001600160a01b0384166000908152600d60205260408120805483929061103a90849061303c565b9091555061104b90508484836122b7565b604080516001600160a01b038581168252602082018490528616917f3be5b7a71e84ed12875d241991c70855ac5817d847039e17a9d895c1ceb0f18a910160405180910390a250505050565b6006546001600160a01b031633146110c15760405162461bcd60e51b8152600401610b11906130f0565b80516110d4906013906020840190612b60565b5050565b6000818152600260205260408120546001600160a01b031680610a045760405162461bcd60e51b815260206004820152602960248201527f4552433732313a206f776e657220717565727920666f72206e6f6e657869737460448201526832b73a103a37b5b2b760b91b6064820152608401610b11565b6006546001600160a01b031633146111795760405162461bcd60e51b8152600401610b11906130f0565b601055565b60138054610b4390612fa5565b60006001600160a01b0382166111f65760405162461bcd60e51b815260206004820152602a60248201527f4552433732313a2062616c616e636520717565727920666f7220746865207a65604482015269726f206164647265737360b01b6064820152608401610b11565b506001600160a01b031660009081526003602052604090205490565b6006546001600160a01b0316331461123c5760405162461bcd60e51b8152600401610b11906130f0565b6112466000612309565b565b6006546001600160a01b031633146112725760405162461bcd60e51b8152600401610b11906130f0565b6016805462ff0000198116620100009182900460ff1615909102179055565b6006546001600160a01b031633146112bb5760405162461bcd60e51b8152600401610b11906130f0565b600f55565b6000600c82815481106112d5576112d561313e565b6000918252602090912001546001600160a01b031692915050565b606060018054610a1990612fa5565b6110d433838361235b565b6006546001600160a01b031633146113345760405162461bcd60e51b8152600401610b11906130f0565b6016805461ff001916610100179055565b3332146113645760405162461bcd60e51b8152600401610b1190613154565b601654640100000000900460ff166113be5760405162461bcd60e51b815260206004820181905260248201527f417869616c47656e657369733a205075626c6963204d696e74206973204f46466044820152606401610b11565b60165460ff16156113e15760405162461bcd60e51b8152600401610b1190613180565b600081116114315760405162461bcd60e51b815260206004820152601960248201527f417869616c47656e657369733a207a65726f20616d6f756e74000000000000006044820152606401610b11565b600061143c601e5490565b60125490915061144c838361303c565b11156114a45760405162461bcd60e51b815260206004820152602160248201527f417869616c47656e657369733a204d617820737570706c7920657863656564656044820152601960fa1b6064820152608401610b11565b3482601b546114b391906131b5565b11156114d15760405162461bcd60e51b8152600401610b11906131d4565b60005b82811015610cd5576114e461242a565b806114ee81613218565b9150506114d4565b611500338361204c565b61151c5760405162461bcd60e51b8152600401610b119061309f565b611528848484846124af565b50505050565b81816115a6828280806020026020016040519081016040528093929190818152602001838360200280828437600092019190915250506010546040516bffffffffffffffffffffffff193360601b16602082015290925060340190505b604051602081830303815290604052805190602001206124e2565b15156001146115c75760405162461bcd60e51b8152600401610b1190613154565b3332146115e65760405162461bcd60e51b8152600401610b1190613154565b336001600160a01b0387161461163a5760405162461bcd60e51b8152602060048201526019602482015278105e1a585b11d95b995cda5cce88139bdd08185b1b1bddd959603a1b6044820152606401610b11565b60165462010000900460ff166116925760405162461bcd60e51b815260206004820152601c60248201527f417869616c47656e657369733a204f47204d696e74206973204f4646000000006044820152606401610b11565b60165460ff16156116b55760405162461bcd60e51b8152600401610b1190613180565b6017548511156116d75760405162461bcd60e51b8152600401610b1190613233565b601754336000908152601960205260409020546116f590879061303c565b11156117525760405162461bcd60e51b815260206004820152602660248201527f417869616c47656e657369733a204f6e6c7920322046726565204d696e747320604482015265706572204f4760d01b6064820152608401610b11565b600061175d601e5490565b60125490915061176d878361303c565b111561178b5760405162461bcd60e51b8152600401610b1190613280565b3486601c5461179a91906131b5565b11156117b85760405162461bcd60e51b8152600401610b11906131d4565b33600090815260196020526040812080548892906117d790849061303c565b90915550600090505b86811015611802576117f061242a565b806117fa81613218565b9150506117e0565b5050505050505050565b6006546001600160a01b031633146118365760405162461bcd60e51b8152600401610b11906130f0565b6016805460ff19811660ff90911615179055565b60158054610b4390612fa5565b6000818152600260205260409020546060906001600160a01b03166118d65760405162461bcd60e51b815260206004820152602f60248201527f4552433732314d657461646174613a2055524920717565727920666f72206e6f60448201526e3732bc34b9ba32b73a103a37b5b2b760891b6064820152608401610b11565b601654610100900460ff1661197757601480546118f290612fa5565b80601f016020809104026020016040519081016040528092919081815260200182805461191e90612fa5565b801561196b5780601f106119405761010080835404028352916020019161196b565b820191906000526020600020905b81548152906001019060200180831161194e57829003601f168201915b50505050509050919050565b60006119816124f8565b905060008151116119a157604051806020016040528060008152506119cf565b806119ab84612507565b60156040516020016119bf939291906132c1565b6040516020818303038152906040525b9392505050565b6006546001600160a01b03163314611a005760405162461bcd60e51b8152600401610b11906130f0565b80516110d4906015906020840190612b60565b8181611a7482828080602002602001604051908101604052809392919081815260200183836020028082843760009201919091525050600f546040516bffffffffffffffffffffffff193360601b166020820152909250603401905061158b565b1515600114611a955760405162461bcd60e51b8152600401610b1190613154565b333214611ab45760405162461bcd60e51b8152600401610b1190613154565b336001600160a01b03871614611b085760405162461bcd60e51b8152602060048201526019602482015278105e1a585b11d95b995cda5cce88139bdd08185b1b1bddd959603a1b6044820152606401610b11565b6016546301000000900460ff16611b615760405162461bcd60e51b815260206004820152601c60248201527f417869616c47656e657369733a20574c204d696e74206973204f4646000000006044820152606401610b11565b60165460ff1615611b845760405162461bcd60e51b8152600401610b1190613180565b601854851115611ba65760405162461bcd60e51b8152600401610b1190613233565b601854336000908152601a6020526040902054611bc490879061303c565b1115611be25760405162461bcd60e51b8152600401610b1190613233565b6000611bed601e5490565b601254909150611bfd878361303c565b1115611c1b5760405162461bcd60e51b8152600401610b1190613280565b3486601b54611c2a91906131b5565b1115611c485760405162461bcd60e51b8152600401610b11906131d4565b336000908152601a602052604081208054889290611c6790849061303c565b90915550600090505b8681101561180257611c8061242a565b80611c8a81613218565b915050611c70565b6006546001600160a01b03163314611cbc5760405162461bcd60e51b8152600401610b11906130f0565b6016805464ff000000001981166401000000009182900460ff1615909102179055565b60115460405163c455279160e01b81526001600160a01b03848116600483015260009281169190841690829063c45527919060240160206040518083038186803b158015611d2c57600080fd5b505afa158015611d40573d6000803e3d6000fd5b505050506040513d601f19601f82011682018060405250810190611d649190613385565b6001600160a01b03161415611d7d576001915050610a04565b6001600160a01b0380851660009081526005602090815260408083209387168352929052205460ff165b949350505050565b6006546001600160a01b03163314611dd95760405162461bcd60e51b8152600401610b11906130f0565b80516110d4906014906020840190612b60565b6006546001600160a01b03163314611e165760405162461bcd60e51b8152600401610b11906130f0565b6001600160a01b038116611e7b5760405162461bcd60e51b815260206004820152602660248201527f4f776e61626c653a206e6577206f776e657220697320746865207a65726f206160448201526564647265737360d01b6064820152608401610b11565b611e8481612309565b50565b600081815260046020526040902080546001600160a01b0319166001600160a01b0384169081179091558190611ebc826110d8565b6001600160a01b03167f8c5be1e5ebec7d5bd14f71427d1e84f3dd0314c0f7b2291e5b200ac8c7c3b92560405160405180910390a45050565b6008546001600160a01b0384166000908152600a602052604081205490918391611f1f90866131b5565b611f2991906133b8565b611da791906133cc565b80471015611f835760405162461bcd60e51b815260206004820152601d60248201527f416464726573733a20696e73756666696369656e742062616c616e63650000006044820152606401610b11565b6000826001600160a01b03168260405160006040518083038185875af1925050503d8060008114611fd0576040519150601f19603f3d011682016040523d82523d6000602084013e611fd5565b606091505b5050905080610cd55760405162461bcd60e51b815260206004820152603a60248201527f416464726573733a20756e61626c6520746f2073656e642076616c75652c207260448201527f6563697069656e74206d617920686176652072657665727465640000000000006064820152608401610b11565b6000818152600260205260408120546001600160a01b03166120c55760405162461bcd60e51b815260206004820152602c60248201527f4552433732313a206f70657261746f7220717565727920666f72206e6f6e657860448201526b34b9ba32b73a103a37b5b2b760a11b6064820152608401610b11565b60006120d0836110d8565b9050806001600160a01b0316846001600160a01b0316148061210b5750836001600160a01b031661210084610a9c565b6001600160a01b0316145b80611da75750611da78185611cdf565b826001600160a01b031661212e826110d8565b6001600160a01b0316146121925760405162461bcd60e51b815260206004820152602560248201527f4552433732313a207472616e736665722066726f6d20696e636f72726563742060448201526437bbb732b960d91b6064820152608401610b11565b6001600160a01b0382166121f45760405162461bcd60e51b8152602060048201526024808201527f4552433732313a207472616e7366657220746f20746865207a65726f206164646044820152637265737360e01b6064820152608401610b11565b6121ff600082611e87565b6001600160a01b03831660009081526003602052604081208054600192906122289084906133cc565b90915550506001600160a01b038216600090815260036020526040812080546001929061225690849061303c565b909155505060008181526002602052604080822080546001600160a01b0319166001600160a01b0386811691821790925591518493918716917fddf252ad1be2c89b69c2b068fc378daa952ba7f163c4a11628f55a4df523b3ef91a4505050565b604080516001600160a01b038416602482015260448082018490528251808303909101815260649091019091526020810180516001600160e01b031663a9059cbb60e01b179052610cd5908490612605565b600680546001600160a01b038381166001600160a01b0319831681179093556040519116919082907f8be0079c531659141344cd1fd0a4f28419497f9722a3daafe3b4186f6b6457e090600090a35050565b816001600160a01b0316836001600160a01b031614156123bd5760405162461bcd60e51b815260206004820152601960248201527f4552433732313a20617070726f766520746f2063616c6c6572000000000000006044820152606401610b11565b6001600160a01b03838116600081815260056020908152604080832094871680845294825291829020805460ff191686151590811790915591519182527f17307eab39ab6107e8899845ad3d59bd9653f200f220920489ca2b5937696c31910160405180910390a3505050565b6002600754141561247d5760405162461bcd60e51b815260206004820152601f60248201527f5265656e7472616e637947756172643a207265656e7472616e742063616c6c006044820152606401610b11565b6002600755612490601e80546001019055565b600061249b601e5490565b90506124a733826126d7565b506001600755565b6124ba84848461211b565b6124c6848484846126f1565b6115285760405162461bcd60e51b8152600401610b11906133e3565b6000826124ef85846127fe565b14949350505050565b606060138054610a1990612fa5565b60608161252b5750506040805180820190915260018152600360fc1b602082015290565b8160005b8115612555578061253f81613218565b915061254e9050600a836133b8565b915061252f565b60008167ffffffffffffffff81111561257057612570612d88565b6040519080825280601f01601f19166020018201604052801561259a576020820181803683370190505b5090505b8415611da7576125af6001836133cc565b91506125bc600a86613435565b6125c790603061303c565b60f81b8183815181106125dc576125dc61313e565b60200101906001600160f81b031916908160001a9053506125fe600a866133b8565b945061259e565b600061265a826040518060400160405280602081526020017f5361666545524332303a206c6f772d6c6576656c2063616c6c206661696c6564815250856001600160a01b03166128729092919063ffffffff16565b805190915015610cd557808060200190518101906126789190613449565b610cd55760405162461bcd60e51b815260206004820152602a60248201527f5361666545524332303a204552433230206f7065726174696f6e20646964206e6044820152691bdd081cdd58d8d9595960b21b6064820152608401610b11565b6110d4828260405180602001604052806000815250612881565b60006001600160a01b0384163b156127f357604051630a85bd0160e11b81526001600160a01b0385169063150b7a0290612735903390899088908890600401613466565b602060405180830381600087803b15801561274f57600080fd5b505af192505050801561277f575060408051601f3d908101601f1916820190925261277c918101906134a3565b60015b6127d9573d8080156127ad576040519150601f19603f3d011682016040523d82523d6000602084013e6127b2565b606091505b5080516127d15760405162461bcd60e51b8152600401610b11906133e3565b805181602001fd5b6001600160e01b031916630a85bd0160e11b149050611da7565b506001949350505050565b600081815b845181101561286a5760008582815181106128205761282061313e565b602002602001015190508083116128465760008381526020829052604090209250612857565b600081815260208490526040902092505b508061286281613218565b915050612803565b509392505050565b6060611da784846000856128b4565b61288b83836129e5565b61289860008484846126f1565b610cd55760405162461bcd60e51b8152600401610b11906133e3565b6060824710156129155760405162461bcd60e51b815260206004820152602660248201527f416464726573733a20696e73756666696369656e742062616c616e636520666f6044820152651c8818d85b1b60d21b6064820152608401610b11565b6001600160a01b0385163b61296c5760405162461bcd60e51b815260206004820152601d60248201527f416464726573733a2063616c6c20746f206e6f6e2d636f6e74726163740000006044820152606401610b11565b600080866001600160a01b0316858760405161298891906134c0565b60006040518083038185875af1925050503d80600081146129c5576040519150601f19603f3d011682016040523d82523d6000602084013e6129ca565b606091505b50915091506129da828286612b27565b979650505050505050565b6001600160a01b038216612a3b5760405162461bcd60e51b815260206004820181905260248201527f4552433732313a206d696e7420746f20746865207a65726f20616464726573736044820152606401610b11565b6000818152600260205260409020546001600160a01b031615612aa05760405162461bcd60e51b815260206004820152601c60248201527f4552433732313a20746f6b656e20616c7265616479206d696e746564000000006044820152606401610b11565b6001600160a01b0382166000908152600360205260408120805460019290612ac990849061303c565b909155505060008181526002602052604080822080546001600160a01b0319166001600160a01b03861690811790915590518392907fddf252ad1be2c89b69c2b068fc378daa952ba7f163c4a11628f55a4df523b3ef908290a45050565b60608315612b365750816119cf565b825115612b465782518084602001fd5b8160405162461bcd60e51b8152600401610b119190612c84565b828054612b6c90612fa5565b90600052602060002090601f016020900481019282612b8e5760008555612bd4565b82601f10612ba757805160ff1916838001178555612bd4565b82800160010185558215612bd4579182015b82811115612bd4578251825591602001919060010190612bb9565b50612be0929150612be4565b5090565b5b80821115612be05760008155600101612be5565b6001600160e01b031981168114611e8457600080fd5b600060208284031215612c2157600080fd5b81356119cf81612bf9565b60005b83811015612c47578181015183820152602001612c2f565b838111156115285750506000910152565b60008151808452612c70816020860160208601612c2c565b601f01601f19169290920160200192915050565b6020815260006119cf6020830184612c58565b600060208284031215612ca957600080fd5b5035919050565b6001600160a01b0381168114611e8457600080fd5b60008060408385031215612cd857600080fd5b8235612ce381612cb0565b946020939093013593505050565b600060208284031215612d0357600080fd5b81356119cf81612cb0565b600080600060608486031215612d2357600080fd5b8335612d2e81612cb0565b92506020840135612d3e81612cb0565b929592945050506040919091013590565b60008060408385031215612d6257600080fd5b8235612d6d81612cb0565b91506020830135612d7d81612cb0565b809150509250929050565b634e487b7160e01b600052604160045260246000fd5b600067ffffffffffffffff80841115612db957612db9612d88565b604051601f8501601f19908116603f01168101908282118183101715612de157612de1612d88565b81604052809350858152868686011115612dfa57600080fd5b858560208301376000602087830101525050509392505050565b600060208284031215612e2657600080fd5b813567ffffffffffffffff811115612e3d57600080fd5b8201601f81018413612e4e57600080fd5b611da784823560208401612d9e565b8015158114611e8457600080fd5b60008060408385031215612e7e57600080fd5b8235612e8981612cb0565b91506020830135612d7d81612e5d565b60008060008060808587031215612eaf57600080fd5b8435612eba81612cb0565b93506020850135612eca81612cb0565b925060408501359150606085013567ffffffffffffffff811115612eed57600080fd5b8501601f81018713612efe57600080fd5b612f0d87823560208401612d9e565b91505092959194509250565b60008060008060608587031215612f2f57600080fd5b8435612f3a81612cb0565b935060208501359250604085013567ffffffffffffffff80821115612f5e57600080fd5b818701915087601f830112612f7257600080fd5b813581811115612f8157600080fd5b8860208260051b8501011115612f9657600080fd5b95989497505060200194505050565b600181811c90821680612fb957607f821691505b60208210811415612fda57634e487b7160e01b600052602260045260246000fd5b50919050565b60208082526026908201527f5061796d656e7453706c69747465723a206163636f756e7420686173206e6f2060408201526573686172657360d01b606082015260800190565b634e487b7160e01b600052601160045260246000fd5b6000821982111561304f5761304f613026565b500190565b6020808252602b908201527f5061796d656e7453706c69747465723a206163636f756e74206973206e6f742060408201526a191d59481c185e5b595b9d60aa1b606082015260800190565b60208082526031908201527f4552433732313a207472616e736665722063616c6c6572206973206e6f74206f6040820152701ddb995c881b9bdc88185c1c1c9bdd9959607a1b606082015260800190565b6020808252818101527f4f776e61626c653a2063616c6c6572206973206e6f7420746865206f776e6572604082015260600190565b60006020828403121561313757600080fd5b5051919050565b634e487b7160e01b600052603260045260246000fd5b6020808252601290820152712737ba1030b63637bbb2b21037b934b3b4b760711b604082015260600190565b6020808252818101527f417869616c47656e657369733a20436f6e747261637420697320706175736564604082015260600190565b60008160001904831182151516156131cf576131cf613026565b500290565b60208082526024908201527f417869616c47656e657369733a204e6f7420656e6f75676820657468657273206040820152631cd95b9d60e21b606082015260800190565b600060001982141561322c5761322c613026565b5060010190565b6020808252602d908201527f417869616c47656e657369733a20596f752063616e206e6f74206d696e74207360408201526c6f206d75636820746f6b656e7360981b606082015260800190565b60208082526021908201527f417869616c47656e657369733a206d617820737570706c7920657863656564656040820152601960fa1b606082015260800190565b6000845160206132d48285838a01612c2c565b8551918401916132e78184848a01612c2c565b8554920191600090600181811c908083168061330457607f831692505b85831081141561332257634e487b7160e01b85526022600452602485fd5b808015613336576001811461334757613374565b60ff19851688528388019550613374565b60008b81526020902060005b8581101561336c5781548a820152908401908801613353565b505083880195505b50939b9a5050505050505050505050565b60006020828403121561339757600080fd5b81516119cf81612cb0565b634e487b7160e01b600052601260045260246000fd5b6000826133c7576133c76133a2565b500490565b6000828210156133de576133de613026565b500390565b60208082526032908201527f4552433732313a207472616e7366657220746f206e6f6e20455243373231526560408201527131b2b4bb32b91034b6b83632b6b2b73a32b960711b606082015260800190565b600082613444576134446133a2565b500690565b60006020828403121561345b57600080fd5b81516119cf81612e5d565b6001600160a01b038581168252841660208201526040810183905260806060820181905260009061349990830184612c58565b9695505050505050565b6000602082840312156134b557600080fd5b81516119cf81612bf9565b600082516134d2818460208701612c2c565b919091019291505056fea264697066735822122048daf297d3b0f15bea90d4c873b673abc7f656e5902535ecb1eb3dc316412d5064736f6c63430008090033697066733a2f2f516d62746831446478656a4d357177434c7272376d50586d575056347164457a504355326642336b536d7563636e2f68696464656e2e6a736f6e",
  "linkReferences": {},
  "deployedLinkReferences": {}
}