{
  "_format": "hh-sol-artifact-1",
  "contractName": "CrystalFrogsV2",
  "sourceName": "contracts/CrystalFrogsV2.sol",
  "abi": [
    {
      "inputs": [
        {
          "internalType": "string",
          "name": "uri",
          "type": "string"
        },
        {
          "internalType": "bytes32",
          "name": "merkleroot",
          "type": "bytes32"
        },
        {
          "internalType": "bytes32",
          "name": "genesisMerkleRoot",
          "type": "bytes32"
        },
        {
          "internalType": "address",
          "name": "_proxyRegistryAddress",
          "type": "address"
        }
      ],
      "stateMutability": "nonpayable",
      "type": "constructor"
    },
    {
      "anonymous": false,
      "inputs": [
        {
          "indexed": true,
          "internalType": "address",
          "name": "owner",
          "type": "address"
        },
        {
          "indexed": true,
          "internalType": "address",
          "name": "approved",
          "type": "address"
        },
        {
          "indexed": true,
          "internalType": "uint256",
          "name": "tokenId",
          "type": "uint256"
        }
      ],
      "name": "Approval",
      "type": "event"
    },
    {
      "anonymous": false,
      "inputs": [
        {
          "indexed": true,
          "internalType": "address",
          "name": "owner",
          "type": "address"
        },
        {
          "indexed": true,
          "internalType": "address",
          "name": "operator",
          "type": "address"
        },
        {
          "indexed": false,
          "internalType": "bool",
          "name": "approved",
          "type": "bool"
        }
      ],
      "name": "ApprovalForAll",
      "type": "event"
    },
    {
      "anonymous": false,
      "inputs": [
        {
          "indexed": true,
          "internalType": "contract IERC20",
          "name": "token",
          "type": "address"
        },
        {
          "indexed": false,
          "internalType": "address",
          "name": "to",
          "type": "address"
        },
        {
          "indexed": false,
          "internalType": "uint256",
          "name": "amount",
          "type": "uint256"
        }
      ],
      "name": "ERC20PaymentReleased",
      "type": "event"
    },
    {
      "anonymous": false,
      "inputs": [
        {
          "indexed": true,
          "internalType": "address",
          "name": "previousOwner",
          "type": "address"
        },
        {
          "indexed": true,
          "internalType": "address",
          "name": "newOwner",
          "type": "address"
        }
      ],
      "name": "OwnershipTransferred",
      "type": "event"
    },
    {
      "anonymous": false,
      "inputs": [
        {
          "indexed": false,
          "internalType": "address",
          "name": "account",
          "type": "address"
        },
        {
          "indexed": false,
          "internalType": "uint256",
          "name": "shares",
          "type": "uint256"
        }
      ],
      "name": "PayeeAdded",
      "type": "event"
    },
    {
      "anonymous": false,
      "inputs": [
        {
          "indexed": false,
          "internalType": "address",
          "name": "from",
          "type": "address"
        },
        {
          "indexed": false,
          "internalType": "uint256",
          "name": "amount",
          "type": "uint256"
        }
      ],
      "name": "PaymentReceived",
      "type": "event"
    },
    {
      "anonymous": false,
      "inputs": [
        {
          "indexed": false,
          "internalType": "address",
          "name": "to",
          "type": "address"
        },
        {
          "indexed": false,
          "internalType": "uint256",
          "name": "amount",
          "type": "uint256"
        }
      ],
      "name": "PaymentReleased",
      "type": "event"
    },
    {
      "anonymous": false,
      "inputs": [
        {
          "indexed": true,
          "internalType": "address",
          "name": "from",
          "type": "address"
        },
        {
          "indexed": true,
          "internalType": "address",
          "name": "to",
          "type": "address"
        },
        {
          "indexed": true,
          "internalType": "uint256",
          "name": "tokenId",
          "type": "uint256"
        }
      ],
      "name": "Transfer",
      "type": "event"
    },
    {
      "inputs": [
        {
          "internalType": "address",
          "name": "",
          "type": "address"
        }
      ],
      "name": "_genesisClaimed",
      "outputs": [
        {
          "internalType": "uint256",
          "name": "",
          "type": "uint256"
        }
      ],
      "stateMutability": "view",
      "type": "function"
    },
    {
      "inputs": [
        {
          "internalType": "address",
          "name": "",
          "type": "address"
        }
      ],
      "name": "_presaleClaimed",
      "outputs": [
        {
          "internalType": "uint256",
          "name": "",
          "type": "uint256"
        }
      ],
      "stateMutability": "view",
      "type": "function"
    },
    {
      "inputs": [
        {
          "internalType": "address",
          "name": "to",
          "type": "address"
        },
        {
          "internalType": "uint256",
          "name": "tokenId",
          "type": "uint256"
        }
      ],
      "name": "approve",
      "outputs": [],
      "stateMutability": "nonpayable",
      "type": "function"
    },
    {
      "inputs": [
        {
          "internalType": "address",
          "name": "owner",
          "type": "address"
        }
      ],
      "name": "balanceOf",
      "outputs": [
        {
          "internalType": "uint256",
          "name": "",
          "type": "uint256"
        }
      ],
      "stateMutability": "view",
      "type": "function"
    },
    {
      "inputs": [],
      "name": "baseExtension",
      "outputs": [
        {
          "internalType": "string",
          "name": "",
          "type": "string"
        }
      ],
      "stateMutability": "view",
      "type": "function"
    },
    {
      "inputs": [],
      "name": "baseURI",
      "outputs": [
        {
          "internalType": "string",
          "name": "",
          "type": "string"
        }
      ],
      "stateMutability": "view",
      "type": "function"
    },
    {
      "inputs": [],
      "name": "genesisRoot",
      "outputs": [
        {
          "internalType": "bytes32",
          "name": "",
          "type": "bytes32"
        }
      ],
      "stateMutability": "view",
      "type": "function"
    },
    {
      "inputs": [
        {
          "internalType": "address",
          "name": "account",
          "type": "address"
        },
        {
          "internalType": "uint256",
          "name": "_amount",
          "type": "uint256"
        },
        {
          "internalType": "bytes32[]",
          "name": "_proof",
          "type": "bytes32[]"
        }
      ],
      "name": "genesisSaleMint",
      "outputs": [],
      "stateMutability": "payable",
      "type": "function"
    },
    {
      "inputs": [],
      "name": "genesissaleM",
      "outputs": [
        {
          "internalType": "bool",
          "name": "",
          "type": "bool"
        }
      ],
      "stateMutability": "view",
      "type": "function"
    },
    {
      "inputs": [
        {
          "internalType": "uint256",
          "name": "tokenId",
          "type": "uint256"
        }
      ],
      "name": "getApproved",
      "outputs": [
        {
          "internalType": "address",
          "name": "",
          "type": "address"
        }
      ],
      "stateMutability": "view",
      "type": "function"
    },
    {
      "inputs": [
        {
          "internalType": "address",
          "name": "owner",
          "type": "address"
        },
        {
          "internalType": "address",
          "name": "operator",
          "type": "address"
        }
      ],
      "name": "isApprovedForAll",
      "outputs": [
        {
          "internalType": "bool",
          "name": "",
          "type": "bool"
        }
      ],
      "stateMutability": "view",
      "type": "function"
    },
    {
      "inputs": [],
      "name": "maxPublicMintLimit",
      "outputs": [
        {
          "internalType": "uint256",
          "name": "",
          "type": "uint256"
        }
      ],
      "stateMutability": "view",
      "type": "function"
    },
    {
      "inputs": [],
      "name": "maxSupply",
      "outputs": [
        {
          "internalType": "uint256",
          "name": "",
          "type": "uint256"
        }
      ],
      "stateMutability": "view",
      "type": "function"
    },
    {
      "inputs": [],
      "name": "name",
      "outputs": [
        {
          "internalType": "string",
          "name": "",
          "type": "string"
        }
      ],
      "stateMutability": "view",
      "type": "function"
    },
    {
      "inputs": [],
      "name": "notRevealedUri",
      "outputs": [
        {
          "internalType": "string",
          "name": "",
          "type": "string"
        }
      ],
      "stateMutability": "view",
      "type": "function"
    },
    {
      "inputs": [],
      "name": "owner",
      "outputs": [
        {
          "internalType": "address",
          "name": "",
          "type": "address"
        }
      ],
      "stateMutability": "view",
      "type": "function"
    },
    {
      "inputs": [
        {
          "internalType": "uint256",
          "name": "tokenId",
          "type": "uint256"
        }
      ],
      "name": "ownerOf",
      "outputs": [
        {
          "internalType": "address",
          "name": "",
          "type": "address"
        }
      ],
      "stateMutability": "view",
      "type": "function"
    },
    {
      "inputs": [],
      "name": "paused",
      "outputs": [
        {
          "internalType": "bool",
          "name": "",
          "type": "bool"
        }
      ],
      "stateMutability": "view",
      "type": "function"
    },
    {
      "inputs": [
        {
          "internalType": "uint256",
          "name": "index",
          "type": "uint256"
        }
      ],
      "name": "payee",
      "outputs": [
        {
          "internalType": "address",
          "name": "",
          "type": "address"
        }
      ],
      "stateMutability": "view",
      "type": "function"
    },
    {
      "inputs": [
        {
          "internalType": "address",
          "name": "account",
          "type": "address"
        },
        {
          "internalType": "uint256",
          "name": "_amount",
          "type": "uint256"
        },
        {
          "internalType": "bytes32[]",
          "name": "_proof",
          "type": "bytes32[]"
        }
      ],
      "name": "preSaleMint",
      "outputs": [],
      "stateMutability": "payable",
      "type": "function"
    },
    {
      "inputs": [],
      "name": "presaleM",
      "outputs": [
        {
          "internalType": "bool",
          "name": "",
          "type": "bool"
        }
      ],
      "stateMutability": "view",
      "type": "function"
    },
    {
      "inputs": [],
      "name": "publicM",
      "outputs": [
        {
          "internalType": "bool",
          "name": "",
          "type": "bool"
        }
      ],
      "stateMutability": "view",
      "type": "function"
    },
    {
      "inputs": [
        {
          "internalType": "uint256",
          "name": "_amount",
          "type": "uint256"
        }
      ],
      "name": "publicSaleMint",
      "outputs": [],
      "stateMutability": "payable",
      "type": "function"
    },
    {
      "inputs": [],
      "name": "publicSaleMinted",
      "outputs": [
        {
          "internalType": "uint256",
          "name": "",
          "type": "uint256"
        }
      ],
      "stateMutability": "view",
      "type": "function"
    },
    {
      "inputs": [
        {
          "internalType": "address",
          "name": "account",
          "type": "address"
        }
      ],
      "name": "releasable",
      "outputs": [
        {
          "internalType": "uint256",
          "name": "",
          "type": "uint256"
        }
      ],
      "stateMutability": "view",
      "type": "function"
    },
    {
      "inputs": [
        {
          "internalType": "contract IERC20",
          "name": "token",
          "type": "address"
        },
        {
          "internalType": "address",
          "name": "account",
          "type": "address"
        }
      ],
      "name": "releasable",
      "outputs": [
        {
          "internalType": "uint256",
          "name": "",
          "type": "uint256"
        }
      ],
      "stateMutability": "view",
      "type": "function"
    },
    {
      "inputs": [
        {
          "internalType": "address payable",
          "name": "account",
          "type": "address"
        }
      ],
      "name": "release",
      "outputs": [],
      "stateMutability": "nonpayable",
      "type": "function"
    },
    {
      "inputs": [
        {
          "internalType": "contract IERC20",
          "name": "token",
          "type": "address"
        },
        {
          "internalType": "address",
          "name": "account",
          "type": "address"
        }
      ],
      "name": "release",
      "outputs": [],
      "stateMutability": "nonpayable",
      "type": "function"
    },
    {
      "inputs": [
        {
          "internalType": "contract IERC20",
          "name": "token",
          "type": "address"
        },
        {
          "internalType": "address",
          "name": "account",
          "type": "address"
        }
      ],
      "name": "released",
      "outputs": [
        {
          "internalType": "uint256",
          "name": "",
          "type": "uint256"
        }
      ],
      "stateMutability": "view",
      "type": "function"
    },
    {
      "inputs": [
        {
          "internalType": "address",
          "name": "account",
          "type": "address"
        }
      ],
      "name": "released",
      "outputs": [
        {
          "internalType": "uint256",
          "name": "",
          "type": "uint256"
        }
      ],
      "stateMutability": "view",
      "type": "function"
    },
    {
      "inputs": [],
      "name": "renounceOwnership",
      "outputs": [],
      "stateMutability": "nonpayable",
      "type": "function"
    },
    {
      "inputs": [],
      "name": "reveal",
      "outputs": [],
      "stateMutability": "nonpayable",
      "type": "function"
    },
    {
      "inputs": [],
      "name": "revealed",
      "outputs": [
        {
          "internalType": "bool",
          "name": "",
          "type": "bool"
        }
      ],
      "stateMutability": "view",
      "type": "function"
    },
    {
      "inputs": [],
      "name": "root",
      "outputs": [
        {
          "internalType": "bytes32",
          "name": "",
          "type": "bytes32"
        }
      ],
      "stateMutability": "view",
      "type": "function"
    },
    {
      "inputs": [
        {
          "internalType": "address",
          "name": "from",
          "type": "address"
        },
        {
          "internalType": "address",
          "name": "to",
          "type": "address"
        },
        {
          "internalType": "uint256",
          "name": "tokenId",
          "type": "uint256"
        }
      ],
      "name": "safeTransferFrom",
      "outputs": [],
      "stateMutability": "nonpayable",
      "type": "function"
    },
    {
      "inputs": [
        {
          "internalType": "address",
          "name": "from",
          "type": "address"
        },
        {
          "internalType": "address",
          "name": "to",
          "type": "address"
        },
        {
          "internalType": "uint256",
          "name": "tokenId",
          "type": "uint256"
        },
        {
          "internalType": "bytes",
          "name": "data",
          "type": "bytes"
        }
      ],
      "name": "safeTransferFrom",
      "outputs": [],
      "stateMutability": "nonpayable",
      "type": "function"
    },
    {
      "inputs": [
        {
          "internalType": "address",
          "name": "operator",
          "type": "address"
        },
        {
          "internalType": "bool",
          "name": "approved",
          "type": "bool"
        }
      ],
      "name": "setApprovalForAll",
      "outputs": [],
      "stateMutability": "nonpayable",
      "type": "function"
    },
    {
      "inputs": [
        {
          "internalType": "string",
          "name": "_newBaseExtension",
          "type": "string"
        }
      ],
      "name": "setBaseExtension",
      "outputs": [],
      "stateMutability": "nonpayable",
      "type": "function"
    },
    {
      "inputs": [
        {
          "internalType": "string",
          "name": "_tokenBaseURI",
          "type": "string"
        }
      ],
      "name": "setBaseURI",
      "outputs": [],
      "stateMutability": "nonpayable",
      "type": "function"
    },
    {
      "inputs": [
        {
          "internalType": "uint256",
          "name": "newLimit",
          "type": "uint256"
        }
      ],
      "name": "setGenesisAmountLimit",
      "outputs": [],
      "stateMutability": "nonpayable",
      "type": "function"
    },
    {
      "inputs": [
        {
          "internalType": "bytes32",
          "name": "genesisMerkleRoot",
          "type": "bytes32"
        }
      ],
      "name": "setGenesisMerkleRoot",
      "outputs": [],
      "stateMutability": "nonpayable",
      "type": "function"
    },
    {
      "inputs": [
        {
          "internalType": "uint256",
          "name": "newLimit",
          "type": "uint256"
        }
      ],
      "name": "setMaxPublicMintLimit",
      "outputs": [],
      "stateMutability": "nonpayable",
      "type": "function"
    },
    {
      "inputs": [
        {
          "internalType": "uint256",
          "name": "newMaxSupply",
          "type": "uint256"
        }
      ],
      "name": "setMaxSupply",
      "outputs": [],
      "stateMutability": "nonpayable",
      "type": "function"
    },
    {
      "inputs": [
        {
          "internalType": "bytes32",
          "name": "merkleroot",
          "type": "bytes32"
        }
      ],
      "name": "setMerkleRoot",
      "outputs": [],
      "stateMutability": "nonpayable",
      "type": "function"
    },
    {
      "inputs": [
        {
          "internalType": "string",
          "name": "_notRevealedURI",
          "type": "string"
        }
      ],
      "name": "setNotRevealedURI",
      "outputs": [],
      "stateMutability": "nonpayable",
      "type": "function"
    },
    {
      "inputs": [
        {
          "internalType": "uint256",
          "name": "newLimit",
          "type": "uint256"
        }
      ],
      "name": "setPreSaleAmountLimit",
      "outputs": [],
      "stateMutability": "nonpayable",
      "type": "function"
    },
    {
      "inputs": [
        {
          "internalType": "uint256",
          "name": "newPrice",
          "type": "uint256"
        }
      ],
      "name": "setPrice",
      "outputs": [],
      "stateMutability": "nonpayable",
      "type": "function"
    },
    {
      "inputs": [
        {
          "internalType": "address",
          "name": "account",
          "type": "address"
        }
      ],
      "name": "shares",
      "outputs": [
        {
          "internalType": "uint256",
          "name": "",
          "type": "uint256"
        }
      ],
      "stateMutability": "view",
      "type": "function"
    },
    {
      "inputs": [
        {
          "internalType": "bytes4",
          "name": "interfaceId",
          "type": "bytes4"
        }
      ],
      "name": "supportsInterface",
      "outputs": [
        {
          "internalType": "bool",
          "name": "",
          "type": "bool"
        }
      ],
      "stateMutability": "view",
      "type": "function"
    },
    {
      "inputs": [],
      "name": "symbol",
      "outputs": [
        {
          "internalType": "string",
          "name": "",
          "type": "string"
        }
      ],
      "stateMutability": "view",
      "type": "function"
    },
    {
      "inputs": [],
      "name": "toggleGenesisSale",
      "outputs": [],
      "stateMutability": "nonpayable",
      "type": "function"
    },
    {
      "inputs": [],
      "name": "togglePause",
      "outputs": [],
      "stateMutability": "nonpayable",
      "type": "function"
    },
    {
      "inputs": [],
      "name": "togglePresale",
      "outputs": [],
      "stateMutability": "nonpayable",
      "type": "function"
    },
    {
      "inputs": [],
      "name": "togglePublicSale",
      "outputs": [],
      "stateMutability": "nonpayable",
      "type": "function"
    },
    {
      "inputs": [
        {
          "internalType": "uint256",
          "name": "tokenId",
          "type": "uint256"
        }
      ],
      "name": "tokenURI",
      "outputs": [
        {
          "internalType": "string",
          "name": "",
          "type": "string"
        }
      ],
      "stateMutability": "view",
      "type": "function"
    },
    {
      "inputs": [
        {
          "internalType": "contract IERC20",
          "name": "token",
          "type": "address"
        }
      ],
      "name": "totalReleased",
      "outputs": [
        {
          "internalType": "uint256",
          "name": "",
          "type": "uint256"
        }
      ],
      "stateMutability": "view",
      "type": "function"
    },
    {
      "inputs": [],
      "name": "totalReleased",
      "outputs": [
        {
          "internalType": "uint256",
          "name": "",
          "type": "uint256"
        }
      ],
      "stateMutability": "view",
      "type": "function"
    },
    {
      "inputs": [],
      "name": "totalShares",
      "outputs": [
        {
          "internalType": "uint256",
          "name": "",
          "type": "uint256"
        }
      ],
      "stateMutability": "view",
      "type": "function"
    },
    {
      "inputs": [],
      "name": "totalSupply",
      "outputs": [
        {
          "internalType": "uint256",
          "name": "",
          "type": "uint256"
        }
      ],
      "stateMutability": "view",
      "type": "function"
    },
    {
      "inputs": [
        {
          "internalType": "address",
          "name": "from",
          "type": "address"
        },
        {
          "internalType": "address",
          "name": "to",
          "type": "address"
        },
        {
          "internalType": "uint256",
          "name": "tokenId",
          "type": "uint256"
        }
      ],
      "name": "transferFrom",
      "outputs": [],
      "stateMutability": "nonpayable",
      "type": "function"
    },
    {
      "inputs": [
        {
          "internalType": "address",
          "name": "newOwner",
          "type": "address"
        }
      ],
      "name": "transferOwnership",
      "outputs": [],
      "stateMutability": "nonpayable",
      "type": "function"
    },
    {
      "inputs": [
        {
          "internalType": "address[]",
          "name": "newAddresses",
          "type": "address[]"
        }
      ],
      "name": "updateTeamAddresses",
      "outputs": [],
      "stateMutability": "nonpayable",
      "type": "function"
    },
    {
      "stateMutability": "payable",
      "type": "receive"
    }
  ],
  "bytecode": "0x6111f860125561010060405260416080818152906200432060a0398051620000309160149160209091019062000704565b5060408051808201909152600580825264173539b7b760d91b60209092019182526200005f9160159162000704565b506016805464ffffffffff1916630101000017905560026017819055600560188190556019919091556101f4601c556000601e556040805160a08101825260148082526020808301829052928201819052606082018190526080820152620000c79262000793565b506040805160a08101825273e98bdb5f4b3a3845b47965b288546b8ac6e3ec4c81527399649cd8aceffd624dae2660559dd70bdf5ca8a1602082015273c1eb5acd614312bac05dc8595c18fed3ba043f249181019190915273f0318a36043a19d2a3690e88094c27a206fdf830606082015273af29ab7418516cc3f22e609dc783d75864ab545a608082015262000163906021906005620007d6565b503480156200017157600080fd5b506040516200436138038062004361833981016040819052620001949162000878565b6021805480602002602001604051908101604052809291908181526020018280548015620001ec57602002820191906000526020600020905b81546001600160a01b03168152600190910190602001808311620001cd575b505050505060208054806020026020016040519081016040528092919081815260200182805480156200023f57602002820191906000526020600020905b8154815260200190600101908083116200022a575b5050604080518082018252600e81526d21b93cb9ba30b6233937b3b9ab1960911b60208083019182528351808501909452600584526446524f475360d81b9084015281519195509193506200029992506000919062000704565b508051620002af90600190602084019062000704565b505050620002cc620002c66200043f60201b60201c565b62000443565b60016007558051825114620003435760405162461bcd60e51b815260206004820152603260248201527f5061796d656e7453706c69747465723a2070617965657320616e6420736861726044820152710cae640d8cadccee8d040dad2e6dac2e8c6d60731b60648201526084015b60405180910390fd5b6000825111620003965760405162461bcd60e51b815260206004820152601a60248201527f5061796d656e7453706c69747465723a206e6f2070617965657300000000000060448201526064016200033a565b60005b82518110156200040257620003ed838281518110620003bc57620003bc6200097d565b6020026020010151838381518110620003d957620003d96200097d565b60200260200101516200049560201b60201c565b80620003f981620009a9565b91505062000399565b505050600f8390556010829055601180546001600160a01b0319166001600160a01b038316179055620004358462000683565b5050505062000a1f565b3390565b600680546001600160a01b038381166001600160a01b0319831681179093556040519116919082907f8be0079c531659141344cd1fd0a4f28419497f9722a3daafe3b4186f6b6457e090600090a35050565b6001600160a01b038216620005025760405162461bcd60e51b815260206004820152602c60248201527f5061796d656e7453706c69747465723a206163636f756e74206973207468652060448201526b7a65726f206164647265737360a01b60648201526084016200033a565b60008111620005545760405162461bcd60e51b815260206004820152601d60248201527f5061796d656e7453706c69747465723a2073686172657320617265203000000060448201526064016200033a565b6001600160a01b0382166000908152600a602052604090205415620005d05760405162461bcd60e51b815260206004820152602b60248201527f5061796d656e7453706c69747465723a206163636f756e7420616c726561647960448201526a206861732073686172657360a81b60648201526084016200033a565b600c8054600181019091557fdf6966c971051c3d54ec59162606531493a51404a002842f56009d7e5cf4a8c70180546001600160a01b0319166001600160a01b0384169081179091556000908152600a602052604090208190556008546200063a908290620009c7565b600855604080516001600160a01b0384168152602081018390527f40c340f65e17194d14ddddb073d3c9f888e3cb52b5aae0c6c7706b4fbc905fac910160405180910390a15050565b6200068d620006a6565b8051620006a290601390602084019062000704565b5050565b6006546001600160a01b03163314620007025760405162461bcd60e51b815260206004820181905260248201527f4f776e61626c653a2063616c6c6572206973206e6f7420746865206f776e657260448201526064016200033a565b565b8280546200071290620009e2565b90600052602060002090601f01602090048101928262000736576000855562000781565b82601f106200075157805160ff191683800117855562000781565b8280016001018555821562000781579182015b828111156200078157825182559160200191906001019062000764565b506200078f9291506200082e565b5090565b82805482825590600052602060002090810192821562000781579160200282015b8281111562000781578251829060ff16905591602001919060010190620007b4565b82805482825590600052602060002090810192821562000781579160200282015b828111156200078157825182546001600160a01b0319166001600160a01b03909116178255602090920191600190910190620007f7565b5b808211156200078f57600081556001016200082f565b634e487b7160e01b600052604160045260246000fd5b80516001600160a01b03811681146200087357600080fd5b919050565b600080600080608085870312156200088f57600080fd5b84516001600160401b0380821115620008a757600080fd5b818701915087601f830112620008bc57600080fd5b815181811115620008d157620008d162000845565b604051601f8201601f19908116603f01168101908382118183101715620008fc57620008fc62000845565b81604052828152602093508a848487010111156200091957600080fd5b600091505b828210156200093d57848201840151818301850152908301906200091e565b828211156200094f5760008484830101525b80985050505080870151945050506040850151915062000972606086016200085b565b905092959194509250565b634e487b7160e01b600052603260045260246000fd5b634e487b7160e01b600052601160045260246000fd5b6000600019821415620009c057620009c062000993565b5060010190565b60008219821115620009dd57620009dd62000993565b500190565b600181811c90821680620009f757607f821691505b6020821081141562000a1957634e487b7160e01b600052602260045260246000fd5b50919050565b6138f18062000a2f6000396000f3fe6080604052600436106103b15760003560e01c80639852595c116101e7578063c66828621161010d578063e1bff462116100a0578063e985e9c51161006f578063e985e9c514610b1c578063ebf0c71714610b3c578063f2c4ce1e14610b52578063f2fde38b14610b7257600080fd5b8063e1bff46214610ac9578063e222c7f914610adc578063e33b7de314610af1578063e6b27bb014610b0657600080fd5b8063d5abeb01116100dc578063d5abeb0114610a3d578063d79779b214610a53578063da3ef23f14610a89578063dc3e2a4214610aa957600080fd5b8063c6682862146109bc578063c7033721146109d1578063c87b56dd146109e7578063ce7c2ac214610a0757600080fd5b8063acf3318511610185578063bad63dec11610154578063bad63dec14610947578063bc28f16414610967578063c45ac05014610987578063c4ae3168146109a757600080fd5b8063acf33185146108e1578063b3ab66b014610901578063b88d4fde14610914578063b912cab01461093457600080fd5b8063a3f8eace116101c1578063a3f8eace14610874578063a45063c014610894578063a475b5dd146108b6578063a666098d146108cb57600080fd5b80639852595c146107fe5780639fbebe8114610834578063a22cb4651461085457600080fd5b8063488b19fb116102d757806370a082311161026a5780638cc4de19116102395780638cc4de191461077e5780638da5cb5b146107ab57806391b7f5ed146107c957806395d89b41146107e957600080fd5b806370a0823114610709578063715018a6146107295780637cb647591461073e5780638b83209b1461075e57600080fd5b80635c975abb116102a65780635c975abb1461069a5780636352211e146106b45780636c0360eb146106d45780636f8b44b0146106e957600080fd5b8063488b19fb1461061b57806348b750441461063b578063518302271461065b57806355f804b31461067a57600080fd5b806318160ddd1161034f578063343937431161031e578063343937431461058b5780633a98ef39146105a0578063406072a9146105b557806342842e0e146105fb57600080fd5b806318160ddd146104fb578063191655871461051e57806323b872dd1461053e578063341d09011461055e57600080fd5b8063081812fc1161038b578063081812fc1461046d578063081c8c44146104a5578063095ea7b3146104ba5780631798d58b146104da57600080fd5b806301ffc9a7146103ff57806302872cff1461043457806306fdde031461044b57600080fd5b366103fa577f6ef95f06320e7a25a04a175ca677b7052bdd97131872c2192525a629f51be77033604080516001600160a01b0390921682523460208301520160405180910390a1005b600080fd5b34801561040b57600080fd5b5061041f61041a366004612f26565b610b92565b60405190151581526020015b60405180910390f35b34801561044057600080fd5b50610449610be4565b005b34801561045757600080fd5b50610460610c0b565b60405161042b9190612f9b565b34801561047957600080fd5b5061048d610488366004612fae565b610c9d565b6040516001600160a01b03909116815260200161042b565b3480156104b157600080fd5b50610460610cc4565b3480156104c657600080fd5b506104496104d5366004612fdc565b610d52565b3480156104e657600080fd5b5060165461041f906301000000900460ff1681565b34801561050757600080fd5b50610510610e6d565b60405190815260200161042b565b34801561052a57600080fd5b50610449610539366004613008565b610e7d565b34801561054a57600080fd5b50610449610559366004613025565b610f61565b34801561056a57600080fd5b50610510610579366004613008565b601a6020526000908152604090205481565b34801561059757600080fd5b50610449610f92565b3480156105ac57600080fd5b50600854610510565b3480156105c157600080fd5b506105106105d0366004613066565b6001600160a01b039182166000908152600e6020908152604080832093909416825291909152205490565b34801561060757600080fd5b50610449610616366004613025565b610fbb565b34801561062757600080fd5b50610449610636366004612fae565b610fd6565b34801561064757600080fd5b50610449610656366004613066565b610fe3565b34801561066757600080fd5b5060165461041f90610100900460ff1681565b34801561068657600080fd5b5061044961069536600461313e565b6110f1565b3480156106a657600080fd5b5060165461041f9060ff1681565b3480156106c057600080fd5b5061048d6106cf366004612fae565b611110565b3480156106e057600080fd5b50610460611170565b3480156106f557600080fd5b50610449610704366004612fae565b61117d565b34801561071557600080fd5b50610510610724366004613008565b61118a565b34801561073557600080fd5b50610449611210565b34801561074a57600080fd5b50610449610759366004612fae565b611224565b34801561076a57600080fd5b5061048d610779366004612fae565b611231565b34801561078a57600080fd5b50610510610799366004613008565b601b6020526000908152604090205481565b3480156107b757600080fd5b506006546001600160a01b031661048d565b3480156107d557600080fd5b506104496107e4366004612fae565b611261565b3480156107f557600080fd5b5061046061126e565b34801561080a57600080fd5b50610510610819366004613008565b6001600160a01b03166000908152600b602052604090205490565b34801561084057600080fd5b5061044961084f366004612fae565b61127d565b34801561086057600080fd5b5061044961086f366004613195565b61128a565b34801561088057600080fd5b5061051061088f366004613008565b611295565b3480156108a057600080fd5b5060165461041f90640100000000900460ff1681565b3480156108c257600080fd5b506104496112dd565b3480156108d757600080fd5b50610510601d5481565b3480156108ed57600080fd5b506104496108fc366004612fae565b6112f6565b61044961090f366004612fae565b611303565b34801561092057600080fd5b5061044961092f3660046131c3565b6115a3565b610449610942366004613243565b6115db565b34801561095357600080fd5b50610449610962366004612fae565b6118d2565b34801561097357600080fd5b506104496109823660046132cf565b6118df565b34801561099357600080fd5b506105106109a2366004613066565b6119b9565b3480156109b357600080fd5b50610449611a93565b3480156109c857600080fd5b50610460611aaf565b3480156109dd57600080fd5b5061051060105481565b3480156109f357600080fd5b50610460610a02366004612fae565b611abc565b348015610a1357600080fd5b50610510610a22366004613008565b6001600160a01b03166000908152600a602052604090205490565b348015610a4957600080fd5b5061051060125481565b348015610a5f57600080fd5b50610510610a6e366004613008565b6001600160a01b03166000908152600d602052604090205490565b348015610a9557600080fd5b50610449610aa436600461313e565b611c3a565b348015610ab557600080fd5b5060165461041f9062010000900460ff1681565b610449610ad7366004613243565b611c55565b348015610ae857600080fd5b50610449611f1b565b348015610afd57600080fd5b50600954610510565b348015610b1257600080fd5b50610510601c5481565b348015610b2857600080fd5b5061041f610b37366004613066565b611f58565b348015610b4857600080fd5b50610510600f5481565b348015610b5e57600080fd5b50610449610b6d36600461313e565b612024565b348015610b7e57600080fd5b50610449610b8d366004613008565b61203f565b60006001600160e01b031982166380ac58cd60e01b1480610bc357506001600160e01b03198216635b5e139f60e01b145b80610bde57506301ffc9a760e01b6001600160e01b03198316145b92915050565b610bec6120b8565b6016805462ff0000198116620100009182900460ff1615909102179055565b606060008054610c1a90613381565b80601f0160208091040260200160405190810160405280929190818152602001828054610c4690613381565b8015610c935780601f10610c6857610100808354040283529160200191610c93565b820191906000526020600020905b815481529060010190602001808311610c7657829003601f168201915b5050505050905090565b6000610ca882612112565b506000908152600460205260409020546001600160a01b031690565b60148054610cd190613381565b80601f0160208091040260200160405190810160405280929190818152602001828054610cfd90613381565b8015610d4a5780601f10610d1f57610100808354040283529160200191610d4a565b820191906000526020600020905b815481529060010190602001808311610d2d57829003601f168201915b505050505081565b6000610d5d82611110565b9050806001600160a01b0316836001600160a01b03161415610dd05760405162461bcd60e51b815260206004820152602160248201527f4552433732313a20617070726f76616c20746f2063757272656e74206f776e656044820152603960f91b60648201526084015b60405180910390fd5b336001600160a01b0382161480610dec5750610dec8133611f58565b610e5e5760405162461bcd60e51b815260206004820152603d60248201527f4552433732313a20617070726f76652063616c6c6572206973206e6f7420746f60448201527f6b656e206f776e6572206f7220617070726f76656420666f7220616c6c0000006064820152608401610dc7565b610e688383612171565b505050565b6000610e78601f5490565b905090565b6001600160a01b0381166000908152600a6020526040902054610eb25760405162461bcd60e51b8152600401610dc7906133bc565b6000610ebd82611295565b905080610edc5760405162461bcd60e51b8152600401610dc790613402565b8060096000828254610eee9190613463565b90915550506001600160a01b0382166000908152600b60205260409020805482019055610f1b82826121df565b604080516001600160a01b0384168152602081018390527fdf20fd1e76bc69d672e4814fafb2c449bba3a5369d8359adf9e05e6fde87b056910160405180910390a15050565b610f6b33826122f8565b610f875760405162461bcd60e51b8152600401610dc79061347b565b610e68838383612356565b610f9a6120b8565b6016805463ff00000019811663010000009182900460ff1615909102179055565b610e68838383604051806020016040528060008152506115a3565b610fde6120b8565b601955565b6001600160a01b0381166000908152600a60205260409020546110185760405162461bcd60e51b8152600401610dc7906133bc565b600061102483836119b9565b9050806110435760405162461bcd60e51b8152600401610dc790613402565b6001600160a01b0383166000908152600d60205260408120805483929061106b908490613463565b90915550506001600160a01b038084166000908152600e602090815260408083209386168352929052208054820190556110a68383836124ba565b604080516001600160a01b038481168252602082018490528516917f3be5b7a71e84ed12875d241991c70855ac5817d847039e17a9d895c1ceb0f18a910160405180910390a2505050565b6110f96120b8565b805161110c906013906020840190612e77565b5050565b6000818152600260205260408120546001600160a01b031680610bde5760405162461bcd60e51b8152602060048201526018602482015277115490cdcc8c4e881a5b9d985b1a59081d1bdad95b88125160421b6044820152606401610dc7565b60138054610cd190613381565b6111856120b8565b601255565b60006001600160a01b0382166111f45760405162461bcd60e51b815260206004820152602960248201527f4552433732313a2061646472657373207a65726f206973206e6f7420612076616044820152683634b21037bbb732b960b91b6064820152608401610dc7565b506001600160a01b031660009081526003602052604090205490565b6112186120b8565b611222600061250c565b565b61122c6120b8565b600f55565b6000600c8281548110611246576112466134c8565b6000918252602090912001546001600160a01b031692915050565b6112696120b8565b601e55565b606060018054610c1a90613381565b6112856120b8565b601055565b61110c33838361255e565b6000806112a160095490565b6112ab9047613463565b90506112d683826112d1866001600160a01b03166000908152600b602052604090205490565b61262d565b9392505050565b6112e56120b8565b6016805461ff001916610100179055565b6112fe6120b8565b601855565b3332146113225760405162461bcd60e51b8152600401610dc7906134de565b601654640100000000900460ff166113875760405162461bcd60e51b815260206004820152602260248201527f4372797374616c46726f677356323a205075626c6963204d696e74206973204f604482015261232360f11b6064820152608401610dc7565b60165460ff16156113aa5760405162461bcd60e51b8152600401610dc79061350a565b6017548111156113cc5760405162461bcd60e51b8152600401610dc79061354c565b6000811161141c5760405162461bcd60e51b815260206004820152601b60248201527f4372797374616c46726f677356323a207a65726f20616d6f756e7400000000006044820152606401610dc7565b601c5481601d5461142d9190613463565b11156114865760405162461bcd60e51b815260206004820152602260248201527f4372797374616c46726f677356323a204d696e74206c696d6974207265616368604482015261195960f21b6064820152608401610dc7565b6000611491601f5490565b6012549091506114a18383613463565b11156114f95760405162461bcd60e51b815260206004820152602160248201527f4372797374616c46726f67733a204d617820737570706c7920657863656564656044820152601960fa1b6064820152608401610dc7565b3482601e54611508919061359b565b11156115625760405162461bcd60e51b8152602060048201526024808201527f4372797374616c46726f67733a204e6f7420656e6f75676820657468657273206044820152631cd95b9d60e21b6064820152608401610dc7565b60005b828110156115875761157561266b565b8061157f816135ba565b915050611565565b5081601d600082825461159a9190613463565b90915550505050565b6115ad33836122f8565b6115c95760405162461bcd60e51b8152600401610dc79061347b565b6115d5848484846126a3565b50505050565b8181611653828280806020026020016040519081016040528093929190818152602001838360200280828437600092019190915250506010546040516bffffffffffffffffffffffff193360601b16602082015290925060340190505b604051602081830303815290604052805190602001206126d6565b15156001146116745760405162461bcd60e51b8152600401610dc7906134de565b3332146116935760405162461bcd60e51b8152600401610dc7906134de565b336001600160a01b038716146116eb5760405162461bcd60e51b815260206004820152601b60248201527f4372797374616c46726f677356323a204e6f7420616c6c6f77656400000000006044820152606401610dc7565b60165462010000900460ff1661174f5760405162461bcd60e51b815260206004820152602360248201527f4372797374616c46726f677356323a2047656e65736973204d696e742069732060448201526227a32360e91b6064820152608401610dc7565b60165460ff16156117725760405162461bcd60e51b8152600401610dc79061350a565b6018548511156117945760405162461bcd60e51b8152600401610dc79061354c565b601854336000908152601a60205260409020546117b2908790613463565b11156118185760405162461bcd60e51b815260206004820152602f60248201527f4372797374616c46726f677356323a204f6e6c7920352047656e65736973204d60448201526e1a5b9d1cc81c195c881dd85b1b195d608a1b6064820152608401610dc7565b6000611823601f5490565b6012549091506118338783613463565b11156118515760405162461bcd60e51b8152600401610dc7906135d5565b3486601e54611860919061359b565b111561187e5760405162461bcd60e51b8152600401610dc790613618565b336000908152601a60205260408120805488929061189d908490613463565b90915550600090505b868110156118c8576118b661266b565b806118c0816135ba565b9150506118a6565b5050505050505050565b6118da6120b8565b601c55565b6118e76120b8565b6021548151146119455760405162461bcd60e51b8152602060048201526024808201527f4372797374616c46726f677356323a20496e76616c6964206172726179206c656044820152630dccee8d60e31b6064820152608401610dc7565b60005b815181101561110c57818181518110611963576119636134c8565b60200260200101516021828154811061197e5761197e6134c8565b600091825260209091200180546001600160a01b0319166001600160a01b0392909216919091179055806119b1816135ba565b915050611948565b6001600160a01b0382166000908152600d602052604081205481906040516370a0823160e01b81523060048201526001600160a01b038616906370a082319060240160206040518083038186803b158015611a1357600080fd5b505afa158015611a27573d6000803e3d6000fd5b505050506040513d601f19601f82011682018060405250810190611a4b919061365e565b611a559190613463565b6001600160a01b038086166000908152600e6020908152604080832093881683529290522054909150611a8b908490839061262d565b949350505050565b611a9b6120b8565b6016805460ff19811660ff90911615179055565b60158054610cd190613381565b6000818152600260205260409020546060906001600160a01b0316611b3b5760405162461bcd60e51b815260206004820152602f60248201527f4552433732314d657461646174613a2055524920717565727920666f72206e6f60448201526e3732bc34b9ba32b73a103a37b5b2b760891b6064820152608401610dc7565b601654610100900460ff16611bdc5760148054611b5790613381565b80601f0160208091040260200160405190810160405280929190818152602001828054611b8390613381565b8015611bd05780601f10611ba557610100808354040283529160200191611bd0565b820191906000526020600020905b815481529060010190602001808311611bb357829003601f168201915b50505050509050919050565b6000611be66126ec565b90506000815111611c0657604051806020016040528060008152506112d6565b80611c10846126fb565b6015604051602001611c2493929190613677565b6040516020818303038152906040529392505050565b611c426120b8565b805161110c906015906020840190612e77565b8181611cb682828080602002602001604051908101604052809392919081815260200183836020028082843760009201919091525050600f546040516bffffffffffffffffffffffff193360601b1660208201529092506034019050611638565b1515600114611cd75760405162461bcd60e51b8152600401610dc7906134de565b333214611cf65760405162461bcd60e51b8152600401610dc7906134de565b336001600160a01b03871614611d4e5760405162461bcd60e51b815260206004820152601b60248201527f4372797374616c46726f677356323a204e6f7420616c6c6f77656400000000006044820152606401610dc7565b6016546301000000900460ff16611da75760405162461bcd60e51b815260206004820152601e60248201527f4372797374616c46726f677356323a20574c204d696e74206973204f464600006044820152606401610dc7565b60165460ff1615611dca5760405162461bcd60e51b8152600401610dc79061350a565b601954851115611dec5760405162461bcd60e51b8152600401610dc79061354c565b601954336000908152601b6020526040902054611e0a908790613463565b1115611e6b5760405162461bcd60e51b815260206004820152602a60248201527f4372797374616c46726f677356323a204f6e6c79203320574c204d696e7473206044820152691c195c881dd85b1b195d60b21b6064820152608401610dc7565b6000611e76601f5490565b601254909150611e868783613463565b1115611ea45760405162461bcd60e51b8152600401610dc7906135d5565b3486601e54611eb3919061359b565b1115611ed15760405162461bcd60e51b8152600401610dc790613618565b336000908152601b602052604081208054889290611ef0908490613463565b90915550600090505b868110156118c857611f0961266b565b80611f13816135ba565b915050611ef9565b611f236120b8565b6016805460ff640100000000808304821615810264ff0000000019909316929092179283905591041615611222576000601d55565b60115460405163c455279160e01b81526001600160a01b03848116600483015260009281169190841690829063c45527919060240160206040518083038186803b158015611fa557600080fd5b505afa158015611fb9573d6000803e3d6000fd5b505050506040513d601f19601f82011682018060405250810190611fdd919061373b565b6001600160a01b03161415611ff6576001915050610bde565b6001600160a01b0380851660009081526005602090815260408083209387168352929052205460ff16611a8b565b61202c6120b8565b805161110c906014906020840190612e77565b6120476120b8565b6001600160a01b0381166120ac5760405162461bcd60e51b815260206004820152602660248201527f4f776e61626c653a206e6577206f776e657220697320746865207a65726f206160448201526564647265737360d01b6064820152608401610dc7565b6120b58161250c565b50565b6006546001600160a01b031633146112225760405162461bcd60e51b815260206004820181905260248201527f4f776e61626c653a2063616c6c6572206973206e6f7420746865206f776e65726044820152606401610dc7565b6000818152600260205260409020546001600160a01b03166120b55760405162461bcd60e51b8152602060048201526018602482015277115490cdcc8c4e881a5b9d985b1a59081d1bdad95b88125160421b6044820152606401610dc7565b600081815260046020526040902080546001600160a01b0319166001600160a01b03841690811790915581906121a682611110565b6001600160a01b03167f8c5be1e5ebec7d5bd14f71427d1e84f3dd0314c0f7b2291e5b200ac8c7c3b92560405160405180910390a45050565b8047101561222f5760405162461bcd60e51b815260206004820152601d60248201527f416464726573733a20696e73756666696369656e742062616c616e63650000006044820152606401610dc7565b6000826001600160a01b03168260405160006040518083038185875af1925050503d806000811461227c576040519150601f19603f3d011682016040523d82523d6000602084013e612281565b606091505b5050905080610e685760405162461bcd60e51b815260206004820152603a60248201527f416464726573733a20756e61626c6520746f2073656e642076616c75652c207260448201527f6563697069656e74206d617920686176652072657665727465640000000000006064820152608401610dc7565b60008061230483611110565b9050806001600160a01b0316846001600160a01b0316148061232b575061232b8185611f58565b80611a8b5750836001600160a01b031661234484610c9d565b6001600160a01b031614949350505050565b826001600160a01b031661236982611110565b6001600160a01b03161461238f5760405162461bcd60e51b8152600401610dc790613758565b6001600160a01b0382166123f15760405162461bcd60e51b8152602060048201526024808201527f4552433732313a207472616e7366657220746f20746865207a65726f206164646044820152637265737360e01b6064820152608401610dc7565b826001600160a01b031661240482611110565b6001600160a01b03161461242a5760405162461bcd60e51b8152600401610dc790613758565b600081815260046020908152604080832080546001600160a01b03199081169091556001600160a01b0387811680865260038552838620805460001901905590871680865283862080546001019055868652600290945282852080549092168417909155905184937fddf252ad1be2c89b69c2b068fc378daa952ba7f163c4a11628f55a4df523b3ef91a4505050565b604080516001600160a01b038416602482015260448082018490528251808303909101815260649091019091526020810180516001600160e01b031663a9059cbb60e01b179052610e68908490612798565b600680546001600160a01b038381166001600160a01b0319831681179093556040519116919082907f8be0079c531659141344cd1fd0a4f28419497f9722a3daafe3b4186f6b6457e090600090a35050565b816001600160a01b0316836001600160a01b031614156125c05760405162461bcd60e51b815260206004820152601960248201527f4552433732313a20617070726f766520746f2063616c6c6572000000000000006044820152606401610dc7565b6001600160a01b03838116600081815260056020908152604080832094871680845294825291829020805460ff191686151590811790915591519182527f17307eab39ab6107e8899845ad3d59bd9653f200f220920489ca2b5937696c31910160405180910390a3505050565b6008546001600160a01b0384166000908152600a602052604081205490918391612657908661359b565b612661919061379d565b611a8b91906137bf565b61267361286a565b612681601f80546001019055565b600061268c601f5490565b905061269833826128c4565b506112226001600755565b6126ae848484612356565b6126ba848484846128de565b6115d55760405162461bcd60e51b8152600401610dc7906137d6565b6000826126e385846129eb565b14949350505050565b606060138054610c1a90613381565b6060600061270883612a30565b600101905060008167ffffffffffffffff8111156127285761272861309f565b6040519080825280601f01601f191660200182016040528015612752576020820181803683370190505b5090508181016020015b600019016f181899199a1a9b1b9c1cb0b131b232b360811b600a86061a8153600a850494508461278b57612790565b61275c565b509392505050565b60006127ed826040518060400160405280602081526020017f5361666545524332303a206c6f772d6c6576656c2063616c6c206661696c6564815250856001600160a01b0316612b089092919063ffffffff16565b805190915015610e68578080602001905181019061280b9190613828565b610e685760405162461bcd60e51b815260206004820152602a60248201527f5361666545524332303a204552433230206f7065726174696f6e20646964206e6044820152691bdd081cdd58d8d9595960b21b6064820152608401610dc7565b600260075414156128bd5760405162461bcd60e51b815260206004820152601f60248201527f5265656e7472616e637947756172643a207265656e7472616e742063616c6c006044820152606401610dc7565b6002600755565b61110c828260405180602001604052806000815250612b17565b60006001600160a01b0384163b156129e057604051630a85bd0160e11b81526001600160a01b0385169063150b7a0290612922903390899088908890600401613845565b602060405180830381600087803b15801561293c57600080fd5b505af192505050801561296c575060408051601f3d908101601f1916820190925261296991810190613882565b60015b6129c6573d80801561299a576040519150601f19603f3d011682016040523d82523d6000602084013e61299f565b606091505b5080516129be5760405162461bcd60e51b8152600401610dc7906137d6565b805181602001fd5b6001600160e01b031916630a85bd0160e11b149050611a8b565b506001949350505050565b600081815b845181101561279057612a1c82868381518110612a0f57612a0f6134c8565b6020026020010151612b4a565b915080612a28816135ba565b9150506129f0565b60008072184f03e93ff9f4daa797ed6e38ed64bf6a1f0160401b8310612a6f5772184f03e93ff9f4daa797ed6e38ed64bf6a1f0160401b830492506040015b6d04ee2d6d415b85acef81000000008310612a9b576d04ee2d6d415b85acef8100000000830492506020015b662386f26fc100008310612ab957662386f26fc10000830492506010015b6305f5e1008310612ad1576305f5e100830492506008015b6127108310612ae557612710830492506004015b60648310612af7576064830492506002015b600a8310610bde5760010192915050565b6060611a8b8484600085612b76565b612b218383612c51565b612b2e60008484846128de565b610e685760405162461bcd60e51b8152600401610dc7906137d6565b6000818310612b665760008281526020849052604090206112d6565b5060009182526020526040902090565b606082471015612bd75760405162461bcd60e51b815260206004820152602660248201527f416464726573733a20696e73756666696369656e742062616c616e636520666f6044820152651c8818d85b1b60d21b6064820152608401610dc7565b600080866001600160a01b03168587604051612bf3919061389f565b60006040518083038185875af1925050503d8060008114612c30576040519150601f19603f3d011682016040523d82523d6000602084013e612c35565b606091505b5091509150612c4687838387612ddc565b979650505050505050565b6001600160a01b038216612ca75760405162461bcd60e51b815260206004820181905260248201527f4552433732313a206d696e7420746f20746865207a65726f20616464726573736044820152606401610dc7565b6000818152600260205260409020546001600160a01b031615612d0c5760405162461bcd60e51b815260206004820152601c60248201527f4552433732313a20746f6b656e20616c7265616479206d696e746564000000006044820152606401610dc7565b6000818152600260205260409020546001600160a01b031615612d715760405162461bcd60e51b815260206004820152601c60248201527f4552433732313a20746f6b656e20616c7265616479206d696e746564000000006044820152606401610dc7565b6001600160a01b038216600081815260036020908152604080832080546001019055848352600290915280822080546001600160a01b0319168417905551839291907fddf252ad1be2c89b69c2b068fc378daa952ba7f163c4a11628f55a4df523b3ef908290a45050565b60608315612e48578251612e41576001600160a01b0385163b612e415760405162461bcd60e51b815260206004820152601d60248201527f416464726573733a2063616c6c20746f206e6f6e2d636f6e74726163740000006044820152606401610dc7565b5081611a8b565b611a8b8383815115612e5d5781518083602001fd5b8060405162461bcd60e51b8152600401610dc79190612f9b565b828054612e8390613381565b90600052602060002090601f016020900481019282612ea55760008555612eeb565b82601f10612ebe57805160ff1916838001178555612eeb565b82800160010185558215612eeb579182015b82811115612eeb578251825591602001919060010190612ed0565b50612ef7929150612efb565b5090565b5b80821115612ef75760008155600101612efc565b6001600160e01b0319811681146120b557600080fd5b600060208284031215612f3857600080fd5b81356112d681612f10565b60005b83811015612f5e578181015183820152602001612f46565b838111156115d55750506000910152565b60008151808452612f87816020860160208601612f43565b601f01601f19169290920160200192915050565b6020815260006112d66020830184612f6f565b600060208284031215612fc057600080fd5b5035919050565b6001600160a01b03811681146120b557600080fd5b60008060408385031215612fef57600080fd5b8235612ffa81612fc7565b946020939093013593505050565b60006020828403121561301a57600080fd5b81356112d681612fc7565b60008060006060848603121561303a57600080fd5b833561304581612fc7565b9250602084013561305581612fc7565b929592945050506040919091013590565b6000806040838503121561307957600080fd5b823561308481612fc7565b9150602083013561309481612fc7565b809150509250929050565b634e487b7160e01b600052604160045260246000fd5b604051601f8201601f1916810167ffffffffffffffff811182821017156130de576130de61309f565b604052919050565b600067ffffffffffffffff8311156131005761310061309f565b613113601f8401601f19166020016130b5565b905082815283838301111561312757600080fd5b828260208301376000602084830101529392505050565b60006020828403121561315057600080fd5b813567ffffffffffffffff81111561316757600080fd5b8201601f8101841361317857600080fd5b611a8b848235602084016130e6565b80151581146120b557600080fd5b600080604083850312156131a857600080fd5b82356131b381612fc7565b9150602083013561309481613187565b600080600080608085870312156131d957600080fd5b84356131e481612fc7565b935060208501356131f481612fc7565b925060408501359150606085013567ffffffffffffffff81111561321757600080fd5b8501601f8101871361322857600080fd5b613237878235602084016130e6565b91505092959194509250565b6000806000806060858703121561325957600080fd5b843561326481612fc7565b935060208501359250604085013567ffffffffffffffff8082111561328857600080fd5b818701915087601f83011261329c57600080fd5b8135818111156132ab57600080fd5b8860208260051b85010111156132c057600080fd5b95989497505060200194505050565b600060208083850312156132e257600080fd5b823567ffffffffffffffff808211156132fa57600080fd5b818501915085601f83011261330e57600080fd5b8135818111156133205761332061309f565b8060051b91506133318483016130b5565b818152918301840191848101908884111561334b57600080fd5b938501935b83851015613375578435925061336583612fc7565b8282529385019390850190613350565b98975050505050505050565b600181811c9082168061339557607f821691505b602082108114156133b657634e487b7160e01b600052602260045260246000fd5b50919050565b60208082526026908201527f5061796d656e7453706c69747465723a206163636f756e7420686173206e6f2060408201526573686172657360d01b606082015260800190565b6020808252602b908201527f5061796d656e7453706c69747465723a206163636f756e74206973206e6f742060408201526a191d59481c185e5b595b9d60aa1b606082015260800190565b634e487b7160e01b600052601160045260246000fd5b600082198211156134765761347661344d565b500190565b6020808252602d908201527f4552433732313a2063616c6c6572206973206e6f7420746f6b656e206f776e6560408201526c1c881bdc88185c1c1c9bdd9959609a1b606082015260800190565b634e487b7160e01b600052603260045260246000fd5b6020808252601290820152712737ba1030b63637bbb2b21037b934b3b4b760711b604082015260600190565b60208082526022908201527f4372797374616c46726f677356323a20436f6e74726163742069732070617573604082015261195960f21b606082015260800190565b6020808252602f908201527f4372797374616c46726f677356323a20596f752063616e206e6f74206d696e7460408201526e20736f206d75636820746f6b656e7360881b606082015260800190565b60008160001904831182151516156135b5576135b561344d565b500290565b60006000198214156135ce576135ce61344d565b5060010190565b60208082526023908201527f4372797374616c46726f677356323a206d617820737570706c7920657863656560408201526219195960ea1b606082015260800190565b60208082526026908201527f4372797374616c46726f677356323a204e6f7420656e6f7567682065746865726040820152651cc81cd95b9d60d21b606082015260800190565b60006020828403121561367057600080fd5b5051919050565b60008451602061368a8285838a01612f43565b85519184019161369d8184848a01612f43565b8554920191600090600181811c90808316806136ba57607f831692505b8583108114156136d857634e487b7160e01b85526022600452602485fd5b8080156136ec57600181146136fd5761372a565b60ff1985168852838801955061372a565b60008b81526020902060005b858110156137225781548a820152908401908801613709565b505083880195505b50939b9a5050505050505050505050565b60006020828403121561374d57600080fd5b81516112d681612fc7565b60208082526025908201527f4552433732313a207472616e736665722066726f6d20696e636f72726563742060408201526437bbb732b960d91b606082015260800190565b6000826137ba57634e487b7160e01b600052601260045260246000fd5b500490565b6000828210156137d1576137d161344d565b500390565b60208082526032908201527f4552433732313a207472616e7366657220746f206e6f6e20455243373231526560408201527131b2b4bb32b91034b6b83632b6b2b73a32b960711b606082015260800190565b60006020828403121561383a57600080fd5b81516112d681613187565b6001600160a01b038581168252841660208201526040810183905260806060820181905260009061387890830184612f6f565b9695505050505050565b60006020828403121561389457600080fd5b81516112d681612f10565b600082516138b1818460208701612f43565b919091019291505056fea26469706673582212205c91d286c8474996203ecbeacec6f4f6f9942d6baf1e8466f5cc2c5608bfb3ea64736f6c63430008090033697066733a2f2f516d533342544d79567342554252546557354e74334a514e414431687447517373316a68376131446b6f554c774e2f68696464656e2e6a736f6e",
  "linkReferences": {},
  "deployedLinkReferences": {}
}