{
  "_format": "hh-sol-artifact-1",
  "contractName": "YouAreAChild",
  "sourceName": "contracts/YouAreAChild.sol",
  "abi": [
    {
      "inputs": [
        {
          "internalType": "string",
          "name": "uri",
          "type": "string"
        },
        {
          "internalType": "bytes32",
          "name": "merkleroot",
          "type": "bytes32"
        },
        {
          "internalType": "address",
          "name": "_proxyRegistryAddress",
          "type": "address"
        }
      ],
      "stateMutability": "nonpayable",
      "type": "constructor"
    },
    {
      "anonymous": false,
      "inputs": [
        {
          "indexed": true,
          "internalType": "address",
          "name": "owner",
          "type": "address"
        },
        {
          "indexed": true,
          "internalType": "address",
          "name": "approved",
          "type": "address"
        },
        {
          "indexed": true,
          "internalType": "uint256",
          "name": "tokenId",
          "type": "uint256"
        }
      ],
      "name": "Approval",
      "type": "event"
    },
    {
      "anonymous": false,
      "inputs": [
        {
          "indexed": true,
          "internalType": "address",
          "name": "owner",
          "type": "address"
        },
        {
          "indexed": true,
          "internalType": "address",
          "name": "operator",
          "type": "address"
        },
        {
          "indexed": false,
          "internalType": "bool",
          "name": "approved",
          "type": "bool"
        }
      ],
      "name": "ApprovalForAll",
      "type": "event"
    },
    {
      "anonymous": false,
      "inputs": [
        {
          "indexed": true,
          "internalType": "contract IERC20",
          "name": "token",
          "type": "address"
        },
        {
          "indexed": false,
          "internalType": "address",
          "name": "to",
          "type": "address"
        },
        {
          "indexed": false,
          "internalType": "uint256",
          "name": "amount",
          "type": "uint256"
        }
      ],
      "name": "ERC20PaymentReleased",
      "type": "event"
    },
    {
      "anonymous": false,
      "inputs": [
        {
          "indexed": true,
          "internalType": "address",
          "name": "previousOwner",
          "type": "address"
        },
        {
          "indexed": true,
          "internalType": "address",
          "name": "newOwner",
          "type": "address"
        }
      ],
      "name": "OwnershipTransferred",
      "type": "event"
    },
    {
      "anonymous": false,
      "inputs": [
        {
          "indexed": false,
          "internalType": "address",
          "name": "account",
          "type": "address"
        },
        {
          "indexed": false,
          "internalType": "uint256",
          "name": "shares",
          "type": "uint256"
        }
      ],
      "name": "PayeeAdded",
      "type": "event"
    },
    {
      "anonymous": false,
      "inputs": [
        {
          "indexed": false,
          "internalType": "address",
          "name": "from",
          "type": "address"
        },
        {
          "indexed": false,
          "internalType": "uint256",
          "name": "amount",
          "type": "uint256"
        }
      ],
      "name": "PaymentReceived",
      "type": "event"
    },
    {
      "anonymous": false,
      "inputs": [
        {
          "indexed": false,
          "internalType": "address",
          "name": "to",
          "type": "address"
        },
        {
          "indexed": false,
          "internalType": "uint256",
          "name": "amount",
          "type": "uint256"
        }
      ],
      "name": "PaymentReleased",
      "type": "event"
    },
    {
      "anonymous": false,
      "inputs": [
        {
          "indexed": true,
          "internalType": "address",
          "name": "from",
          "type": "address"
        },
        {
          "indexed": true,
          "internalType": "address",
          "name": "to",
          "type": "address"
        },
        {
          "indexed": true,
          "internalType": "uint256",
          "name": "tokenId",
          "type": "uint256"
        }
      ],
      "name": "Transfer",
      "type": "event"
    },
    {
      "inputs": [
        {
          "internalType": "address",
          "name": "",
          "type": "address"
        }
      ],
      "name": "_presaleClaimed",
      "outputs": [
        {
          "internalType": "uint256",
          "name": "",
          "type": "uint256"
        }
      ],
      "stateMutability": "view",
      "type": "function"
    },
    {
      "inputs": [
        {
          "internalType": "address",
          "name": "to",
          "type": "address"
        },
        {
          "internalType": "uint256",
          "name": "tokenId",
          "type": "uint256"
        }
      ],
      "name": "approve",
      "outputs": [],
      "stateMutability": "nonpayable",
      "type": "function"
    },
    {
      "inputs": [
        {
          "internalType": "address",
          "name": "owner",
          "type": "address"
        }
      ],
      "name": "balanceOf",
      "outputs": [
        {
          "internalType": "uint256",
          "name": "",
          "type": "uint256"
        }
      ],
      "stateMutability": "view",
      "type": "function"
    },
    {
      "inputs": [],
      "name": "baseExtension",
      "outputs": [
        {
          "internalType": "string",
          "name": "",
          "type": "string"
        }
      ],
      "stateMutability": "view",
      "type": "function"
    },
    {
      "inputs": [],
      "name": "baseURI",
      "outputs": [
        {
          "internalType": "string",
          "name": "",
          "type": "string"
        }
      ],
      "stateMutability": "view",
      "type": "function"
    },
    {
      "inputs": [],
      "name": "freeRoot",
      "outputs": [
        {
          "internalType": "bytes32",
          "name": "",
          "type": "bytes32"
        }
      ],
      "stateMutability": "view",
      "type": "function"
    },
    {
      "inputs": [],
      "name": "freesaleM",
      "outputs": [
        {
          "internalType": "bool",
          "name": "",
          "type": "bool"
        }
      ],
      "stateMutability": "view",
      "type": "function"
    },
    {
      "inputs": [
        {
          "internalType": "uint256",
          "name": "tokenId",
          "type": "uint256"
        }
      ],
      "name": "getApproved",
      "outputs": [
        {
          "internalType": "address",
          "name": "",
          "type": "address"
        }
      ],
      "stateMutability": "view",
      "type": "function"
    },
    {
      "inputs": [
        {
          "internalType": "address",
          "name": "owner",
          "type": "address"
        },
        {
          "internalType": "address",
          "name": "operator",
          "type": "address"
        }
      ],
      "name": "isApprovedForAll",
      "outputs": [
        {
          "internalType": "bool",
          "name": "",
          "type": "bool"
        }
      ],
      "stateMutability": "view",
      "type": "function"
    },
    {
      "inputs": [],
      "name": "maxSupply",
      "outputs": [
        {
          "internalType": "uint256",
          "name": "",
          "type": "uint256"
        }
      ],
      "stateMutability": "view",
      "type": "function"
    },
    {
      "inputs": [],
      "name": "name",
      "outputs": [
        {
          "internalType": "string",
          "name": "",
          "type": "string"
        }
      ],
      "stateMutability": "view",
      "type": "function"
    },
    {
      "inputs": [],
      "name": "notRevealedUri",
      "outputs": [
        {
          "internalType": "string",
          "name": "",
          "type": "string"
        }
      ],
      "stateMutability": "view",
      "type": "function"
    },
    {
      "inputs": [],
      "name": "owner",
      "outputs": [
        {
          "internalType": "address",
          "name": "",
          "type": "address"
        }
      ],
      "stateMutability": "view",
      "type": "function"
    },
    {
      "inputs": [
        {
          "internalType": "uint256",
          "name": "tokenId",
          "type": "uint256"
        }
      ],
      "name": "ownerOf",
      "outputs": [
        {
          "internalType": "address",
          "name": "",
          "type": "address"
        }
      ],
      "stateMutability": "view",
      "type": "function"
    },
    {
      "inputs": [],
      "name": "paused",
      "outputs": [
        {
          "internalType": "bool",
          "name": "",
          "type": "bool"
        }
      ],
      "stateMutability": "view",
      "type": "function"
    },
    {
      "inputs": [
        {
          "internalType": "uint256",
          "name": "index",
          "type": "uint256"
        }
      ],
      "name": "payee",
      "outputs": [
        {
          "internalType": "address",
          "name": "",
          "type": "address"
        }
      ],
      "stateMutability": "view",
      "type": "function"
    },
    {
      "inputs": [
        {
          "internalType": "address",
          "name": "account",
          "type": "address"
        },
        {
          "internalType": "uint256",
          "name": "_amount",
          "type": "uint256"
        },
        {
          "internalType": "bytes32[]",
          "name": "_proof",
          "type": "bytes32[]"
        }
      ],
      "name": "preSaleMint",
      "outputs": [],
      "stateMutability": "payable",
      "type": "function"
    },
    {
      "inputs": [],
      "name": "presaleM",
      "outputs": [
        {
          "internalType": "bool",
          "name": "",
          "type": "bool"
        }
      ],
      "stateMutability": "view",
      "type": "function"
    },
    {
      "inputs": [],
      "name": "publicM",
      "outputs": [
        {
          "internalType": "bool",
          "name": "",
          "type": "bool"
        }
      ],
      "stateMutability": "view",
      "type": "function"
    },
    {
      "inputs": [
        {
          "internalType": "uint256",
          "name": "_amount",
          "type": "uint256"
        }
      ],
      "name": "publicSaleMint",
      "outputs": [],
      "stateMutability": "payable",
      "type": "function"
    },
    {
      "inputs": [
        {
          "internalType": "address payable",
          "name": "account",
          "type": "address"
        }
      ],
      "name": "release",
      "outputs": [],
      "stateMutability": "nonpayable",
      "type": "function"
    },
    {
      "inputs": [
        {
          "internalType": "contract IERC20",
          "name": "token",
          "type": "address"
        },
        {
          "internalType": "address",
          "name": "account",
          "type": "address"
        }
      ],
      "name": "release",
      "outputs": [],
      "stateMutability": "nonpayable",
      "type": "function"
    },
    {
      "inputs": [
        {
          "internalType": "contract IERC20",
          "name": "token",
          "type": "address"
        },
        {
          "internalType": "address",
          "name": "account",
          "type": "address"
        }
      ],
      "name": "released",
      "outputs": [
        {
          "internalType": "uint256",
          "name": "",
          "type": "uint256"
        }
      ],
      "stateMutability": "view",
      "type": "function"
    },
    {
      "inputs": [
        {
          "internalType": "address",
          "name": "account",
          "type": "address"
        }
      ],
      "name": "released",
      "outputs": [
        {
          "internalType": "uint256",
          "name": "",
          "type": "uint256"
        }
      ],
      "stateMutability": "view",
      "type": "function"
    },
    {
      "inputs": [],
      "name": "renounceOwnership",
      "outputs": [],
      "stateMutability": "nonpayable",
      "type": "function"
    },
    {
      "inputs": [],
      "name": "reveal",
      "outputs": [],
      "stateMutability": "nonpayable",
      "type": "function"
    },
    {
      "inputs": [],
      "name": "revealed",
      "outputs": [
        {
          "internalType": "bool",
          "name": "",
          "type": "bool"
        }
      ],
      "stateMutability": "view",
      "type": "function"
    },
    {
      "inputs": [],
      "name": "root",
      "outputs": [
        {
          "internalType": "bytes32",
          "name": "",
          "type": "bytes32"
        }
      ],
      "stateMutability": "view",
      "type": "function"
    },
    {
      "inputs": [
        {
          "internalType": "address",
          "name": "from",
          "type": "address"
        },
        {
          "internalType": "address",
          "name": "to",
          "type": "address"
        },
        {
          "internalType": "uint256",
          "name": "tokenId",
          "type": "uint256"
        }
      ],
      "name": "safeTransferFrom",
      "outputs": [],
      "stateMutability": "nonpayable",
      "type": "function"
    },
    {
      "inputs": [
        {
          "internalType": "address",
          "name": "from",
          "type": "address"
        },
        {
          "internalType": "address",
          "name": "to",
          "type": "address"
        },
        {
          "internalType": "uint256",
          "name": "tokenId",
          "type": "uint256"
        },
        {
          "internalType": "bytes",
          "name": "_data",
          "type": "bytes"
        }
      ],
      "name": "safeTransferFrom",
      "outputs": [],
      "stateMutability": "nonpayable",
      "type": "function"
    },
    {
      "inputs": [
        {
          "internalType": "address",
          "name": "operator",
          "type": "address"
        },
        {
          "internalType": "bool",
          "name": "approved",
          "type": "bool"
        }
      ],
      "name": "setApprovalForAll",
      "outputs": [],
      "stateMutability": "nonpayable",
      "type": "function"
    },
    {
      "inputs": [
        {
          "internalType": "string",
          "name": "_newBaseExtension",
          "type": "string"
        }
      ],
      "name": "setBaseExtension",
      "outputs": [],
      "stateMutability": "nonpayable",
      "type": "function"
    },
    {
      "inputs": [
        {
          "internalType": "string",
          "name": "_tokenBaseURI",
          "type": "string"
        }
      ],
      "name": "setBaseURI",
      "outputs": [],
      "stateMutability": "nonpayable",
      "type": "function"
    },
    {
      "inputs": [
        {
          "internalType": "bytes32",
          "name": "merkleroot",
          "type": "bytes32"
        }
      ],
      "name": "setMerkleRoot",
      "outputs": [],
      "stateMutability": "nonpayable",
      "type": "function"
    },
    {
      "inputs": [
        {
          "internalType": "string",
          "name": "_notRevealedURI",
          "type": "string"
        }
      ],
      "name": "setNotRevealedURI",
      "outputs": [],
      "stateMutability": "nonpayable",
      "type": "function"
    },
    {
      "inputs": [
        {
          "internalType": "address",
          "name": "account",
          "type": "address"
        }
      ],
      "name": "shares",
      "outputs": [
        {
          "internalType": "uint256",
          "name": "",
          "type": "uint256"
        }
      ],
      "stateMutability": "view",
      "type": "function"
    },
    {
      "inputs": [
        {
          "internalType": "bytes4",
          "name": "interfaceId",
          "type": "bytes4"
        }
      ],
      "name": "supportsInterface",
      "outputs": [
        {
          "internalType": "bool",
          "name": "",
          "type": "bool"
        }
      ],
      "stateMutability": "view",
      "type": "function"
    },
    {
      "inputs": [],
      "name": "symbol",
      "outputs": [
        {
          "internalType": "string",
          "name": "",
          "type": "string"
        }
      ],
      "stateMutability": "view",
      "type": "function"
    },
    {
      "inputs": [],
      "name": "togglePause",
      "outputs": [],
      "stateMutability": "nonpayable",
      "type": "function"
    },
    {
      "inputs": [],
      "name": "togglePresale",
      "outputs": [],
      "stateMutability": "nonpayable",
      "type": "function"
    },
    {
      "inputs": [],
      "name": "togglePublicSale",
      "outputs": [],
      "stateMutability": "nonpayable",
      "type": "function"
    },
    {
      "inputs": [
        {
          "internalType": "uint256",
          "name": "tokenId",
          "type": "uint256"
        }
      ],
      "name": "tokenURI",
      "outputs": [
        {
          "internalType": "string",
          "name": "",
          "type": "string"
        }
      ],
      "stateMutability": "view",
      "type": "function"
    },
    {
      "inputs": [
        {
          "internalType": "contract IERC20",
          "name": "token",
          "type": "address"
        }
      ],
      "name": "totalReleased",
      "outputs": [
        {
          "internalType": "uint256",
          "name": "",
          "type": "uint256"
        }
      ],
      "stateMutability": "view",
      "type": "function"
    },
    {
      "inputs": [],
      "name": "totalReleased",
      "outputs": [
        {
          "internalType": "uint256",
          "name": "",
          "type": "uint256"
        }
      ],
      "stateMutability": "view",
      "type": "function"
    },
    {
      "inputs": [],
      "name": "totalShares",
      "outputs": [
        {
          "internalType": "uint256",
          "name": "",
          "type": "uint256"
        }
      ],
      "stateMutability": "view",
      "type": "function"
    },
    {
      "inputs": [],
      "name": "totalSupply",
      "outputs": [
        {
          "internalType": "uint256",
          "name": "",
          "type": "uint256"
        }
      ],
      "stateMutability": "view",
      "type": "function"
    },
    {
      "inputs": [
        {
          "internalType": "address",
          "name": "from",
          "type": "address"
        },
        {
          "internalType": "address",
          "name": "to",
          "type": "address"
        },
        {
          "internalType": "uint256",
          "name": "tokenId",
          "type": "uint256"
        }
      ],
      "name": "transferFrom",
      "outputs": [],
      "stateMutability": "nonpayable",
      "type": "function"
    },
    {
      "inputs": [
        {
          "internalType": "address",
          "name": "newOwner",
          "type": "address"
        }
      ],
      "name": "transferOwnership",
      "outputs": [],
      "stateMutability": "nonpayable",
      "type": "function"
    },
    {
      "stateMutability": "payable",
      "type": "receive"
    }
  ],
  "bytecode": "0x611e61601255610100604052604160808181529062003aa960a0398051620000309160149160209091019062000665565b5060408051808201909152600580825264173539b7b760d91b60209092019182526200005f9160159162000665565b506016805464ffffffffff191660019081179091556002601755662386f26fc100006019556000601a55604080516020810190915260648152620000a791601c9190620006f4565b5060408051602081019091527378555568a00445cc6eaaf8597a01af7e2bc626a88152620000da90601d90600162000737565b50348015620000e857600080fd5b5060405162003aea38038062003aea8339810160408190526200010b91620007d9565b601d8054806020026020016040519081016040528092919081815260200182805480156200016357602002820191906000526020600020905b81546001600160a01b0316815260019091019060200180831162000144575b5050505050601c805480602002602001604051908101604052809291908181526020018280548015620001b657602002820191906000526020600020905b815481526020019060010190808311620001a1575b5050604080518082018252600c81526b165bdd505c995050da1a5b1960a21b60208083019182528351808501909452600384526259414360e81b9084015281519195509193506200020c92506000919062000665565b5080516200022290600190602084019062000665565b5050506200023f62000239620003ac60201b60201c565b620003b0565b60016007558051825114620002b65760405162461bcd60e51b815260206004820152603260248201527f5061796d656e7453706c69747465723a2070617965657320616e6420736861726044820152710cae640d8cadccee8d040dad2e6dac2e8c6d60731b60648201526084015b60405180910390fd5b6000825111620003095760405162461bcd60e51b815260206004820152601a60248201527f5061796d656e7453706c69747465723a206e6f207061796565730000000000006044820152606401620002ad565b60005b82518110156200037557620003608382815181106200032f576200032f620008d4565b60200260200101518383815181106200034c576200034c620008d4565b60200260200101516200040260201b60201c565b806200036c8162000900565b9150506200030c565b505050600f829055601180546001600160a01b0319166001600160a01b038316179055620003a383620005f0565b50505062000976565b3390565b600680546001600160a01b038381166001600160a01b0319831681179093556040519116919082907f8be0079c531659141344cd1fd0a4f28419497f9722a3daafe3b4186f6b6457e090600090a35050565b6001600160a01b0382166200046f5760405162461bcd60e51b815260206004820152602c60248201527f5061796d656e7453706c69747465723a206163636f756e74206973207468652060448201526b7a65726f206164647265737360a01b6064820152608401620002ad565b60008111620004c15760405162461bcd60e51b815260206004820152601d60248201527f5061796d656e7453706c69747465723a207368617265732061726520300000006044820152606401620002ad565b6001600160a01b0382166000908152600a6020526040902054156200053d5760405162461bcd60e51b815260206004820152602b60248201527f5061796d656e7453706c69747465723a206163636f756e7420616c726561647960448201526a206861732073686172657360a81b6064820152608401620002ad565b600c8054600181019091557fdf6966c971051c3d54ec59162606531493a51404a002842f56009d7e5cf4a8c70180546001600160a01b0319166001600160a01b0384169081179091556000908152600a60205260409020819055600854620005a79082906200091e565b600855604080516001600160a01b0384168152602081018390527f40c340f65e17194d14ddddb073d3c9f888e3cb52b5aae0c6c7706b4fbc905fac910160405180910390a15050565b6006546001600160a01b031633146200064c5760405162461bcd60e51b815260206004820181905260248201527f4f776e61626c653a2063616c6c6572206973206e6f7420746865206f776e65726044820152606401620002ad565b80516200066190601390602084019062000665565b5050565b828054620006739062000939565b90600052602060002090601f016020900481019282620006975760008555620006e2565b82601f10620006b257805160ff1916838001178555620006e2565b82800160010185558215620006e2579182015b82811115620006e2578251825591602001919060010190620006c5565b50620006f09291506200078f565b5090565b828054828255906000526020600020908101928215620006e2579160200282015b82811115620006e2578251829060ff1690559160200191906001019062000715565b828054828255906000526020600020908101928215620006e2579160200282015b82811115620006e257825182546001600160a01b0319166001600160a01b0390911617825560209092019160019091019062000758565b5b80821115620006f0576000815560010162000790565b634e487b7160e01b600052604160045260246000fd5b80516001600160a01b0381168114620007d457600080fd5b919050565b600080600060608486031215620007ef57600080fd5b83516001600160401b03808211156200080757600080fd5b818601915086601f8301126200081c57600080fd5b815181811115620008315762000831620007a6565b604051601f8201601f19908116603f011681019083821181831017156200085c576200085c620007a6565b816040528281526020935089848487010111156200087957600080fd5b600091505b828210156200089d57848201840151818301850152908301906200087e565b82821115620008af5760008484830101525b8097505050508086015193505050620008cb60408501620007bc565b90509250925092565b634e487b7160e01b600052603260045260246000fd5b634e487b7160e01b600052601160045260246000fd5b6000600019821415620009175762000917620008ea565b5060010190565b60008219821115620009345762000934620008ea565b500190565b600181811c908216806200094e57607f821691505b602082108114156200097057634e487b7160e01b600052602260045260246000fd5b50919050565b61312380620009866000396000f3fe6080604052600436106102975760003560e01c80638b83209b1161015a578063c87b56dd116100c1578063e222c7f91161007a578063e222c7f914610837578063e33b7de31461084c578063e985e9c514610861578063ebf0c71714610881578063f2c4ce1e14610897578063f2fde38b146108b757600080fd5b8063c87b56dd14610762578063ce7c2ac214610782578063d5abeb01146107b8578063d79779b2146107ce578063da3ef23f14610804578063e1bff4621461082457600080fd5b8063a45063c011610113578063a45063c0146106ce578063a475b5dd146106f0578063b3ab66b014610705578063b88d4fde14610718578063c4ae316814610738578063c66828621461074d57600080fd5b80638b83209b146105f85780638cc4de19146106185780638da5cb5b1461064557806395d89b41146106635780639852595c14610678578063a22cb465146106ae57600080fd5b8063406072a9116101fe5780635c975abb116101b75780635c975abb146105545780636352211e1461056e5780636c0360eb1461058e57806370a08231146105a3578063715018a6146105c35780637cb64759146105d857600080fd5b8063406072a91461047957806342842e0e146104bf57806348b75044146104df5780634df34e78146104ff578063518302271461051557806355f804b31461053457600080fd5b806318160ddd1161025057806318160ddd146103cc57806319165587146103ef57806323b872dd1461040f578063343937431461042f57806334d53b15146104445780633a98ef391461046457600080fd5b806301ffc9a7146102e557806306fdde031461031a578063081812fc1461033c578063081c8c4414610374578063095ea7b3146103895780631798d58b146103ab57600080fd5b366102e0577f6ef95f06320e7a25a04a175ca677b7052bdd97131872c2192525a629f51be77033604080516001600160a01b0390921682523460208301520160405180910390a1005b600080fd5b3480156102f157600080fd5b50610305610300366004612896565b6108d7565b60405190151581526020015b60405180910390f35b34801561032657600080fd5b5061032f610929565b604051610311919061290b565b34801561034857600080fd5b5061035c61035736600461291e565b6109bb565b6040516001600160a01b039091168152602001610311565b34801561038057600080fd5b5061032f610a55565b34801561039557600080fd5b506103a96103a436600461294c565b610ae3565b005b3480156103b757600080fd5b50601654610305906301000000900460ff1681565b3480156103d857600080fd5b506103e1610bf9565b604051908152602001610311565b3480156103fb57600080fd5b506103a961040a366004612978565b610c09565b34801561041b57600080fd5b506103a961042a366004612995565b610d37565b34801561043b57600080fd5b506103a9610d68565b34801561045057600080fd5b506016546103059062010000900460ff1681565b34801561047057600080fd5b506008546103e1565b34801561048557600080fd5b506103e16104943660046129d6565b6001600160a01b039182166000908152600e6020908152604080832093909416825291909152205490565b3480156104cb57600080fd5b506103a96104da366004612995565b610db3565b3480156104eb57600080fd5b506103a96104fa3660046129d6565b610dce565b34801561050b57600080fd5b506103e160105481565b34801561052157600080fd5b5060165461030590610100900460ff1681565b34801561054057600080fd5b506103a961054f366004612a9b565b610fb6565b34801561056057600080fd5b506016546103059060ff1681565b34801561057a57600080fd5b5061035c61058936600461291e565b610ff7565b34801561059a57600080fd5b5061032f61106e565b3480156105af57600080fd5b506103e16105be366004612978565b61107b565b3480156105cf57600080fd5b506103a9611102565b3480156105e457600080fd5b506103a96105f336600461291e565b611138565b34801561060457600080fd5b5061035c61061336600461291e565b611167565b34801561062457600080fd5b506103e1610633366004612978565b60186020526000908152604090205481565b34801561065157600080fd5b506006546001600160a01b031661035c565b34801561066f57600080fd5b5061032f611197565b34801561068457600080fd5b506103e1610693366004612978565b6001600160a01b03166000908152600b602052604090205490565b3480156106ba57600080fd5b506103a96106c9366004612af2565b6111a6565b3480156106da57600080fd5b5060165461030590640100000000900460ff1681565b3480156106fc57600080fd5b506103a96111b1565b6103a961071336600461291e565b6111ec565b34801561072457600080fd5b506103a9610733366004612b20565b6113cd565b34801561074457600080fd5b506103a9611405565b34801561075957600080fd5b5061032f611443565b34801561076e57600080fd5b5061032f61077d36600461291e565b611450565b34801561078e57600080fd5b506103e161079d366004612978565b6001600160a01b03166000908152600a602052604090205490565b3480156107c457600080fd5b506103e160125481565b3480156107da57600080fd5b506103e16107e9366004612978565b6001600160a01b03166000908152600d602052604090205490565b34801561081057600080fd5b506103a961081f366004612a9b565b6115cf565b6103a9610832366004612ba0565b61160c565b34801561084357600080fd5b506103a9611919565b34801561085857600080fd5b506009546103e1565b34801561086d57600080fd5b5061030561087c3660046129d6565b611966565b34801561088d57600080fd5b506103e1600f5481565b3480156108a357600080fd5b506103a96108b2366004612a9b565b611a36565b3480156108c357600080fd5b506103a96108d2366004612978565b611a73565b60006001600160e01b031982166380ac58cd60e01b148061090857506001600160e01b03198216635b5e139f60e01b145b8061092357506301ffc9a760e01b6001600160e01b03198316145b92915050565b60606000805461093890612c2c565b80601f016020809104026020016040519081016040528092919081815260200182805461096490612c2c565b80156109b15780601f10610986576101008083540402835291602001916109b1565b820191906000526020600020905b81548152906001019060200180831161099457829003601f168201915b5050505050905090565b6000818152600260205260408120546001600160a01b0316610a395760405162461bcd60e51b815260206004820152602c60248201527f4552433732313a20617070726f76656420717565727920666f72206e6f6e657860448201526b34b9ba32b73a103a37b5b2b760a11b60648201526084015b60405180910390fd5b506000908152600460205260409020546001600160a01b031690565b60148054610a6290612c2c565b80601f0160208091040260200160405190810160405280929190818152602001828054610a8e90612c2c565b8015610adb5780601f10610ab057610100808354040283529160200191610adb565b820191906000526020600020905b815481529060010190602001808311610abe57829003601f168201915b505050505081565b6000610aee82610ff7565b9050806001600160a01b0316836001600160a01b03161415610b5c5760405162461bcd60e51b815260206004820152602160248201527f4552433732313a20617070726f76616c20746f2063757272656e74206f776e656044820152603960f91b6064820152608401610a30565b336001600160a01b0382161480610b785750610b788133611966565b610bea5760405162461bcd60e51b815260206004820152603860248201527f4552433732313a20617070726f76652063616c6c6572206973206e6f74206f7760448201527f6e6572206e6f7220617070726f76656420666f7220616c6c00000000000000006064820152608401610a30565b610bf48383611b0e565b505050565b6000610c04601b5490565b905090565b6001600160a01b0381166000908152600a6020526040902054610c3e5760405162461bcd60e51b8152600401610a3090612c67565b6000610c4960095490565b610c539047612cc3565b90506000610c808383610c7b866001600160a01b03166000908152600b602052604090205490565b611b7c565b905080610c9f5760405162461bcd60e51b8152600401610a3090612cdb565b6001600160a01b0383166000908152600b602052604081208054839290610cc7908490612cc3565b925050819055508060096000828254610ce09190612cc3565b90915550610cf090508382611bba565b604080516001600160a01b0385168152602081018390527fdf20fd1e76bc69d672e4814fafb2c449bba3a5369d8359adf9e05e6fde87b056910160405180910390a1505050565b610d413382611cd3565b610d5d5760405162461bcd60e51b8152600401610a3090612d26565b610bf4838383611da2565b6006546001600160a01b03163314610d925760405162461bcd60e51b8152600401610a3090612d77565b6016805463ff00000019811663010000009182900460ff1615909102179055565b610bf4838383604051806020016040528060008152506113cd565b6001600160a01b0381166000908152600a6020526040902054610e035760405162461bcd60e51b8152600401610a3090612c67565b6001600160a01b0382166000908152600d60205260408120546040516370a0823160e01b81523060048201526001600160a01b038516906370a082319060240160206040518083038186803b158015610e5b57600080fd5b505afa158015610e6f573d6000803e3d6000fd5b505050506040513d601f19601f82011682018060405250810190610e939190612dac565b610e9d9190612cc3565b90506000610ed68383610c7b87876001600160a01b039182166000908152600e6020908152604080832093909416825291909152205490565b905080610ef55760405162461bcd60e51b8152600401610a3090612cdb565b6001600160a01b038085166000908152600e6020908152604080832093871683529290529081208054839290610f2c908490612cc3565b90915550506001600160a01b0384166000908152600d602052604081208054839290610f59908490612cc3565b90915550610f6a9050848483611f3e565b604080516001600160a01b038581168252602082018490528616917f3be5b7a71e84ed12875d241991c70855ac5817d847039e17a9d895c1ceb0f18a910160405180910390a250505050565b6006546001600160a01b03163314610fe05760405162461bcd60e51b8152600401610a3090612d77565b8051610ff39060139060208401906127e7565b5050565b6000818152600260205260408120546001600160a01b0316806109235760405162461bcd60e51b815260206004820152602960248201527f4552433732313a206f776e657220717565727920666f72206e6f6e657869737460448201526832b73a103a37b5b2b760b91b6064820152608401610a30565b60138054610a6290612c2c565b60006001600160a01b0382166110e65760405162461bcd60e51b815260206004820152602a60248201527f4552433732313a2062616c616e636520717565727920666f7220746865207a65604482015269726f206164647265737360b01b6064820152608401610a30565b506001600160a01b031660009081526003602052604090205490565b6006546001600160a01b0316331461112c5760405162461bcd60e51b8152600401610a3090612d77565b6111366000611f90565b565b6006546001600160a01b031633146111625760405162461bcd60e51b8152600401610a3090612d77565b600f55565b6000600c828154811061117c5761117c612dc5565b6000918252602090912001546001600160a01b031692915050565b60606001805461093890612c2c565b610ff3338383611fe2565b6006546001600160a01b031633146111db5760405162461bcd60e51b8152600401610a3090612d77565b6016805461ff001916610100179055565b33321461120b5760405162461bcd60e51b8152600401610a3090612ddb565b601654640100000000900460ff166112655760405162461bcd60e51b815260206004820181905260248201527f596f75417265414368696c643a205075626c6963204d696e74206973204f46466044820152606401610a30565b60165460ff16156112b85760405162461bcd60e51b815260206004820181905260248201527f596f75417265414368696c643a20436f6e7472616374206973207061757365646044820152606401610a30565b600081116113085760405162461bcd60e51b815260206004820152601960248201527f596f75417265414368696c643a207a65726f20616d6f756e74000000000000006044820152606401610a30565b6000611313601b5490565b6012549091506113238383612cc3565b111561137b5760405162461bcd60e51b815260206004820152602160248201527f596f75417265414368696c643a204d617820737570706c7920657863656564656044820152601960fa1b6064820152608401610a30565b348260195461138a9190612e07565b11156113a85760405162461bcd60e51b8152600401610a3090612e26565b60005b82811015610bf4576113bb6120b1565b806113c581612e6a565b9150506113ab565b6113d73383611cd3565b6113f35760405162461bcd60e51b8152600401610a3090612d26565b6113ff84848484612136565b50505050565b6006546001600160a01b0316331461142f5760405162461bcd60e51b8152600401610a3090612d77565b6016805460ff19811660ff90911615179055565b60158054610a6290612c2c565b6000818152600260205260409020546060906001600160a01b03166114cf5760405162461bcd60e51b815260206004820152602f60248201527f4552433732314d657461646174613a2055524920717565727920666f72206e6f60448201526e3732bc34b9ba32b73a103a37b5b2b760891b6064820152608401610a30565b601654610100900460ff1661157057601480546114eb90612c2c565b80601f016020809104026020016040519081016040528092919081815260200182805461151790612c2c565b80156115645780601f1061153957610100808354040283529160200191611564565b820191906000526020600020905b81548152906001019060200180831161154757829003601f168201915b50505050509050919050565b600061157a612169565b9050600081511161159a57604051806020016040528060008152506115c8565b806115a484612178565b60156040516020016115b893929190612e85565b6040516020818303038152906040525b9392505050565b6006546001600160a01b031633146115f95760405162461bcd60e51b8152600401610a3090612d77565b8051610ff39060159060208401906127e7565b818161168382828080602002602001604051908101604052809392919081815260200183836020028082843760009201919091525050600f546040516bffffffffffffffffffffffff193360601b166020820152909250603401905060405160208183030381529060405280519060200120612276565b15156001146116a45760405162461bcd60e51b8152600401610a3090612ddb565b3332146116c35760405162461bcd60e51b8152600401610a3090612ddb565b336001600160a01b0387161461171b5760405162461bcd60e51b815260206004820152601960248201527f596f75417265414368696c643a204e6f7420616c6c6f776564000000000000006044820152606401610a30565b6016546301000000900460ff166117745760405162461bcd60e51b815260206004820152601c60248201527f596f75417265414368696c643a20574c204d696e74206973204f4646000000006044820152606401610a30565b60165460ff16156117c75760405162461bcd60e51b815260206004820181905260248201527f596f75417265414368696c643a20436f6e7472616374206973207061757365646044820152606401610a30565b6017548511156117e95760405162461bcd60e51b8152600401610a3090612f49565b60175433600090815260186020526040902054611807908790612cc3565b11156118255760405162461bcd60e51b8152600401610a3090612f49565b6000611830601b5490565b6012549091506118408783612cc3565b11156118985760405162461bcd60e51b815260206004820152602160248201527f596f75417265414368696c643a206d617820737570706c7920657863656564656044820152601960fa1b6064820152608401610a30565b3486601a546118a79190612e07565b11156118c55760405162461bcd60e51b8152600401610a3090612e26565b33600090815260186020526040812080548892906118e4908490612cc3565b90915550600090505b8681101561190f576118fd6120b1565b8061190781612e6a565b9150506118ed565b5050505050505050565b6006546001600160a01b031633146119435760405162461bcd60e51b8152600401610a3090612d77565b6016805464ff000000001981166401000000009182900460ff1615909102179055565b60115460405163c455279160e01b81526001600160a01b03848116600483015260009281169190841690829063c45527919060240160206040518083038186803b1580156119b357600080fd5b505afa1580156119c7573d6000803e3d6000fd5b505050506040513d601f19601f820116820180604052508101906119eb9190612f96565b6001600160a01b03161415611a04576001915050610923565b6001600160a01b0380851660009081526005602090815260408083209387168352929052205460ff165b949350505050565b6006546001600160a01b03163314611a605760405162461bcd60e51b8152600401610a3090612d77565b8051610ff39060149060208401906127e7565b6006546001600160a01b03163314611a9d5760405162461bcd60e51b8152600401610a3090612d77565b6001600160a01b038116611b025760405162461bcd60e51b815260206004820152602660248201527f4f776e61626c653a206e6577206f776e657220697320746865207a65726f206160448201526564647265737360d01b6064820152608401610a30565b611b0b81611f90565b50565b600081815260046020526040902080546001600160a01b0319166001600160a01b0384169081179091558190611b4382610ff7565b6001600160a01b03167f8c5be1e5ebec7d5bd14f71427d1e84f3dd0314c0f7b2291e5b200ac8c7c3b92560405160405180910390a45050565b6008546001600160a01b0384166000908152600a602052604081205490918391611ba69086612e07565b611bb09190612fc9565b611a2e9190612fdd565b80471015611c0a5760405162461bcd60e51b815260206004820152601d60248201527f416464726573733a20696e73756666696369656e742062616c616e63650000006044820152606401610a30565b6000826001600160a01b03168260405160006040518083038185875af1925050503d8060008114611c57576040519150601f19603f3d011682016040523d82523d6000602084013e611c5c565b606091505b5050905080610bf45760405162461bcd60e51b815260206004820152603a60248201527f416464726573733a20756e61626c6520746f2073656e642076616c75652c207260448201527f6563697069656e74206d617920686176652072657665727465640000000000006064820152608401610a30565b6000818152600260205260408120546001600160a01b0316611d4c5760405162461bcd60e51b815260206004820152602c60248201527f4552433732313a206f70657261746f7220717565727920666f72206e6f6e657860448201526b34b9ba32b73a103a37b5b2b760a11b6064820152608401610a30565b6000611d5783610ff7565b9050806001600160a01b0316846001600160a01b03161480611d925750836001600160a01b0316611d87846109bb565b6001600160a01b0316145b80611a2e5750611a2e8185611966565b826001600160a01b0316611db582610ff7565b6001600160a01b031614611e195760405162461bcd60e51b815260206004820152602560248201527f4552433732313a207472616e736665722066726f6d20696e636f72726563742060448201526437bbb732b960d91b6064820152608401610a30565b6001600160a01b038216611e7b5760405162461bcd60e51b8152602060048201526024808201527f4552433732313a207472616e7366657220746f20746865207a65726f206164646044820152637265737360e01b6064820152608401610a30565b611e86600082611b0e565b6001600160a01b0383166000908152600360205260408120805460019290611eaf908490612fdd565b90915550506001600160a01b0382166000908152600360205260408120805460019290611edd908490612cc3565b909155505060008181526002602052604080822080546001600160a01b0319166001600160a01b0386811691821790925591518493918716917fddf252ad1be2c89b69c2b068fc378daa952ba7f163c4a11628f55a4df523b3ef91a4505050565b604080516001600160a01b038416602482015260448082018490528251808303909101815260649091019091526020810180516001600160e01b031663a9059cbb60e01b179052610bf490849061228c565b600680546001600160a01b038381166001600160a01b0319831681179093556040519116919082907f8be0079c531659141344cd1fd0a4f28419497f9722a3daafe3b4186f6b6457e090600090a35050565b816001600160a01b0316836001600160a01b031614156120445760405162461bcd60e51b815260206004820152601960248201527f4552433732313a20617070726f766520746f2063616c6c6572000000000000006044820152606401610a30565b6001600160a01b03838116600081815260056020908152604080832094871680845294825291829020805460ff191686151590811790915591519182527f17307eab39ab6107e8899845ad3d59bd9653f200f220920489ca2b5937696c31910160405180910390a3505050565b600260075414156121045760405162461bcd60e51b815260206004820152601f60248201527f5265656e7472616e637947756172643a207265656e7472616e742063616c6c006044820152606401610a30565b6002600755612117601b80546001019055565b6000612122601b5490565b905061212e338261235e565b506001600755565b612141848484611da2565b61214d84848484612378565b6113ff5760405162461bcd60e51b8152600401610a3090612ff4565b60606013805461093890612c2c565b60608161219c5750506040805180820190915260018152600360fc1b602082015290565b8160005b81156121c657806121b081612e6a565b91506121bf9050600a83612fc9565b91506121a0565b60008167ffffffffffffffff8111156121e1576121e1612a0f565b6040519080825280601f01601f19166020018201604052801561220b576020820181803683370190505b5090505b8415611a2e57612220600183612fdd565b915061222d600a86613046565b612238906030612cc3565b60f81b81838151811061224d5761224d612dc5565b60200101906001600160f81b031916908160001a90535061226f600a86612fc9565b945061220f565b6000826122838584612485565b14949350505050565b60006122e1826040518060400160405280602081526020017f5361666545524332303a206c6f772d6c6576656c2063616c6c206661696c6564815250856001600160a01b03166124f99092919063ffffffff16565b805190915015610bf457808060200190518101906122ff919061305a565b610bf45760405162461bcd60e51b815260206004820152602a60248201527f5361666545524332303a204552433230206f7065726174696f6e20646964206e6044820152691bdd081cdd58d8d9595960b21b6064820152608401610a30565b610ff3828260405180602001604052806000815250612508565b60006001600160a01b0384163b1561247a57604051630a85bd0160e11b81526001600160a01b0385169063150b7a02906123bc903390899088908890600401613077565b602060405180830381600087803b1580156123d657600080fd5b505af1925050508015612406575060408051601f3d908101601f19168201909252612403918101906130b4565b60015b612460573d808015612434576040519150601f19603f3d011682016040523d82523d6000602084013e612439565b606091505b5080516124585760405162461bcd60e51b8152600401610a3090612ff4565b805181602001fd5b6001600160e01b031916630a85bd0160e11b149050611a2e565b506001949350505050565b600081815b84518110156124f15760008582815181106124a7576124a7612dc5565b602002602001015190508083116124cd57600083815260208290526040902092506124de565b600081815260208490526040902092505b50806124e981612e6a565b91505061248a565b509392505050565b6060611a2e848460008561253b565b612512838361266c565b61251f6000848484612378565b610bf45760405162461bcd60e51b8152600401610a3090612ff4565b60608247101561259c5760405162461bcd60e51b815260206004820152602660248201527f416464726573733a20696e73756666696369656e742062616c616e636520666f6044820152651c8818d85b1b60d21b6064820152608401610a30565b6001600160a01b0385163b6125f35760405162461bcd60e51b815260206004820152601d60248201527f416464726573733a2063616c6c20746f206e6f6e2d636f6e74726163740000006044820152606401610a30565b600080866001600160a01b0316858760405161260f91906130d1565b60006040518083038185875af1925050503d806000811461264c576040519150601f19603f3d011682016040523d82523d6000602084013e612651565b606091505b50915091506126618282866127ae565b979650505050505050565b6001600160a01b0382166126c25760405162461bcd60e51b815260206004820181905260248201527f4552433732313a206d696e7420746f20746865207a65726f20616464726573736044820152606401610a30565b6000818152600260205260409020546001600160a01b0316156127275760405162461bcd60e51b815260206004820152601c60248201527f4552433732313a20746f6b656e20616c7265616479206d696e746564000000006044820152606401610a30565b6001600160a01b0382166000908152600360205260408120805460019290612750908490612cc3565b909155505060008181526002602052604080822080546001600160a01b0319166001600160a01b03861690811790915590518392907fddf252ad1be2c89b69c2b068fc378daa952ba7f163c4a11628f55a4df523b3ef908290a45050565b606083156127bd5750816115c8565b8251156127cd5782518084602001fd5b8160405162461bcd60e51b8152600401610a30919061290b565b8280546127f390612c2c565b90600052602060002090601f016020900481019282612815576000855561285b565b82601f1061282e57805160ff191683800117855561285b565b8280016001018555821561285b579182015b8281111561285b578251825591602001919060010190612840565b5061286792915061286b565b5090565b5b80821115612867576000815560010161286c565b6001600160e01b031981168114611b0b57600080fd5b6000602082840312156128a857600080fd5b81356115c881612880565b60005b838110156128ce5781810151838201526020016128b6565b838111156113ff5750506000910152565b600081518084526128f78160208601602086016128b3565b601f01601f19169290920160200192915050565b6020815260006115c860208301846128df565b60006020828403121561293057600080fd5b5035919050565b6001600160a01b0381168114611b0b57600080fd5b6000806040838503121561295f57600080fd5b823561296a81612937565b946020939093013593505050565b60006020828403121561298a57600080fd5b81356115c881612937565b6000806000606084860312156129aa57600080fd5b83356129b581612937565b925060208401356129c581612937565b929592945050506040919091013590565b600080604083850312156129e957600080fd5b82356129f481612937565b91506020830135612a0481612937565b809150509250929050565b634e487b7160e01b600052604160045260246000fd5b600067ffffffffffffffff80841115612a4057612a40612a0f565b604051601f8501601f19908116603f01168101908282118183101715612a6857612a68612a0f565b81604052809350858152868686011115612a8157600080fd5b858560208301376000602087830101525050509392505050565b600060208284031215612aad57600080fd5b813567ffffffffffffffff811115612ac457600080fd5b8201601f81018413612ad557600080fd5b611a2e84823560208401612a25565b8015158114611b0b57600080fd5b60008060408385031215612b0557600080fd5b8235612b1081612937565b91506020830135612a0481612ae4565b60008060008060808587031215612b3657600080fd5b8435612b4181612937565b93506020850135612b5181612937565b925060408501359150606085013567ffffffffffffffff811115612b7457600080fd5b8501601f81018713612b8557600080fd5b612b9487823560208401612a25565b91505092959194509250565b60008060008060608587031215612bb657600080fd5b8435612bc181612937565b935060208501359250604085013567ffffffffffffffff80821115612be557600080fd5b818701915087601f830112612bf957600080fd5b813581811115612c0857600080fd5b8860208260051b8501011115612c1d57600080fd5b95989497505060200194505050565b600181811c90821680612c4057607f821691505b60208210811415612c6157634e487b7160e01b600052602260045260246000fd5b50919050565b60208082526026908201527f5061796d656e7453706c69747465723a206163636f756e7420686173206e6f2060408201526573686172657360d01b606082015260800190565b634e487b7160e01b600052601160045260246000fd5b60008219821115612cd657612cd6612cad565b500190565b6020808252602b908201527f5061796d656e7453706c69747465723a206163636f756e74206973206e6f742060408201526a191d59481c185e5b595b9d60aa1b606082015260800190565b60208082526031908201527f4552433732313a207472616e736665722063616c6c6572206973206e6f74206f6040820152701ddb995c881b9bdc88185c1c1c9bdd9959607a1b606082015260800190565b6020808252818101527f4f776e61626c653a2063616c6c6572206973206e6f7420746865206f776e6572604082015260600190565b600060208284031215612dbe57600080fd5b5051919050565b634e487b7160e01b600052603260045260246000fd5b6020808252601290820152712737ba1030b63637bbb2b21037b934b3b4b760711b604082015260600190565b6000816000190483118215151615612e2157612e21612cad565b500290565b60208082526024908201527f596f75417265414368696c643a204e6f7420656e6f75676820657468657273206040820152631cd95b9d60e21b606082015260800190565b6000600019821415612e7e57612e7e612cad565b5060010190565b600084516020612e988285838a016128b3565b855191840191612eab8184848a016128b3565b8554920191600090600181811c9080831680612ec857607f831692505b858310811415612ee657634e487b7160e01b85526022600452602485fd5b808015612efa5760018114612f0b57612f38565b60ff19851688528388019550612f38565b60008b81526020902060005b85811015612f305781548a820152908401908801612f17565b505083880195505b50939b9a5050505050505050505050565b6020808252602d908201527f596f75417265414368696c643a20596f752063616e206e6f74206d696e74207360408201526c6f206d75636820746f6b656e7360981b606082015260800190565b600060208284031215612fa857600080fd5b81516115c881612937565b634e487b7160e01b600052601260045260246000fd5b600082612fd857612fd8612fb3565b500490565b600082821015612fef57612fef612cad565b500390565b60208082526032908201527f4552433732313a207472616e7366657220746f206e6f6e20455243373231526560408201527131b2b4bb32b91034b6b83632b6b2b73a32b960711b606082015260800190565b60008261305557613055612fb3565b500690565b60006020828403121561306c57600080fd5b81516115c881612ae4565b6001600160a01b03858116825284166020820152604081018390526080606082018190526000906130aa908301846128df565b9695505050505050565b6000602082840312156130c657600080fd5b81516115c881612880565b600082516130e38184602087016128b3565b919091019291505056fea2646970667358221220d9317969c15913a9cecc167877144f85c823d92bc845675fa510b907b60c238d64736f6c63430008090033697066733a2f2f516d62746831446478656a4d357177434c7272376d50586d575056347164457a504355326642336b536d7563636e2f68696464656e2e6a736f6e",
  "linkReferences": {},
  "deployedLinkReferences": {}
}